{"abi":[{"type":"constructor","inputs":[{"name":"token","type":"address","internalType":"address"},{"name":"op","type":"address","internalType":"address"}],"stateMutability":"nonpayable"},{"type":"function","name":"bridgeLock","inputs":[{"name":"amount","type":"uint256","internalType":"uint256"},{"name":"l2Recipient","type":"address","internalType":"address"}],"outputs":[{"name":"currentNonce","type":"uint256","internalType":"uint256"}],"stateMutability":"nonpayable"},{"type":"function","name":"nonce","inputs":[],"outputs":[{"name":"","type":"uint256","internalType":"uint256"}],"stateMutability":"view"},{"type":"function","name":"operator","inputs":[],"outputs":[{"name":"","type":"address","internalType":"address"}],"stateMutability":"view"},{"type":"function","name":"sourceToken","inputs":[],"outputs":[{"name":"","type":"address","internalType":"contract IERC20"}],"stateMutability":"view"},{"type":"function","name":"unlock","inputs":[{"name":"l2Nonce","type":"uint256","internalType":"uint256"},{"name":"l1Recipient","type":"address","internalType":"address"},{"name":"amount","type":"uint256","internalType":"uint256"}],"outputs":[],"stateMutability":"nonpayable"},{"type":"function","name":"unlocked","inputs":[{"name":"","type":"uint256","internalType":"uint256"}],"outputs":[{"name":"","type":"bool","internalType":"bool"}],"stateMutability":"view"},{"type":"event","name":"Locked","inputs":[{"name":"nonce","type":"uint256","indexed":true,"internalType":"uint256"},{"name":"from","type":"address","indexed":true,"internalType":"address"},{"name":"l2Recipient","type":"address","indexed":true,"internalType":"address"},{"name":"amount","type":"uint256","indexed":false,"internalType":"uint256"}],"anonymous":false},{"type":"event","name":"Unlocked","inputs":[{"name":"l2Nonce","type":"uint256","indexed":true,"internalType":"uint256"},{"name":"l1Recipient","type":"address","indexed":true,"internalType":"address"},{"name":"amount","type":"uint256","indexed":false,"internalType":"uint256"}],"anonymous":false},{"type":"error","name":"AlreadyUnlocked","inputs":[]},{"type":"error","name":"NotOperator","inputs":[]},{"type":"error","name":"TransferFailed","inputs":[]}],"bytecode":{"object":"0x60c060405234801561000f575f80fd5b506040516105b53803806105b583398101604081905261002e91610060565b6001600160a01b039182166080521660a052610091565b80516001600160a01b038116811461005b575f80fd5b919050565b5f8060408385031215610071575f80fd5b61007a83610045565b915061008860208401610045565b90509250929050565b60805160a0516104f06100c55f395f81816069015261026501525f818160ad01528181610163015261031201526104f05ff3fe608060405234801561000f575f80fd5b5060043610610060575f3560e01c8063570ca735146100645780635f8aaa69146100a85780638b1cf21c146100cf578063affed0e014610101578063b03f71a114610117578063c6b774fd1461012a575b5f80fd5b61008b7f000000000000000000000000000000000000000000000000000000000000000081565b6040516001600160a01b0390911681526020015b60405180910390f35b61008b7f000000000000000000000000000000000000000000000000000000000000000081565b6100f16100dd3660046103e2565b60016020525f908152604090205460ff1681565b604051901515815260200161009f565b6101095f5481565b60405190815260200161009f565b610109610125366004610414565b61013f565b61013d61013836600461043e565b61025a565b005b6040516323b872dd60e01b8152336004820152306024820152604481018390525f907f00000000000000000000000000000000000000000000000000000000000000006001600160a01b0316906323b872dd906064016020604051808303815f875af11580156101b1573d5f803e3d5ffd5b505050506040513d601f19601f820116820180604052508101906101d59190610470565b6101f2576040516312171d8360e31b815260040160405180910390fd5b5f8054908061020083610496565b919050559050816001600160a01b0316336001600160a01b0316827fc13c58ef3b9250224216079679ba28991bacfa72f4126db8724171017dfffe4e8660405161024c91815260200190565b60405180910390a492915050565b336001600160a01b037f000000000000000000000000000000000000000000000000000000000000000016146102a357604051631f0853c160e21b815260040160405180910390fd5b5f8381526001602052604090205460ff16156102d2576040516328486b6360e11b815260040160405180910390fd5b5f83815260016020819052604091829020805460ff191690911790555163a9059cbb60e01b81526001600160a01b038381166004830152602482018390527f0000000000000000000000000000000000000000000000000000000000000000169063a9059cbb906044016020604051808303815f875af1158015610358573d5f803e3d5ffd5b505050506040513d601f19601f8201168201806040525081019061037c9190610470565b610399576040516312171d8360e31b815260040160405180910390fd5b816001600160a01b0316837ff1c2201ab8d3afe0ab6336204843b66bb25c5f27d6de3490c9a463fd18d294a9836040516103d591815260200190565b60405180910390a3505050565b5f602082840312156103f2575f80fd5b5035919050565b80356001600160a01b038116811461040f575f80fd5b919050565b5f8060408385031215610425575f80fd5b82359150610435602084016103f9565b90509250929050565b5f805f60608486031215610450575f80fd5b83359250610460602085016103f9565b9150604084013590509250925092565b5f60208284031215610480575f80fd5b8151801515811461048f575f80fd5b9392505050565b5f600182016104b357634e487b7160e01b5f52601160045260245ffd5b506001019056fea264697066735822122097b561988c8ac86bb3f91107560357b97cb6ece7e01d6942d98815c3a1026d9a64736f6c63430008180033","linkReferences":{}},"methodIdentifiers":{"bridgeLock(uint256,address)":"b03f71a1","nonce()":"affed0e0","operator()":"570ca735","sourceToken()":"5f8aaa69","unlock(uint256,address,uint256)":"c6b774fd","unlocked(uint256)":"8b1cf21c"},"id":3}