{"abi":[{"type":"constructor","inputs":[{"name":"token","type":"address","internalType":"address"},{"name":"op","type":"address","internalType":"address"}],"stateMutability":"nonpayable"},{"type":"function","name":"bridgeBurn","inputs":[{"name":"amount","type":"uint256","internalType":"uint256"},{"name":"l1Recipient","type":"address","internalType":"address"}],"outputs":[{"name":"currentNonce","type":"uint256","internalType":"uint256"}],"stateMutability":"nonpayable"},{"type":"function","name":"burnNonce","inputs":[],"outputs":[{"name":"","type":"uint256","internalType":"uint256"}],"stateMutability":"view"},{"type":"function","name":"destToken","inputs":[],"outputs":[{"name":"","type":"address","internalType":"contract IDestToken"}],"stateMutability":"view"},{"type":"function","name":"mintNonce","inputs":[],"outputs":[{"name":"","type":"uint256","internalType":"uint256"}],"stateMutability":"view"},{"type":"function","name":"operator","inputs":[],"outputs":[{"name":"","type":"address","internalType":"address"}],"stateMutability":"view"},{"type":"function","name":"relayMint","inputs":[{"name":"l1Nonce","type":"uint256","internalType":"uint256"},{"name":"to","type":"address","internalType":"address"},{"name":"amount","type":"uint256","internalType":"uint256"}],"outputs":[],"stateMutability":"nonpayable"},{"type":"event","name":"Burned","inputs":[{"name":"nonce","type":"uint256","indexed":true,"internalType":"uint256"},{"name":"from","type":"address","indexed":true,"internalType":"address"},{"name":"l1Recipient","type":"address","indexed":true,"internalType":"address"},{"name":"amount","type":"uint256","indexed":false,"internalType":"uint256"}],"anonymous":false},{"type":"event","name":"Minted","inputs":[{"name":"l1Nonce","type":"uint256","indexed":true,"internalType":"uint256"},{"name":"to","type":"address","indexed":true,"internalType":"address"},{"name":"amount","type":"uint256","indexed":false,"internalType":"uint256"}],"anonymous":false},{"type":"error","name":"NotOperator","inputs":[]}],"bytecode":{"object":"0x60c060405234801561000f575f80fd5b506040516104b63803806104b683398101604081905261002e91610060565b6001600160a01b039182166080521660a052610091565b80516001600160a01b038116811461005b575f80fd5b919050565b5f8060408385031215610071575f80fd5b61007a83610045565b915061008860208401610045565b90509250929050565b60805160a0516103f16100c55f395f818160c4015261012101525f8181606901528181610185015261025701526103f15ff3fe608060405234801561000f575f80fd5b5060043610610060575f3560e01c80632168083f14610064578063474d6dea146100a8578063570ca735146100bf578063931679a2146100e6578063eb1c77cd146100ee578063f46f935c14610103575b5f80fd5b61008b7f000000000000000000000000000000000000000000000000000000000000000081565b6040516001600160a01b0390911681526020015b60405180910390f35b6100b160015481565b60405190815260200161009f565b61008b7f000000000000000000000000000000000000000000000000000000000000000081565b6100b15f5481565b6101016100fc36600461033b565b610116565b005b6100b161011136600461036d565b610239565b336001600160a01b037f0000000000000000000000000000000000000000000000000000000000000000161461015f57604051631f0853c160e21b815260040160405180910390fd5b6040516340c10f1960e01b81526001600160a01b038381166004830152602482018390527f000000000000000000000000000000000000000000000000000000000000000016906340c10f19906044015f604051808303815f87803b1580156101c6575f80fd5b505af11580156101d8573d5f803e3d5ffd5b50505f805492509050806101eb83610397565b9190505550816001600160a01b0316837fc9d0543a84d3510329c0783b91576878ceb484e8699944cb5610c3436b3b8e398360405161022c91815260200190565b60405180910390a3505050565b604051632770a7eb60e21b8152336004820152602481018390525f907f00000000000000000000000000000000000000000000000000000000000000006001600160a01b031690639dc29fac906044015f604051808303815f87803b1580156102a0575f80fd5b505af11580156102b2573d5f803e3d5ffd5b505060018054925090505f6102c683610397565b919050559050816001600160a01b0316336001600160a01b0316827f8abc079b05f6edad56d2fd89bf20147caf385a3a180078b58089a4d4f08030c68660405161031291815260200190565b60405180910390a492915050565b80356001600160a01b0381168114610336575f80fd5b919050565b5f805f6060848603121561034d575f80fd5b8335925061035d60208501610320565b9150604084013590509250925092565b5f806040838503121561037e575f80fd5b8235915061038e60208401610320565b90509250929050565b5f600182016103b457634e487b7160e01b5f52601160045260245ffd5b506001019056fea264697066735822122061bd957764b25acb5cf9a24cded846abd0dc9ba5d46cd04982d83dbaeed65ae764736f6c63430008180033","linkReferences":{}},"methodIdentifiers":{"bridgeBurn(uint256,address)":"f46f935c","burnNonce()":"474d6dea","destToken()":"2168083f","mintNonce()":"931679a2","operator()":"570ca735","relayMint(uint256,address,uint256)":"eb1c77cd"},"id":0}