{"abi":[{"type":"constructor","inputs":[{"name":"n","type":"string","internalType":"string"},{"name":"s","type":"string","internalType":"string"},{"name":"initialSupply","type":"uint256","internalType":"uint256"},{"name":"recipient","type":"address","internalType":"address"}],"stateMutability":"nonpayable"},{"type":"function","name":"balanceOf","inputs":[{"name":"","type":"address","internalType":"address"}],"outputs":[{"name":"","type":"uint256","internalType":"uint256"}],"stateMutability":"view"},{"type":"function","name":"decimals","inputs":[],"outputs":[{"name":"","type":"uint8","internalType":"uint8"}],"stateMutability":"view"},{"type":"function","name":"delegate","inputs":[{"name":"to","type":"address","internalType":"address"}],"outputs":[],"stateMutability":"nonpayable"},{"type":"function","name":"delegates","inputs":[{"name":"","type":"address","internalType":"address"}],"outputs":[{"name":"","type":"address","internalType":"address"}],"stateMutability":"view"},{"type":"function","name":"getVotes","inputs":[{"name":"account","type":"address","internalType":"address"}],"outputs":[{"name":"","type":"uint256","internalType":"uint256"}],"stateMutability":"view"},{"type":"function","name":"name","inputs":[],"outputs":[{"name":"","type":"string","internalType":"string"}],"stateMutability":"view"},{"type":"function","name":"symbol","inputs":[],"outputs":[{"name":"","type":"string","internalType":"string"}],"stateMutability":"view"},{"type":"function","name":"totalSupply","inputs":[],"outputs":[{"name":"","type":"uint256","internalType":"uint256"}],"stateMutability":"view"},{"type":"function","name":"transfer","inputs":[{"name":"to","type":"address","internalType":"address"},{"name":"value","type":"uint256","internalType":"uint256"}],"outputs":[{"name":"","type":"bool","internalType":"bool"}],"stateMutability":"nonpayable"},{"type":"function","name":"votes","inputs":[{"name":"","type":"address","internalType":"address"}],"outputs":[{"name":"","type":"uint256","internalType":"uint256"}],"stateMutability":"view"},{"type":"event","name":"DelegateChanged","inputs":[{"name":"delegator","type":"address","indexed":true,"internalType":"address"},{"name":"fromDelegate","type":"address","indexed":true,"internalType":"address"},{"name":"toDelegate","type":"address","indexed":true,"internalType":"address"}],"anonymous":false},{"type":"event","name":"DelegateVotesChanged","inputs":[{"name":"delegate","type":"address","indexed":true,"internalType":"address"},{"name":"previous","type":"uint256","indexed":false,"internalType":"uint256"},{"name":"current","type":"uint256","indexed":false,"internalType":"uint256"}],"anonymous":false},{"type":"event","name":"Transfer","inputs":[{"name":"from","type":"address","indexed":true,"internalType":"address"},{"name":"to","type":"address","indexed":true,"internalType":"address"},{"name":"value","type":"uint256","indexed":false,"internalType":"uint256"}],"anonymous":false}],"bytecode":{"object":"0x608060405234801562000010575f80fd5b5060405162000a2e38038062000a2e83398101604081905262000033916200016c565b5f62000040858262000285565b5060016200004f848262000285565b5060028290556001600160a01b0381165f818152600360209081526040808320869055518581527fddf252ad1be2c89b69c2b068fc378daa952ba7f163c4a11628f55a4df523b3ef910160405180910390a35050505062000351565b634e487b7160e01b5f52604160045260245ffd5b5f82601f830112620000cf575f80fd5b81516001600160401b0380821115620000ec57620000ec620000ab565b604051601f8301601f19908116603f01168101908282118183101715620001175762000117620000ab565b816040528381526020925086602085880101111562000134575f80fd5b5f91505b8382101562000157578582018301518183018401529082019062000138565b5f602085830101528094505050505092915050565b5f805f806080858703121562000180575f80fd5b84516001600160401b038082111562000197575f80fd5b620001a588838901620000bf565b95506020870151915080821115620001bb575f80fd5b50620001ca87828801620000bf565b60408701516060880151919550935090506001600160a01b0381168114620001f0575f80fd5b939692955090935050565b600181811c908216806200021057607f821691505b6020821081036200022f57634e487b7160e01b5f52602260045260245ffd5b50919050565b601f8211156200028057805f5260205f20601f840160051c810160208510156200025c5750805b601f840160051c820191505b818110156200027d575f815560010162000268565b50505b505050565b81516001600160401b03811115620002a157620002a1620000ab565b620002b981620002b28454620001fb565b8462000235565b602080601f831160018114620002ef575f8415620002d75750858301515b5f19600386901b1c1916600185901b17855562000349565b5f85815260208120601f198616915b828110156200031f57888601518255948401946001909101908401620002fe565b50858210156200033d57878501515f19600388901b60f8161c191681555b505060018460011b0185555b505050505050565b6106cf806200035f5f395ff3fe608060405234801561000f575f80fd5b506004361061009b575f3560e01c806370a082311161006357806370a082311461014357806395d89b41146101625780639ab24eb01461016a578063a9059cbb14610192578063d8bff5a5146101b5575f80fd5b806306fdde031461009f57806318160ddd146100bd578063313ce567146100d4578063587cde1e146100ee5780635c19a95c1461012e575b5f80fd5b6100a76101d4565b6040516100b49190610578565b60405180910390f35b6100c660025481565b6040519081526020016100b4565b6100dc601281565b60405160ff90911681526020016100b4565b6101166100fc3660046105df565b60046020525f90815260409020546001600160a01b031681565b6040516001600160a01b0390911681526020016100b4565b61014161013c3660046105df565b61025f565b005b6100c66101513660046105df565b60036020525f908152604090205481565b6100a76103e8565b6100c66101783660046105df565b6001600160a01b03165f9081526005602052604090205490565b6101a56101a03660046105ff565b6103f5565b60405190151581526020016100b4565b6100c66101c33660046105df565b60056020525f908152604090205481565b5f80546101e090610627565b80601f016020809104026020016040519081016040528092919081815260200182805461020c90610627565b80156102575780601f1061022e57610100808354040283529160200191610257565b820191905f5260205f20905b81548152906001019060200180831161023a57829003601f168201915b505050505081565b335f8181526004602052604080822080546001600160a01b038681166001600160a01b0319831681179093559251921693909284927f3134e8a2e6d97e929a7e54011ea5485d7d196dd5f0ba4d4ef95803e8e3fc257f9190a4335f908152600360205260409020546001600160a01b03821615610355576001600160a01b0382165f908152600560205260409020546102f88282610673565b6001600160a01b0384165f81815260056020526040908190208390555190917fdec2bacdd2f05b59de34da9b523dff8be42e5e38e818c82fdb0bae774387a7249161034b91858252602082015260400190565b60405180910390a2505b6001600160a01b038316156103e3576001600160a01b0383165f908152600560205260409020546103868282610686565b6001600160a01b0385165f81815260056020526040908190208390555190917fdec2bacdd2f05b59de34da9b523dff8be42e5e38e818c82fdb0bae774387a724916103d991858252602082015260400190565b60405180910390a2505b505050565b600180546101e090610627565b335f908152600360205260408120548211156104465760405162461bcd60e51b815260206004820152600c60248201526b1a5b9cdd59999a58da595b9d60a21b604482015260640160405180910390fd5b335f9081526003602052604081208054849290610464908490610673565b90915550506001600160a01b0383165f9081526003602052604081208054849290610490908490610686565b90915550506040518281526001600160a01b0384169033907fddf252ad1be2c89b69c2b068fc378daa952ba7f163c4a11628f55a4df523b3ef9060200160405180910390a3335f90815260046020526040808220546001600160a01b03868116845291909220549181169116811561052f576001600160a01b0382165f9081526005602052604081208054869290610529908490610673565b90915550505b6001600160a01b0381161561056b576001600160a01b0381165f9081526005602052604081208054869290610565908490610686565b90915550505b6001925050505b92915050565b5f602080835283518060208501525f5b818110156105a457858101830151858201604001528201610588565b505f604082860101526040601f19601f8301168501019250505092915050565b80356001600160a01b03811681146105da575f80fd5b919050565b5f602082840312156105ef575f80fd5b6105f8826105c4565b9392505050565b5f8060408385031215610610575f80fd5b610619836105c4565b946020939093013593505050565b600181811c9082168061063b57607f821691505b60208210810361065957634e487b7160e01b5f52602260045260245ffd5b50919050565b634e487b7160e01b5f52601160045260245ffd5b818103818111156105725761057261065f565b808201808211156105725761057261065f56fea2646970667358221220e36c1b6859791b1f71c321f783869685382f9d2374b40c4ef25f6b244ed0fb9764736f6c63430008180033","linkReferences":{}},"methodIdentifiers":{"balanceOf(address)":"70a08231","decimals()":"313ce567","delegate(address)":"5c19a95c","delegates(address)":"587cde1e","getVotes(address)":"9ab24eb0","name()":"06fdde03","symbol()":"95d89b41","totalSupply()":"18160ddd","transfer(address,uint256)":"a9059cbb","votes(address)":"d8bff5a5"},"id":2}