{"abi":[{"type":"function","name":"balanceOf","inputs":[{"name":"","type":"address","internalType":"address"}],"outputs":[{"name":"","type":"uint256","internalType":"uint256"}],"stateMutability":"view"},{"type":"function","name":"mint","inputs":[],"outputs":[{"name":"tokenId","type":"uint256","internalType":"uint256"}],"stateMutability":"nonpayable"},{"type":"function","name":"name","inputs":[],"outputs":[{"name":"","type":"string","internalType":"string"}],"stateMutability":"view"},{"type":"function","name":"ownerOf","inputs":[{"name":"","type":"uint256","internalType":"uint256"}],"outputs":[{"name":"","type":"address","internalType":"address"}],"stateMutability":"view"},{"type":"function","name":"symbol","inputs":[],"outputs":[{"name":"","type":"string","internalType":"string"}],"stateMutability":"view"},{"type":"function","name":"totalSupply","inputs":[],"outputs":[{"name":"","type":"uint256","internalType":"uint256"}],"stateMutability":"view"},{"type":"function","name":"transferFrom","inputs":[{"name":"from","type":"address","internalType":"address"},{"name":"to","type":"address","internalType":"address"},{"name":"tokenId","type":"uint256","internalType":"uint256"}],"outputs":[],"stateMutability":"nonpayable"},{"type":"event","name":"Transfer","inputs":[{"name":"from","type":"address","indexed":true,"internalType":"address"},{"name":"to","type":"address","indexed":true,"internalType":"address"},{"name":"tokenId","type":"uint256","indexed":true,"internalType":"uint256"}],"anonymous":false},{"type":"error","name":"InvalidRecipient","inputs":[]},{"type":"error","name":"NotOwner","inputs":[]}],"bytecode":{"object":"0x608060405234801561000f575f80fd5b5061047a8061001d5f395ff3fe608060405234801561000f575f80fd5b506004361061007a575f3560e01c806323b872dd1161005857806323b872dd146100d95780636352211e146100ee57806370a082311461012e57806395d89b411461014d575f80fd5b806306fdde031461007e5780631249c58b146100ba57806318160ddd146100d0575b5f80fd5b6100a46040518060400160405280600781526020016611d85d1953919560ca1b81525081565b6040516100b1919061032d565b60405180910390f35b6100c2610170565b6040519081526020016100b1565b6100c260025481565b6100ec6100e7366004610394565b6101fb565b005b6101166100fc3660046103cd565b5f602081905290815260409020546001600160a01b031681565b6040516001600160a01b0390911681526020016100b1565b6100c261013c3660046103e4565b60016020525f908152604090205481565b6100a4604051806040016040528060048152602001634741544560e01b81525081565b5f60025460016101809190610418565b5f8181526020818152604080832080546001600160a01b0319163390811790915583526001918290528220805493945090929091906101c0908490610418565b90915550506002819055604051819033905f907fddf252ad1be2c89b69c2b068fc378daa952ba7f163c4a11628f55a4df523b3ef908290a490565b5f818152602081905260409020546001600160a01b03848116911614158061022c5750336001600160a01b03841614155b1561024a576040516330cd747160e01b815260040160405180910390fd5b6001600160a01b03821661027157604051634e46966960e11b815260040160405180910390fd5b5f8181526020818152604080832080546001600160a01b0319166001600160a01b03878116919091179091558616835260019182905282208054919290916102ba908490610431565b90915550506001600160a01b0382165f90815260016020819052604082208054919290916102e9908490610418565b909155505060405181906001600160a01b0380851691908616907fddf252ad1be2c89b69c2b068fc378daa952ba7f163c4a11628f55a4df523b3ef905f90a4505050565b5f602080835283518060208501525f5b818110156103595785810183015185820160400152820161033d565b505f604082860101526040601f19601f8301168501019250505092915050565b80356001600160a01b038116811461038f575f80fd5b919050565b5f805f606084860312156103a6575f80fd5b6103af84610379565b92506103bd60208501610379565b9150604084013590509250925092565b5f602082840312156103dd575f80fd5b5035919050565b5f602082840312156103f4575f80fd5b6103fd82610379565b9392505050565b634e487b7160e01b5f52601160045260245ffd5b8082018082111561042b5761042b610404565b92915050565b8181038181111561042b5761042b61040456fea264697066735822122076b7296537ec21e3e369b5c9f291720c85ff6fdb2e2a129b7235cabe40b8197164736f6c63430008180033","linkReferences":{}},"methodIdentifiers":{"balanceOf(address)":"70a08231","mint()":"1249c58b","name()":"06fdde03","ownerOf(uint256)":"6352211e","symbol()":"95d89b41","totalSupply()":"18160ddd","transferFrom(address,address,uint256)":"23b872dd"},"id":0}