{"abi":[{"type":"function","name":"balanceOf","inputs":[{"name":"","type":"address","internalType":"address"}],"outputs":[{"name":"","type":"uint256","internalType":"uint256"}],"stateMutability":"view"},{"type":"function","name":"mint","inputs":[],"outputs":[{"name":"tokenId","type":"uint256","internalType":"uint256"}],"stateMutability":"nonpayable"},{"type":"function","name":"name","inputs":[],"outputs":[{"name":"","type":"string","internalType":"string"}],"stateMutability":"view"},{"type":"function","name":"ownerOf","inputs":[{"name":"","type":"uint256","internalType":"uint256"}],"outputs":[{"name":"","type":"address","internalType":"address"}],"stateMutability":"view"},{"type":"function","name":"symbol","inputs":[],"outputs":[{"name":"","type":"string","internalType":"string"}],"stateMutability":"view"},{"type":"function","name":"totalSupply","inputs":[],"outputs":[{"name":"","type":"uint256","internalType":"uint256"}],"stateMutability":"view"},{"type":"event","name":"Transfer","inputs":[{"name":"from","type":"address","indexed":true,"internalType":"address"},{"name":"to","type":"address","indexed":true,"internalType":"address"},{"name":"tokenId","type":"uint256","indexed":true,"internalType":"uint256"}],"anonymous":false}],"bytecode":{"object":"0x608060405234801561000f575f80fd5b506102b78061001d5f395ff3fe608060405234801561000f575f80fd5b5060043610610060575f3560e01c806306fdde03146100645780631249c58b146100a057806318160ddd146100b65780636352211e146100bf57806370a08231146100ff57806395d89b411461011e575b5f80fd5b61008a6040518060400160405280600781526020016611d85d1953919560ca1b81525081565b60405161009791906101cc565b60405180910390f35b6100a8610141565b604051908152602001610097565b6100a860025481565b6100e76100cd366004610218565b5f602081905290815260409020546001600160a01b031681565b6040516001600160a01b039091168152602001610097565b6100a861010d36600461022f565b60016020525f908152604090205481565b61008a604051806040016040528060048152602001634741544560e01b81525081565b5f6002546001610151919061025c565b5f8181526020818152604080832080546001600160a01b03191633908117909155835260019182905282208054939450909290919061019190849061025c565b90915550506002819055604051819033905f907fddf252ad1be2c89b69c2b068fc378daa952ba7f163c4a11628f55a4df523b3ef908290a490565b5f602080835283518060208501525f5b818110156101f8578581018301518582016040015282016101dc565b505f604082860101526040601f19601f8301168501019250505092915050565b5f60208284031215610228575f80fd5b5035919050565b5f6020828403121561023f575f80fd5b81356001600160a01b0381168114610255575f80fd5b9392505050565b8082018082111561027b57634e487b7160e01b5f52601160045260245ffd5b9291505056fea26469706673582212202ef1195fbbf35c1da2e0b8f5cf24f6ccac260d0769ced27c457ded31b1e9022464736f6c63430008180033","linkReferences":{}},"methodIdentifiers":{"balanceOf(address)":"70a08231","mint()":"1249c58b","name()":"06fdde03","ownerOf(uint256)":"6352211e","symbol()":"95d89b41","totalSupply()":"18160ddd"},"id":0}