{"abi":[{"type":"constructor","inputs":[{"name":"_owner","type":"address","internalType":"address"},{"name":"_entryPoint","type":"address","internalType":"address"},{"name":"_guardians","type":"address[]","internalType":"address[]"},{"name":"_recoveryThreshold","type":"uint256","internalType":"uint256"}],"stateMutability":"nonpayable"},{"type":"receive","stateMutability":"payable"},{"type":"function","name":"MAGICVALUE","inputs":[],"outputs":[{"name":"","type":"bytes4","internalType":"bytes4"}],"stateMutability":"view"},{"type":"function","name":"approveRecovery","inputs":[{"name":"requestId","type":"uint256","internalType":"uint256"}],"outputs":[],"stateMutability":"nonpayable"},{"type":"function","name":"entryPoint","inputs":[],"outputs":[{"name":"","type":"address","internalType":"address"}],"stateMutability":"view"},{"type":"function","name":"execute","inputs":[{"name":"target","type":"address","internalType":"address"},{"name":"value","type":"uint256","internalType":"uint256"},{"name":"data","type":"bytes","internalType":"bytes"}],"outputs":[{"name":"result","type":"bytes","internalType":"bytes"}],"stateMutability":"nonpayable"},{"type":"function","name":"executeBatch","inputs":[{"name":"targets","type":"address[]","internalType":"address[]"},{"name":"values","type":"uint256[]","internalType":"uint256[]"},{"name":"data","type":"bytes[]","internalType":"bytes[]"}],"outputs":[{"name":"results","type":"bytes[]","internalType":"bytes[]"}],"stateMutability":"nonpayable"},{"type":"function","name":"finalizeRecovery","inputs":[{"name":"requestId","type":"uint256","internalType":"uint256"}],"outputs":[],"stateMutability":"nonpayable"},{"type":"function","name":"guardianCount","inputs":[],"outputs":[{"name":"","type":"uint256","internalType":"uint256"}],"stateMutability":"view"},{"type":"function","name":"guardians","inputs":[{"name":"","type":"address","internalType":"address"}],"outputs":[{"name":"","type":"bool","internalType":"bool"}],"stateMutability":"view"},{"type":"function","name":"hasApprovedRecovery","inputs":[{"name":"requestId","type":"uint256","internalType":"uint256"},{"name":"guardian","type":"address","internalType":"address"}],"outputs":[{"name":"","type":"bool","internalType":"bool"}],"stateMutability":"view"},{"type":"function","name":"isValidSignature","inputs":[{"name":"hash","type":"bytes32","internalType":"bytes32"},{"name":"signature","type":"bytes","internalType":"bytes"}],"outputs":[{"name":"","type":"bytes4","internalType":"bytes4"}],"stateMutability":"view"},{"type":"function","name":"owner","inputs":[],"outputs":[{"name":"","type":"address","internalType":"address"}],"stateMutability":"view"},{"type":"function","name":"ownerEpoch","inputs":[],"outputs":[{"name":"","type":"uint256","internalType":"uint256"}],"stateMutability":"view"},{"type":"function","name":"proposeRecovery","inputs":[{"name":"newOwner","type":"address","internalType":"address"}],"outputs":[{"name":"requestId","type":"uint256","internalType":"uint256"}],"stateMutability":"nonpayable"},{"type":"function","name":"recoveryRequestCount","inputs":[],"outputs":[{"name":"","type":"uint256","internalType":"uint256"}],"stateMutability":"view"},{"type":"function","name":"recoveryRequestView","inputs":[{"name":"requestId","type":"uint256","internalType":"uint256"}],"outputs":[{"name":"proposedOwner","type":"address","internalType":"address"},{"name":"approvals","type":"uint256","internalType":"uint256"},{"name":"finalized","type":"bool","internalType":"bool"},{"name":"requestOwnerEpoch","type":"uint256","internalType":"uint256"}],"stateMutability":"view"},{"type":"function","name":"recoveryThreshold","inputs":[],"outputs":[{"name":"","type":"uint256","internalType":"uint256"}],"stateMutability":"view"},{"type":"event","name":"BatchExecuted","inputs":[{"name":"count","type":"uint256","indexed":false,"internalType":"uint256"}],"anonymous":false},{"type":"event","name":"Executed","inputs":[{"name":"target","type":"address","indexed":true,"internalType":"address"},{"name":"value","type":"uint256","indexed":false,"internalType":"uint256"},{"name":"data","type":"bytes","indexed":false,"internalType":"bytes"}],"anonymous":false},{"type":"event","name":"RecoveryApproved","inputs":[{"name":"requestId","type":"uint256","indexed":true,"internalType":"uint256"},{"name":"guardian","type":"address","indexed":true,"internalType":"address"}],"anonymous":false},{"type":"event","name":"RecoveryFinalized","inputs":[{"name":"requestId","type":"uint256","indexed":true,"internalType":"uint256"},{"name":"newOwner","type":"address","indexed":true,"internalType":"address"}],"anonymous":false},{"type":"event","name":"RecoveryProposed","inputs":[{"name":"requestId","type":"uint256","indexed":true,"internalType":"uint256"},{"name":"proposer","type":"address","indexed":true,"internalType":"address"},{"name":"newOwner","type":"address","indexed":true,"internalType":"address"}],"anonymous":false},{"type":"error","name":"AlreadyApproved","inputs":[]},{"type":"error","name":"BatchCallFailed","inputs":[{"name":"index","type":"uint256","internalType":"uint256"},{"name":"target","type":"address","internalType":"address"}]},{"type":"error","name":"CallFailed","inputs":[{"name":"target","type":"address","internalType":"address"}]},{"type":"error","name":"InvalidGuardianConfig","inputs":[]},{"type":"error","name":"InvalidNewOwner","inputs":[]},{"type":"error","name":"InvalidRecoveryRequest","inputs":[]},{"type":"error","name":"LengthMismatch","inputs":[]},{"type":"error","name":"NotAuthorized","inputs":[]},{"type":"error","name":"NotGuardian","inputs":[]},{"type":"error","name":"RecoveryAlreadyFinalized","inputs":[]},{"type":"error","name":"RecoveryStale","inputs":[]},{"type":"error","name":"ThresholdNotReached","inputs":[{"name":"approved","type":"uint256","internalType":"uint256"},{"name":"required","type":"uint256","internalType":"uint256"}]}],"bytecode":{"object":"0x60c060405234801562000010575f80fd5b506040516200143938038062001439833981016040819052620000339162000187565b6001600160a01b038416158062000048575080155b80620000545750815181115b156200007357604051637623bd5d60e01b815260040160405180910390fd5b5f80546001600160a01b0319166001600160a01b03868116919091178255841660805260a08290525b825181101562000148575f838281518110620000bc57620000bc62000281565b602002602001015190505f6001600160a01b0316816001600160a01b03161480620000fe57506001600160a01b0381165f9081526004602052604090205460ff165b156200011d57604051637623bd5d60e01b815260040160405180910390fd5b6001600160a01b03165f908152600460205260409020805460ff19166001908117909155016200009c565b50505160015550620002959050565b80516001600160a01b03811681146200016e575f80fd5b919050565b634e487b7160e01b5f52604160045260245ffd5b5f805f80608085870312156200019b575f80fd5b620001a68562000157565b93506020620001b781870162000157565b60408701519094506001600160401b0380821115620001d4575f80fd5b818801915088601f830112620001e8575f80fd5b815181811115620001fd57620001fd62000173565b8060051b604051601f19603f8301168101818110858211171562000225576200022562000173565b60405291825284820192508381018501918b83111562000243575f80fd5b938501935b828510156200026c576200025c8562000157565b8452938501939285019262000248565b60609a909a0151989b979a5050505050505050565b634e487b7160e01b5f52603260045260245ffd5b60805160a05161116d620002cc5f395f818161020d0152818161041f015261046501525f81816103480152610c33015261116d5ff3fe6080604052600436106100f2575f3560e01c8063605e75a211610087578063b0d691fe11610057578063b0d691fe14610337578063b61d27f61461036a578063d6dfcf6c14610396578063ff218823146103ab575f80fd5b8063605e75a21461027e5780637ee76082146102935780638da5cb5b146102b2578063ad3df9cf146102e8575f80fd5b80631626ba7e116100c25780631626ba7e146101c45780631c8123d6146101fc57806347e1da2a1461023d57806354387ad714610269575f80fd5b80630633b14a146100fd578063066ae84b14610140578063113647bb14610161578063136dd75514610180575f80fd5b366100f957005b5f80fd5b348015610108575f80fd5b5061012b610117366004610d9c565b60046020525f908152604090205460ff1681565b60405190151581526020015b60405180910390f35b34801561014b575f80fd5b5061015f61015a366004610db5565b6103c5565b005b34801561016c575f80fd5b5061015f61017b366004610db5565b610514565b34801561018b575f80fd5b5061012b61019a366004610dcc565b5f9182526006602090815260408084206001600160a01b0393909316845291905290205460ff1690565b3480156101cf575f80fd5b506101e36101de366004610e3b565b610619565b6040516001600160e01b03199091168152602001610137565b348015610207575f80fd5b5061022f7f000000000000000000000000000000000000000000000000000000000000000081565b604051908152602001610137565b348015610248575f80fd5b5061025c610257366004610ec4565b6107bf565b6040516101379190610f9a565b348015610274575f80fd5b5061022f60015481565b348015610289575f80fd5b5061022f60025481565b34801561029e575f80fd5b5061022f6102ad366004610d9c565b610a69565b3480156102bd575f80fd5b505f546102d0906001600160a01b031681565b6040516001600160a01b039091168152602001610137565b3480156102f3575f80fd5b50610307610302366004610db5565b610b7c565b604080516001600160a01b0390951685526020850193909352901515918301919091526060820152608001610137565b348015610342575f80fd5b506102d07f000000000000000000000000000000000000000000000000000000000000000081565b348015610375575f80fd5b50610389610384366004610ffc565b610bba565b6040516101379190611052565b3480156103a1575f80fd5b5061022f60035481565b3480156103b6575f80fd5b506101e3630b135d3f60e11b81565b5f6103cf82610bd9565b90506003548160030154146103f7576040516371271ee160e11b815260040160405180910390fd5b600281015460ff161561041d576040516332c6649360e11b815260040160405180910390fd5b7f00000000000000000000000000000000000000000000000000000000000000008160010154101561049657600181015460405163ccf7c5f560e01b815260048101919091527f000000000000000000000000000000000000000000000000000000000000000060248201526044015b60405180910390fd5b60028101805460ff1916600117905580545f80546001600160a01b0319166001600160a01b0390921691909117815560038054916104d383611064565b909155505080546040516001600160a01b039091169083907f14ca2abddc4b8a8528a04dfd0ada8b48e1141eabef4308cca02c2fcb06b2e00b905f90a35050565b335f9081526004602052604090205460ff16610543576040516377b6878160e11b815260040160405180910390fd5b5f61054d82610bd9565b600281015490915060ff1615610576576040516332c6649360e11b815260040160405180910390fd5b5f82815260066020908152604080832033845290915290205460ff16156105b05760405163080fc0bd60e11b815260040160405180910390fd5b5f8281526006602090815260408083203384529091528120805460ff1916600190811790915582018054916105e483611064565b9091555050604051339083907f75cc0fdddfa6e54a2f04c21b76aa220e6673bd272744ed9848e6305ad53b89ea905f90a35050565b5f6041821461063157506001600160e01b03196107b8565b604080517f19457468657265756d205369676e6564204d6573736167653a0a333200000000602080830191909152603c82018790528535929086013591908601355f90811a91605c0160408051601f1981840301815282825280516020918201205f80855291840180845281905260ff86169284019290925260608301879052608083018690529092509060019060a0016020604051602081039080840390855afa1580156106e2573d5f803e3d5ffd5b5050604051601f1901515f549092506001600160a01b0390811690831603905061071b5750630b135d3f60e11b94506107b89350505050565b604080515f808252602082018084528c905260ff861692820192909252606081018790526080810186905260019060a0016020604051602081039080840390855afa15801561076c573d5f803e3d5ffd5b5050604051601f1901515f549092506001600160a01b039081169083160390506107a65750630b135d3f60e11b95506107b8945050505050565b506001600160e01b0319955050505050505b9392505050565b60606107c9610c13565b85841415806107d85750858214155b156107f9576040516001621398b960e31b0319815260040160405180910390fd5b8567ffffffffffffffff81111561081257610812611088565b60405190808252806020026020018201604052801561084557816020015b60608152602001906001900390816108305790505b5090505f5b86811015610a2b575f8888838181106108655761086561109c565b905060200201602081019061087a9190610d9c565b9050806001600160a01b03163b5f036108b8576040516350b99ca360e01b8152600481018390526001600160a01b038216602482015260440161048d565b5f80826001600160a01b03168989868181106108d6576108d661109c565b905060200201358888878181106108ef576108ef61109c565b905060200281019061090191906110b0565b60405161090f9291906110f3565b5f6040518083038185875af1925050503d805f8114610949576040519150601f19603f3d011682016040523d82523d5f602084013e61094e565b606091505b509150915081610983576040516350b99ca360e01b8152600481018590526001600160a01b038416602482015260440161048d565b808585815181106109965761099661109c565b6020026020010181905250826001600160a01b03167fcaf938de11c367272220bfd1d2baa99ca46665e7bc4d85f00adb51b90fe1fa9f8a8a878181106109de576109de61109c565b905060200201358989888181106109f7576109f761109c565b9050602002810190610a0991906110b0565b604051610a1893929190611102565b60405180910390a250505060010161084a565b506040518681527fe9cc9bbe7de1cbb097a6357ca3182909488efe8d793e25665befc064a02d10a79060200160405180910390a19695505050505050565b335f9081526004602052604081205460ff16610a98576040516377b6878160e11b815260040160405180910390fd5b6001600160a01b038216610abf57604051632a52b3c360e11b815260040160405180910390fd5b60025f8154610acd90611064565b9182905550604080516080810182526001600160a01b038581168083525f602080850182815285870183815260038054606089019081528a86526005909452888520975188546001600160a01b0319169716969096178755905160018701555160028601805460ff1916911515919091179055519390920192909255915192935091339184917f1cb35b5c3390081f0283210f4fd58d68d6e6fef68913e6b75582139b1a4adc359190a4919050565b5f805f805f610b8a86610bd9565b8054600182015460028301546003909301546001600160a01b039092169990985060ff9092169650945092505050565b6060610bc4610c13565b610bd085858585610c76565b95945050505050565b5f81815260056020526040902080546001600160a01b0316610c0e57604051636b7d27d960e11b815260040160405180910390fd5b919050565b5f546001600160a01b03163314801590610c565750336001600160a01b037f00000000000000000000000000000000000000000000000000000000000000001614155b15610c745760405163ea8e4eb560e01b815260040160405180910390fd5b565b6060846001600160a01b03163b5f03610cad5760405163201be19160e01b81526001600160a01b038616600482015260240161048d565b5f80866001600160a01b0316868686604051610cca9291906110f3565b5f6040518083038185875af1925050503d805f8114610d04576040519150601f19603f3d011682016040523d82523d5f602084013e610d09565b606091505b509150915081610d375760405163201be19160e01b81526001600160a01b038816600482015260240161048d565b866001600160a01b03167fcaf938de11c367272220bfd1d2baa99ca46665e7bc4d85f00adb51b90fe1fa9f878787604051610d7493929190611102565b60405180910390a29695505050505050565b80356001600160a01b0381168114610c0e575f80fd5b5f60208284031215610dac575f80fd5b6107b882610d86565b5f60208284031215610dc5575f80fd5b5035919050565b5f8060408385031215610ddd575f80fd5b82359150610ded60208401610d86565b90509250929050565b5f8083601f840112610e06575f80fd5b50813567ffffffffffffffff811115610e1d575f80fd5b602083019150836020828501011115610e34575f80fd5b9250929050565b5f805f60408486031215610e4d575f80fd5b83359250602084013567ffffffffffffffff811115610e6a575f80fd5b610e7686828701610df6565b9497909650939450505050565b5f8083601f840112610e93575f80fd5b50813567ffffffffffffffff811115610eaa575f80fd5b6020830191508360208260051b8501011115610e34575f80fd5b5f805f805f8060608789031215610ed9575f80fd5b863567ffffffffffffffff80821115610ef0575f80fd5b610efc8a838b01610e83565b90985096506020890135915080821115610f14575f80fd5b610f208a838b01610e83565b90965094506040890135915080821115610f38575f80fd5b50610f4589828a01610e83565b979a9699509497509295939492505050565b5f81518084525f5b81811015610f7b57602081850181015186830182015201610f5f565b505f602082860101526020601f19601f83011685010191505092915050565b5f60208083016020845280855180835260408601915060408160051b8701019250602087015f5b82811015610fef57603f19888603018452610fdd858351610f57565b94509285019290850190600101610fc1565b5092979650505050505050565b5f805f806060858703121561100f575f80fd5b61101885610d86565b935060208501359250604085013567ffffffffffffffff81111561103a575f80fd5b61104687828801610df6565b95989497509550505050565b602081525f6107b86020830184610f57565b5f6001820161108157634e487b7160e01b5f52601160045260245ffd5b5060010190565b634e487b7160e01b5f52604160045260245ffd5b634e487b7160e01b5f52603260045260245ffd5b5f808335601e198436030181126110c5575f80fd5b83018035915067ffffffffffffffff8211156110df575f80fd5b602001915036819003821315610e34575f80fd5b818382375f9101908152919050565b83815260406020820152816040820152818360608301375f818301606090810191909152601f909201601f191601019291505056fea26469706673582212203f9cbc29c7c4bcff5910b8827ae779d0d22c289e3264a542103a9730d67c8e9164736f6c63430008180033","linkReferences":{}},"methodIdentifiers":{"MAGICVALUE()":"ff218823","approveRecovery(uint256)":"113647bb","entryPoint()":"b0d691fe","execute(address,uint256,bytes)":"b61d27f6","executeBatch(address[],uint256[],bytes[])":"47e1da2a","finalizeRecovery(uint256)":"066ae84b","guardianCount()":"54387ad7","guardians(address)":"0633b14a","hasApprovedRecovery(uint256,address)":"136dd755","isValidSignature(bytes32,bytes)":"1626ba7e","owner()":"8da5cb5b","ownerEpoch()":"d6dfcf6c","proposeRecovery(address)":"7ee76082","recoveryRequestCount()":"605e75a2","recoveryRequestView(uint256)":"ad3df9cf","recoveryThreshold()":"1c8123d6"},"id":1}