{"abi":[{"type":"constructor","inputs":[],"stateMutability":"nonpayable"},{"type":"function","name":"getPrice","inputs":[{"name":"asset","type":"address","internalType":"address"}],"outputs":[{"name":"","type":"uint256","internalType":"uint256"}],"stateMutability":"view"},{"type":"function","name":"owner","inputs":[],"outputs":[{"name":"","type":"address","internalType":"address"}],"stateMutability":"view"},{"type":"function","name":"price","inputs":[{"name":"","type":"address","internalType":"address"}],"outputs":[{"name":"","type":"uint256","internalType":"uint256"}],"stateMutability":"view"},{"type":"function","name":"setPrice","inputs":[{"name":"asset","type":"address","internalType":"address"},{"name":"newPrice","type":"uint256","internalType":"uint256"}],"outputs":[],"stateMutability":"nonpayable"},{"type":"event","name":"PriceUpdated","inputs":[{"name":"asset","type":"address","indexed":true,"internalType":"address"},{"name":"price","type":"uint256","indexed":false,"internalType":"uint256"}],"anonymous":false},{"type":"error","name":"InvalidPrice","inputs":[]},{"type":"error","name":"NotOwner","inputs":[]},{"type":"error","name":"PriceNotSet","inputs":[{"name":"asset","type":"address","internalType":"address"}]}],"bytecode":{"object":"0x60a060405234801561000f575f80fd5b50336080526080516102846100315f395f8181608d015260f101526102845ff3fe608060405234801561000f575f80fd5b5060043610610049575f3560e01c8062e4768b1461004d57806341976e09146100625780638da5cb5b14610088578063aea91078146100c7575b5f80fd5b61006061005b366004610206565b6100e6565b005b61007561007036600461022e565b61019e565b6040519081526020015b60405180910390f35b6100af7f000000000000000000000000000000000000000000000000000000000000000081565b6040516001600160a01b03909116815260200161007f565b6100756100d536600461022e565b5f6020819052908152604090205481565b336001600160a01b037f0000000000000000000000000000000000000000000000000000000000000000161461012f576040516330cd747160e01b815260040160405180910390fd5b805f0361014e5760405162bfc92160e01b815260040160405180910390fd5b6001600160a01b0382165f818152602081815260409182902084905590518381527f0d86730737b142fc160892fa8a0f2db687a92a0e294d1ad70624cf5acef03b84910160405180910390a25050565b6001600160a01b0381165f908152602081905260408120548082036101e5576040516314f3191760e11b81526001600160a01b038416600482015260240160405180910390fd5b92915050565b80356001600160a01b0381168114610201575f80fd5b919050565b5f8060408385031215610217575f80fd5b610220836101eb565b946020939093013593505050565b5f6020828403121561023e575f80fd5b610247826101eb565b939250505056fea2646970667358221220c7a2a2e1b9555c1551ae2307781f24b500c593253c3d0a6cb2a2c3722be8f27864736f6c63430008180033","linkReferences":{}},"methodIdentifiers":{"getPrice(address)":"41976e09","owner()":"8da5cb5b","price(address)":"aea91078","setPrice(address,uint256)":"00e4768b"},"id":0}