{"abi":[{"type":"function","name":"getPrice","inputs":[{"name":"asset","type":"address","internalType":"address"}],"outputs":[{"name":"","type":"uint256","internalType":"uint256"}],"stateMutability":"view"},{"type":"function","name":"price","inputs":[{"name":"","type":"address","internalType":"address"}],"outputs":[{"name":"","type":"uint256","internalType":"uint256"}],"stateMutability":"view"},{"type":"function","name":"setPrice","inputs":[{"name":"asset","type":"address","internalType":"address"},{"name":"newPrice","type":"uint256","internalType":"uint256"}],"outputs":[],"stateMutability":"nonpayable"},{"type":"event","name":"PriceUpdated","inputs":[{"name":"asset","type":"address","indexed":true,"internalType":"address"},{"name":"price","type":"uint256","indexed":false,"internalType":"uint256"}],"anonymous":false},{"type":"error","name":"InvalidPrice","inputs":[]},{"type":"error","name":"PriceNotSet","inputs":[{"name":"asset","type":"address","internalType":"address"}]}],"bytecode":{"object":"0x608060405234801561000f575f80fd5b506101f08061001d5f395ff3fe608060405234801561000f575f80fd5b506004361061003e575f3560e01c8062e4768b1461004257806341976e0914610057578063aea910781461007c575b5f80fd5b610055610050366004610172565b61009b565b005b61006a61006536600461019a565b61010a565b60405190815260200160405180910390f35b61006a61008a36600461019a565b5f6020819052908152604090205481565b805f036100ba5760405162bfc92160e01b815260040160405180910390fd5b6001600160a01b0382165f818152602081815260409182902084905590518381527f0d86730737b142fc160892fa8a0f2db687a92a0e294d1ad70624cf5acef03b84910160405180910390a25050565b6001600160a01b0381165f90815260208190526040812054808203610151576040516314f3191760e11b81526001600160a01b038416600482015260240160405180910390fd5b92915050565b80356001600160a01b038116811461016d575f80fd5b919050565b5f8060408385031215610183575f80fd5b61018c83610157565b946020939093013593505050565b5f602082840312156101aa575f80fd5b6101b382610157565b939250505056fea2646970667358221220a6364800572358d8edea997287d88a7aff26b115910f0ab91dc23b057e0c173164736f6c63430008180033","linkReferences":{}},"methodIdentifiers":{"getPrice(address)":"41976e09","price(address)":"aea91078","setPrice(address,uint256)":"00e4768b"},"id":0}