{"abi":[{"type":"constructor","inputs":[{"name":"dao_","type":"address","internalType":"address"}],"stateMutability":"nonpayable"},{"type":"function","name":"dao","inputs":[],"outputs":[{"name":"","type":"address","internalType":"address"}],"stateMutability":"view"},{"type":"function","name":"executeCount","inputs":[],"outputs":[{"name":"","type":"uint256","internalType":"uint256"}],"stateMutability":"view"},{"type":"function","name":"lastValue","inputs":[],"outputs":[{"name":"","type":"uint256","internalType":"uint256"}],"stateMutability":"view"},{"type":"function","name":"setValue","inputs":[{"name":"value","type":"uint256","internalType":"uint256"}],"outputs":[],"stateMutability":"nonpayable"},{"type":"event","name":"ValueSet","inputs":[{"name":"value","type":"uint256","indexed":false,"internalType":"uint256"},{"name":"executeCount","type":"uint256","indexed":false,"internalType":"uint256"}],"anonymous":false},{"type":"error","name":"NotDao","inputs":[]}],"bytecode":{"object":"0x60a060405234801561000f575f80fd5b5060405161026038038061026083398101604081905261002e9161003f565b6001600160a01b031660805261006c565b5f6020828403121561004f575f80fd5b81516001600160a01b0381168114610065575f80fd5b9392505050565b6080516101d76100895f395f81816053015260d101526101d75ff3fe608060405234801561000f575f80fd5b506004361061004a575f3560e01c80634162169f1461004e57806343183834146100925780634ddc7767146100a857806355241077146100b1575b5f80fd5b6100757f000000000000000000000000000000000000000000000000000000000000000081565b6040516001600160a01b0390911681526020015b60405180910390f35b61009a5f5481565b604051908152602001610089565b61009a60015481565b6100c46100bf366004610166565b6100c6565b005b336001600160a01b037f0000000000000000000000000000000000000000000000000000000000000000161461010f576040516311f9f22560e11b815260040160405180910390fd5b5f81815560018054916101218361017d565b90915550506001546040805183815260208101929092527f69be06033bef8d755e18606a27d6d07393aabbd1800776e503af2c8a03b7c681910160405180910390a150565b5f60208284031215610176575f80fd5b5035919050565b5f6001820161019a57634e487b7160e01b5f52601160045260245ffd5b506001019056fea264697066735822122000c916cc927c0ff48b800e82adece3be2afe8913511b1c86eb519695d5fb3e4664736f6c63430008180033","linkReferences":{}},"methodIdentifiers":{"dao()":"4162169f","executeCount()":"4ddc7767","lastValue()":"43183834","setValue(uint256)":"55241077"},"id":0}