{"abi":[{"type":"function","name":"executeCount","inputs":[],"outputs":[{"name":"","type":"uint256","internalType":"uint256"}],"stateMutability":"view"},{"type":"function","name":"lastValue","inputs":[],"outputs":[{"name":"","type":"uint256","internalType":"uint256"}],"stateMutability":"view"},{"type":"function","name":"setValue","inputs":[{"name":"value","type":"uint256","internalType":"uint256"}],"outputs":[],"stateMutability":"nonpayable"},{"type":"event","name":"ValueSet","inputs":[{"name":"value","type":"uint256","indexed":false,"internalType":"uint256"},{"name":"executeCount","type":"uint256","indexed":false,"internalType":"uint256"}],"anonymous":false}],"bytecode":{"object":"0x608060405234801561000f575f80fd5b506101438061001d5f395ff3fe608060405234801561000f575f80fd5b506004361061003f575f3560e01c806343183834146100435780634ddc77671461005d5780635524107714610066575b5f80fd5b61004b5f5481565b60405190815260200160405180910390f35b61004b60015481565b6100796100743660046100d2565b61007b565b005b5f818155600180549161008d836100e9565b90915550506001546040805183815260208101929092527f69be06033bef8d755e18606a27d6d07393aabbd1800776e503af2c8a03b7c681910160405180910390a150565b5f602082840312156100e2575f80fd5b5035919050565b5f6001820161010657634e487b7160e01b5f52601160045260245ffd5b506001019056fea2646970667358221220cda780b0f4a95ff1e5720a43389ac56aa187f38da6f134c82eb6a573faebc9eb64736f6c63430008180033","linkReferences":{}},"methodIdentifiers":{"executeCount()":"4ddc7767","lastValue()":"43183834","setValue(uint256)":"55241077"},"id":0}