{"abi":[{"type":"constructor","inputs":[{"name":"n","type":"string","internalType":"string"},{"name":"s","type":"string","internalType":"string"},{"name":"op","type":"address","internalType":"address"}],"stateMutability":"nonpayable"},{"type":"function","name":"balanceOf","inputs":[{"name":"","type":"address","internalType":"address"}],"outputs":[{"name":"","type":"uint256","internalType":"uint256"}],"stateMutability":"view"},{"type":"function","name":"burn","inputs":[{"name":"from","type":"address","internalType":"address"},{"name":"value","type":"uint256","internalType":"uint256"}],"outputs":[],"stateMutability":"nonpayable"},{"type":"function","name":"decimals","inputs":[],"outputs":[{"name":"","type":"uint8","internalType":"uint8"}],"stateMutability":"view"},{"type":"function","name":"mint","inputs":[{"name":"to","type":"address","internalType":"address"},{"name":"value","type":"uint256","internalType":"uint256"}],"outputs":[],"stateMutability":"nonpayable"},{"type":"function","name":"name","inputs":[],"outputs":[{"name":"","type":"string","internalType":"string"}],"stateMutability":"view"},{"type":"function","name":"operator","inputs":[],"outputs":[{"name":"","type":"address","internalType":"address"}],"stateMutability":"view"},{"type":"function","name":"symbol","inputs":[],"outputs":[{"name":"","type":"string","internalType":"string"}],"stateMutability":"view"},{"type":"function","name":"totalSupply","inputs":[],"outputs":[{"name":"","type":"uint256","internalType":"uint256"}],"stateMutability":"view"},{"type":"function","name":"transfer","inputs":[{"name":"to","type":"address","internalType":"address"},{"name":"value","type":"uint256","internalType":"uint256"}],"outputs":[{"name":"","type":"bool","internalType":"bool"}],"stateMutability":"nonpayable"},{"type":"event","name":"Burn","inputs":[{"name":"from","type":"address","indexed":true,"internalType":"address"},{"name":"value","type":"uint256","indexed":false,"internalType":"uint256"}],"anonymous":false},{"type":"event","name":"Mint","inputs":[{"name":"to","type":"address","indexed":true,"internalType":"address"},{"name":"value","type":"uint256","indexed":false,"internalType":"uint256"}],"anonymous":false},{"type":"event","name":"Transfer","inputs":[{"name":"from","type":"address","indexed":true,"internalType":"address"},{"name":"to","type":"address","indexed":true,"internalType":"address"},{"name":"value","type":"uint256","indexed":false,"internalType":"uint256"}],"anonymous":false},{"type":"error","name":"InsufficientBalance","inputs":[]},{"type":"error","name":"NotOperator","inputs":[]}],"bytecode":{"object":"0x60a060405234801562000010575f80fd5b50604051620009c4380380620009c4833981016040819052620000339162000126565b5f62000040848262000237565b5060016200004f838262000237565b506001600160a01b031660805250620003039050565b634e487b7160e01b5f52604160045260245ffd5b5f82601f83011262000089575f80fd5b81516001600160401b0380821115620000a657620000a662000065565b604051601f8301601f19908116603f01168101908282118183101715620000d157620000d162000065565b8160405283815260209250866020858801011115620000ee575f80fd5b5f91505b83821015620001115785820183015181830184015290820190620000f2565b5f602085830101528094505050505092915050565b5f805f6060848603121562000139575f80fd5b83516001600160401b038082111562000150575f80fd5b6200015e8783880162000079565b9450602086015191508082111562000174575f80fd5b50620001838682870162000079565b604086015190935090506001600160a01b0381168114620001a2575f80fd5b809150509250925092565b600181811c90821680620001c257607f821691505b602082108103620001e157634e487b7160e01b5f52602260045260245ffd5b50919050565b601f8211156200023257805f5260205f20601f840160051c810160208510156200020e5750805b601f840160051c820191505b818110156200022f575f81556001016200021a565b50505b505050565b81516001600160401b0381111562000253576200025362000065565b6200026b81620002648454620001ad565b84620001e7565b602080601f831160018114620002a1575f8415620002895750858301515b5f19600386901b1c1916600185901b178555620002fb565b5f85815260208120601f198616915b82811015620002d157888601518255948401946001909101908401620002b0565b5085821015620002ef57878501515f19600388901b60f8161c191681555b505060018460011b0185555b505050505050565b60805161069b620003295f395f818160fd0152818161022a0152610347015261069b5ff3fe608060405234801561000f575f80fd5b5060043610610090575f3560e01c8063570ca73511610063578063570ca735146100f857806370a082311461013757806395d89b41146101565780639dc29fac1461015e578063a9059cbb14610171575f80fd5b806306fdde031461009457806318160ddd146100b2578063313ce567146100c957806340c10f19146100e3575b5f80fd5b61009c610194565b6040516100a99190610544565b60405180910390f35b6100bb60025481565b6040519081526020016100a9565b6100d1601281565b60405160ff90911681526020016100a9565b6100f66100f13660046105ab565b61021f565b005b61011f7f000000000000000000000000000000000000000000000000000000000000000081565b6040516001600160a01b0390911681526020016100a9565b6100bb6101453660046105d3565b60036020525f908152604090205481565b61009c61032f565b6100f661016c3660046105ab565b61033c565b61018461017f3660046105ab565b61047c565b60405190151581526020016100a9565b5f80546101a0906105f3565b80601f01602080910402602001604051908101604052809291908181526020018280546101cc906105f3565b80156102175780601f106101ee57610100808354040283529160200191610217565b820191905f5260205f20905b8154815290600101906020018083116101fa57829003601f168201915b505050505081565b336001600160a01b037f0000000000000000000000000000000000000000000000000000000000000000161461026857604051631f0853c160e21b815260040160405180910390fd5b6001600160a01b0382165f908152600360205260408120805483929061028f90849061063f565b925050819055508060025f8282546102a7919061063f565b90915550506040518181526001600160a01b038316907f0f6798a560793a54c3bcfe86a93cde1e73087d944c0ea20544137d41213968859060200160405180910390a26040518181526001600160a01b038316905f907fddf252ad1be2c89b69c2b068fc378daa952ba7f163c4a11628f55a4df523b3ef906020015b60405180910390a35050565b600180546101a0906105f3565b336001600160a01b037f0000000000000000000000000000000000000000000000000000000000000000161461038557604051631f0853c160e21b815260040160405180910390fd5b6001600160a01b0382165f908152600360205260409020548111156103bd57604051631e9acf1760e31b815260040160405180910390fd5b6001600160a01b0382165f90815260036020526040812080548392906103e4908490610652565b925050819055508060025f8282546103fc9190610652565b90915550506040518181526001600160a01b038316907fcc16f5dbb4873280815c1ee09dbd06736cffcc184412cf7a71a0fdb75d397ca59060200160405180910390a26040518181525f906001600160a01b038416907fddf252ad1be2c89b69c2b068fc378daa952ba7f163c4a11628f55a4df523b3ef90602001610323565b335f908152600360205260408120548211156104ab57604051631e9acf1760e31b815260040160405180910390fd5b335f90815260036020526040812080548492906104c9908490610652565b90915550506001600160a01b0383165f90815260036020526040812080548492906104f590849061063f565b90915550506040518281526001600160a01b0384169033907fddf252ad1be2c89b69c2b068fc378daa952ba7f163c4a11628f55a4df523b3ef9060200160405180910390a35060015b92915050565b5f602080835283518060208501525f5b8181101561057057858101830151858201604001528201610554565b505f604082860101526040601f19601f8301168501019250505092915050565b80356001600160a01b03811681146105a6575f80fd5b919050565b5f80604083850312156105bc575f80fd5b6105c583610590565b946020939093013593505050565b5f602082840312156105e3575f80fd5b6105ec82610590565b9392505050565b600181811c9082168061060757607f821691505b60208210810361062557634e487b7160e01b5f52602260045260245ffd5b50919050565b634e487b7160e01b5f52601160045260245ffd5b8082018082111561053e5761053e61062b565b8181038181111561053e5761053e61062b56fea2646970667358221220a4f506e3abe0140b6c0d8979a240aad17d8b664b471a2ec30cc336479301de2c64736f6c63430008180033","linkReferences":{}},"methodIdentifiers":{"balanceOf(address)":"70a08231","burn(address,uint256)":"9dc29fac","decimals()":"313ce567","mint(address,uint256)":"40c10f19","name()":"06fdde03","operator()":"570ca735","symbol()":"95d89b41","totalSupply()":"18160ddd","transfer(address,uint256)":"a9059cbb"},"id":1}