{"abi":[{"type":"function","name":"forward","inputs":[{"name":"","type":"string","internalType":"string"}],"outputs":[{"name":"","type":"address","internalType":"address"}],"stateMutability":"view"},{"type":"function","name":"resolve","inputs":[{"name":"name","type":"string","internalType":"string"}],"outputs":[{"name":"","type":"address","internalType":"address"}],"stateMutability":"view"},{"type":"function","name":"reverse","inputs":[{"name":"","type":"address","internalType":"address"}],"outputs":[{"name":"","type":"string","internalType":"string"}],"stateMutability":"view"},{"type":"function","name":"reverseLookup","inputs":[{"name":"addr","type":"address","internalType":"address"}],"outputs":[{"name":"","type":"string","internalType":"string"}],"stateMutability":"view"},{"type":"function","name":"setRecord","inputs":[{"name":"name","type":"string","internalType":"string"},{"name":"addr","type":"address","internalType":"address"}],"outputs":[],"stateMutability":"nonpayable"},{"type":"function","name":"setReverse","inputs":[{"name":"name","type":"string","internalType":"string"}],"outputs":[],"stateMutability":"nonpayable"},{"type":"event","name":"RecordSet","inputs":[{"name":"nameHashIndexed","type":"string","indexed":true,"internalType":"string"},{"name":"name","type":"string","indexed":false,"internalType":"string"},{"name":"addr","type":"address","indexed":true,"internalType":"address"}],"anonymous":false},{"type":"event","name":"ReverseSet","inputs":[{"name":"addr","type":"address","indexed":true,"internalType":"address"},{"name":"name","type":"string","indexed":false,"internalType":"string"}],"anonymous":false},{"type":"error","name":"AlreadyRegistered","inputs":[]},{"type":"error","name":"EmptyName","inputs":[]}],"bytecode":{"object":"0x608060405234801561000f575f80fd5b506107ed8061001d5f395ff3fe608060405234801561000f575f80fd5b5060043610610060575f3560e01c806309f81a6f14610064578063461a44781461008d57806385ed3977146100b85780639cbf529d146100cd578063e30bd740146100e0578063e3d792b2146100f3575b5f80fd5b61007761007236600461043d565b610126565b604051610084919061045d565b60405180910390f35b6100a061009b3660046104ee565b6101cf565b6040516001600160a01b039091168152602001610084565b6100cb6100c636600461052d565b610202565b005b6100cb6100db3660046104ee565b610309565b6100776100ee36600461043d565b61038b565b6100a0610101366004610591565b80516020818301810180515f825292820191909301209152546001600160a01b031681565b6001600160a01b0381165f90815260016020526040902080546060919061014c9061063c565b80601f01602080910402602001604051908101604052809291908181526020018280546101789061063c565b80156101c35780601f1061019a576101008083540402835291602001916101c3565b820191905f5260205f20905b8154815290600101906020018083116101a657829003601f168201915b50505050509050919050565b5f8083836040516101e1929190610674565b908152604051908190036020019020546001600160a01b0316905092915050565b5f82900361022357604051632ef1310560e01b815260040160405180910390fd5b5f6001600160a01b03165f848460405161023e929190610674565b908152604051908190036020019020546001600160a01b03161461027557604051630ea075bf60e21b815260040160405180910390fd5b805f8484604051610287929190610674565b90815260405190819003602001812080546001600160a01b039384166001600160a01b0319909116179055908216906102c39085908590610674565b60405180910390207f493747433de25e89932e5c1d63a65ac29409f4749ad91eb888962e6da9b2bc2585856040516102fc929190610683565b60405180910390a3505050565b5f81900361032a57604051632ef1310560e01b815260040160405180910390fd5b335f9081526001602052604090206103438284836106fd565b50336001600160a01b03167fde672cbf248d50975bc6a9a9c4b68eb230dadc12e310ed7d8129af62638c61a9838360405161037f929190610683565b60405180910390a25050565b60016020525f9081526040902080546103a39061063c565b80601f01602080910402602001604051908101604052809291908181526020018280546103cf9061063c565b801561041a5780601f106103f15761010080835404028352916020019161041a565b820191905f5260205f20905b8154815290600101906020018083116103fd57829003601f168201915b505050505081565b80356001600160a01b0381168114610438575f80fd5b919050565b5f6020828403121561044d575f80fd5b61045682610422565b9392505050565b5f602080835283518060208501525f5b818110156104895785810183015185820160400152820161046d565b505f604082860101526040601f19601f8301168501019250505092915050565b5f8083601f8401126104b9575f80fd5b50813567ffffffffffffffff8111156104d0575f80fd5b6020830191508360208285010111156104e7575f80fd5b9250929050565b5f80602083850312156104ff575f80fd5b823567ffffffffffffffff811115610515575f80fd5b610521858286016104a9565b90969095509350505050565b5f805f6040848603121561053f575f80fd5b833567ffffffffffffffff811115610555575f80fd5b610561868287016104a9565b9094509250610574905060208501610422565b90509250925092565b634e487b7160e01b5f52604160045260245ffd5b5f602082840312156105a1575f80fd5b813567ffffffffffffffff808211156105b8575f80fd5b818401915084601f8301126105cb575f80fd5b8135818111156105dd576105dd61057d565b604051601f8201601f19908116603f011681019083821181831017156106055761060561057d565b8160405282815287602084870101111561061d575f80fd5b826020860160208301375f928101602001929092525095945050505050565b600181811c9082168061065057607f821691505b60208210810361066e57634e487b7160e01b5f52602260045260245ffd5b50919050565b818382375f9101908152919050565b60208152816020820152818360408301375f818301604090810191909152601f909201601f19160101919050565b601f8211156106f857805f5260205f20601f840160051c810160208510156106d65750805b601f840160051c820191505b818110156106f5575f81556001016106e2565b50505b505050565b67ffffffffffffffff8311156107155761071561057d565b61072983610723835461063c565b836106b1565b5f601f84116001811461075a575f85156107435750838201355b5f19600387901b1c1916600186901b1783556106f5565b5f83815260208120601f198716915b828110156107895786850135825560209485019460019092019101610769565b50868210156107a5575f1960f88860031b161c19848701351681555b505060018560011b018355505050505056fea2646970667358221220a70b99821674230f561338cc455ff25ecfe85c6a0ae0edbd392bc692011c50b664736f6c63430008180033","linkReferences":{}},"methodIdentifiers":{"forward(string)":"e3d792b2","resolve(string)":"461a4478","reverse(address)":"e30bd740","reverseLookup(address)":"09f81a6f","setRecord(string,address)":"85ed3977","setReverse(string)":"9cbf529d"},"id":0}