{"abi":[{"type":"function","name":"balanceOf","inputs":[{"name":"","type":"uint256","internalType":"uint256"},{"name":"","type":"address","internalType":"address"}],"outputs":[{"name":"","type":"uint256","internalType":"uint256"}],"stateMutability":"view"},{"type":"function","name":"balanceOfBatch","inputs":[{"name":"owners","type":"address[]","internalType":"address[]"},{"name":"ids","type":"uint256[]","internalType":"uint256[]"}],"outputs":[{"name":"result","type":"uint256[]","internalType":"uint256[]"}],"stateMutability":"view"},{"type":"function","name":"isApprovedForAll","inputs":[{"name":"","type":"address","internalType":"address"},{"name":"","type":"address","internalType":"address"}],"outputs":[{"name":"","type":"bool","internalType":"bool"}],"stateMutability":"view"},{"type":"function","name":"mint","inputs":[{"name":"to","type":"address","internalType":"address"},{"name":"id","type":"uint256","internalType":"uint256"},{"name":"amount","type":"uint256","internalType":"uint256"}],"outputs":[],"stateMutability":"nonpayable"},{"type":"function","name":"mintBatch","inputs":[{"name":"to","type":"address","internalType":"address"},{"name":"ids","type":"uint256[]","internalType":"uint256[]"},{"name":"amounts","type":"uint256[]","internalType":"uint256[]"}],"outputs":[],"stateMutability":"nonpayable"},{"type":"function","name":"name","inputs":[],"outputs":[{"name":"","type":"string","internalType":"string"}],"stateMutability":"view"},{"type":"function","name":"safeBatchTransferFrom","inputs":[{"name":"from","type":"address","internalType":"address"},{"name":"to","type":"address","internalType":"address"},{"name":"ids","type":"uint256[]","internalType":"uint256[]"},{"name":"amounts","type":"uint256[]","internalType":"uint256[]"}],"outputs":[],"stateMutability":"nonpayable"},{"type":"function","name":"safeTransferFrom","inputs":[{"name":"from","type":"address","internalType":"address"},{"name":"to","type":"address","internalType":"address"},{"name":"id","type":"uint256","internalType":"uint256"},{"name":"amount","type":"uint256","internalType":"uint256"}],"outputs":[],"stateMutability":"nonpayable"},{"type":"function","name":"setApprovalForAll","inputs":[{"name":"operator","type":"address","internalType":"address"},{"name":"approved","type":"bool","internalType":"bool"}],"outputs":[],"stateMutability":"nonpayable"},{"type":"function","name":"symbol","inputs":[],"outputs":[{"name":"","type":"string","internalType":"string"}],"stateMutability":"view"},{"type":"event","name":"ApprovalForAll","inputs":[{"name":"account","type":"address","indexed":true,"internalType":"address"},{"name":"operator","type":"address","indexed":true,"internalType":"address"},{"name":"approved","type":"bool","indexed":false,"internalType":"bool"}],"anonymous":false},{"type":"event","name":"TransferBatch","inputs":[{"name":"operator","type":"address","indexed":true,"internalType":"address"},{"name":"from","type":"address","indexed":true,"internalType":"address"},{"name":"to","type":"address","indexed":true,"internalType":"address"},{"name":"ids","type":"uint256[]","indexed":false,"internalType":"uint256[]"},{"name":"values","type":"uint256[]","indexed":false,"internalType":"uint256[]"}],"anonymous":false},{"type":"event","name":"TransferSingle","inputs":[{"name":"operator","type":"address","indexed":true,"internalType":"address"},{"name":"from","type":"address","indexed":true,"internalType":"address"},{"name":"to","type":"address","indexed":true,"internalType":"address"},{"name":"id","type":"uint256","indexed":false,"internalType":"uint256"},{"name":"value","type":"uint256","indexed":false,"internalType":"uint256"}],"anonymous":false},{"type":"error","name":"InsufficientBalance","inputs":[]},{"type":"error","name":"InvalidRecipient","inputs":[]},{"type":"error","name":"LengthMismatch","inputs":[]},{"type":"error","name":"NotAuthorized","inputs":[]}],"bytecode":{"object":"0x608060405234801561000f575f80fd5b50610dce8061001d5f395ff3fe608060405234801561000f575f80fd5b506004361061009b575f3560e01c806395d89b411161006357806395d89b4114610161578063a22cb46514610186578063d81d0a1514610199578063e985e9c5146101ac578063fba0ee64146101e9575f80fd5b806306fdde031461009f5780630febdd49146100e4578063156e29f6146100f95780633656eec21461010c5780634e1273f414610141575b5f80fd5b6100ce6040518060400160405280601081526020016f4461707045326547616d654974656d7360801b81525081565b6040516100db9190610956565b60405180910390f35b6100f76100f23660046109bd565b6101fc565b005b6100f76101073660046109fc565b610376565b61013361011a366004610a2c565b5f60208181529281526040808220909352908152205481565b6040519081526020016100db565b61015461014f366004610a9e565b61041e565b6040516100db9190610b05565b6100ce6040518060400160405280600681526020016544453245474960d01b81525081565b6100f7610194366004610b48565b610530565b6100f76101a7366004610b81565b61059b565b6101d96101ba366004610bfc565b600160209081525f928352604080842090915290825290205460ff1681565b60405190151581526020016100db565b6100f76101f7366004610c24565b6106cf565b336001600160a01b0385161480159061023857506001600160a01b0384165f90815260016020908152604080832033845290915290205460ff16155b156102565760405163ea8e4eb560e01b815260040160405180910390fd5b6001600160a01b03831661027d57604051634e46966960e11b815260040160405180910390fd5b5f828152602081815260408083206001600160a01b03881684529091529020548111156102bd57604051631e9acf1760e31b815260040160405180910390fd5b5f828152602081815260408083206001600160a01b0388168452909152812080548392906102ec908490610cc3565b90915550505f828152602081815260408083206001600160a01b038716845290915281208054839290610320908490610cdc565b909155505060408051838152602081018390526001600160a01b03808616929087169133917fc3d58168c5ae7397731d063d5bbf3d657854427343f4c083240f7aacaa2d0f62910160405180910390a450505050565b6001600160a01b03831661039d57604051634e46966960e11b815260040160405180910390fd5b5f828152602081815260408083206001600160a01b0387168452909152812080548392906103cc908490610cdc565b909155505060408051838152602081018390526001600160a01b038516915f9133917fc3d58168c5ae7397731d063d5bbf3d657854427343f4c083240f7aacaa2d0f62910160405180910390a4505050565b6060838214610443576040516001621398b960e31b0319815260040160405180910390fd5b8367ffffffffffffffff81111561045c5761045c610cef565b604051908082528060200260200182016040528015610485578160200160208202803683370190505b5090505f5b84811015610527575f808585848181106104a6576104a6610d03565b9050602002013581526020019081526020015f205f8787848181106104cd576104cd610d03565b90506020020160208101906104e29190610d17565b6001600160a01b03166001600160a01b031681526020019081526020015f205482828151811061051457610514610d03565b602090810291909101015260010161048a565b50949350505050565b335f8181526001602090815260408083206001600160a01b03871680855290835292819020805460ff191686151590811790915590519081529192917f17307eab39ab6107e8899845ad3d59bd9653f200f220920489ca2b5937696c31910160405180910390a35050565b6001600160a01b0385166105c257604051634e46966960e11b815260040160405180910390fd5b8281146105e5576040516001621398b960e31b0319815260040160405180910390fd5b5f5b8381101561066c5782828281811061060157610601610d03565b905060200201355f8087878581811061061c5761061c610d03565b9050602002013581526020019081526020015f205f886001600160a01b03166001600160a01b031681526020019081526020015f205f82825461065f9190610cdc565b90915550506001016105e7565b50846001600160a01b03165f6001600160a01b0316336001600160a01b03167f4a39dc06d4c0dbc64b70af90fd698a233a518aa5d07e595d983b8c0526c8f7fb878787876040516106c09493929190610d67565b60405180910390a45050505050565b336001600160a01b0387161480159061070b57506001600160a01b0386165f90815260016020908152604080832033845290915290205460ff16155b156107295760405163ea8e4eb560e01b815260040160405180910390fd5b6001600160a01b03851661075057604051634e46966960e11b815260040160405180910390fd5b828114610773576040516001621398b960e31b0319815260040160405180910390fd5b5f5b838110156108f25782828281811061078f5761078f610d03565b905060200201355f808787858181106107aa576107aa610d03565b9050602002013581526020019081526020015f205f896001600160a01b03166001600160a01b031681526020019081526020015f205410156107ff57604051631e9acf1760e31b815260040160405180910390fd5b82828281811061081157610811610d03565b905060200201355f8087878581811061082c5761082c610d03565b9050602002013581526020019081526020015f205f896001600160a01b03166001600160a01b031681526020019081526020015f205f82825461086f9190610cc3565b90915550839050828281811061088757610887610d03565b905060200201355f808787858181106108a2576108a2610d03565b9050602002013581526020019081526020015f205f886001600160a01b03166001600160a01b031681526020019081526020015f205f8282546108e59190610cdc565b9091555050600101610775565b50846001600160a01b0316866001600160a01b0316336001600160a01b03167f4a39dc06d4c0dbc64b70af90fd698a233a518aa5d07e595d983b8c0526c8f7fb878787876040516109469493929190610d67565b60405180910390a4505050505050565b5f602080835283518060208501525f5b8181101561098257858101830151858201604001528201610966565b505f604082860101526040601f19601f8301168501019250505092915050565b80356001600160a01b03811681146109b8575f80fd5b919050565b5f805f80608085870312156109d0575f80fd5b6109d9856109a2565b93506109e7602086016109a2565b93969395505050506040820135916060013590565b5f805f60608486031215610a0e575f80fd5b610a17846109a2565b95602085013595506040909401359392505050565b5f8060408385031215610a3d575f80fd5b82359150610a4d602084016109a2565b90509250929050565b5f8083601f840112610a66575f80fd5b50813567ffffffffffffffff811115610a7d575f80fd5b6020830191508360208260051b8501011115610a97575f80fd5b9250929050565b5f805f8060408587031215610ab1575f80fd5b843567ffffffffffffffff80821115610ac8575f80fd5b610ad488838901610a56565b90965094506020870135915080821115610aec575f80fd5b50610af987828801610a56565b95989497509550505050565b602080825282518282018190525f9190848201906040850190845b81811015610b3c57835183529284019291840191600101610b20565b50909695505050505050565b5f8060408385031215610b59575f80fd5b610b62836109a2565b915060208301358015158114610b76575f80fd5b809150509250929050565b5f805f805f60608688031215610b95575f80fd5b610b9e866109a2565b9450602086013567ffffffffffffffff80821115610bba575f80fd5b610bc689838a01610a56565b90965094506040880135915080821115610bde575f80fd5b50610beb88828901610a56565b969995985093965092949392505050565b5f8060408385031215610c0d575f80fd5b610c16836109a2565b9150610a4d602084016109a2565b5f805f805f8060808789031215610c39575f80fd5b610c42876109a2565b9550610c50602088016109a2565b9450604087013567ffffffffffffffff80821115610c6c575f80fd5b610c788a838b01610a56565b90965094506060890135915080821115610c90575f80fd5b50610c9d89828a01610a56565b979a9699509497509295939492505050565b634e487b7160e01b5f52601160045260245ffd5b81810381811115610cd657610cd6610caf565b92915050565b80820180821115610cd657610cd6610caf565b634e487b7160e01b5f52604160045260245ffd5b634e487b7160e01b5f52603260045260245ffd5b5f60208284031215610d27575f80fd5b610d30826109a2565b9392505050565b8183525f6001600160fb1b03831115610d4e575f80fd5b8260051b80836020870137939093016020019392505050565b604081525f610d7a604083018688610d37565b8281036020840152610d8d818587610d37565b97965050505050505056fea2646970667358221220646762bc7a6dcbf5cf7fb10fdf30f124c63d5ebc734382c3bbf2dcd7d4d9f68564736f6c63430008180033","linkReferences":{}},"methodIdentifiers":{"balanceOf(uint256,address)":"3656eec2","balanceOfBatch(address[],uint256[])":"4e1273f4","isApprovedForAll(address,address)":"e985e9c5","mint(address,uint256,uint256)":"156e29f6","mintBatch(address,uint256[],uint256[])":"d81d0a15","name()":"06fdde03","safeBatchTransferFrom(address,address,uint256[],uint256[])":"fba0ee64","safeTransferFrom(address,address,uint256,uint256)":"0febdd49","setApprovalForAll(address,bool)":"a22cb465","symbol()":"95d89b41"},"id":0}