{"abi":[{"type":"function","name":"balanceOf","inputs":[{"name":"","type":"uint256","internalType":"uint256"},{"name":"","type":"address","internalType":"address"}],"outputs":[{"name":"","type":"uint256","internalType":"uint256"}],"stateMutability":"view"},{"type":"function","name":"balanceOfBatch","inputs":[{"name":"owners","type":"address[]","internalType":"address[]"},{"name":"ids","type":"uint256[]","internalType":"uint256[]"}],"outputs":[{"name":"result","type":"uint256[]","internalType":"uint256[]"}],"stateMutability":"view"},{"type":"function","name":"burn","inputs":[{"name":"account","type":"address","internalType":"address"},{"name":"id","type":"uint256","internalType":"uint256"},{"name":"amount","type":"uint256","internalType":"uint256"}],"outputs":[],"stateMutability":"nonpayable"},{"type":"function","name":"isApprovedForAll","inputs":[{"name":"","type":"address","internalType":"address"},{"name":"","type":"address","internalType":"address"}],"outputs":[{"name":"","type":"bool","internalType":"bool"}],"stateMutability":"view"},{"type":"function","name":"mint","inputs":[{"name":"to","type":"address","internalType":"address"},{"name":"id","type":"uint256","internalType":"uint256"},{"name":"amount","type":"uint256","internalType":"uint256"}],"outputs":[],"stateMutability":"nonpayable"},{"type":"function","name":"mintBatch","inputs":[{"name":"to","type":"address","internalType":"address"},{"name":"ids","type":"uint256[]","internalType":"uint256[]"},{"name":"amounts","type":"uint256[]","internalType":"uint256[]"}],"outputs":[],"stateMutability":"nonpayable"},{"type":"function","name":"name","inputs":[],"outputs":[{"name":"","type":"string","internalType":"string"}],"stateMutability":"view"},{"type":"function","name":"safeBatchTransferFrom","inputs":[{"name":"from","type":"address","internalType":"address"},{"name":"to","type":"address","internalType":"address"},{"name":"ids","type":"uint256[]","internalType":"uint256[]"},{"name":"amounts","type":"uint256[]","internalType":"uint256[]"}],"outputs":[],"stateMutability":"nonpayable"},{"type":"function","name":"safeTransferFrom","inputs":[{"name":"from","type":"address","internalType":"address"},{"name":"to","type":"address","internalType":"address"},{"name":"id","type":"uint256","internalType":"uint256"},{"name":"amount","type":"uint256","internalType":"uint256"}],"outputs":[],"stateMutability":"nonpayable"},{"type":"function","name":"setApprovalForAll","inputs":[{"name":"operator","type":"address","internalType":"address"},{"name":"approved","type":"bool","internalType":"bool"}],"outputs":[],"stateMutability":"nonpayable"},{"type":"function","name":"symbol","inputs":[],"outputs":[{"name":"","type":"string","internalType":"string"}],"stateMutability":"view"},{"type":"function","name":"totalSupply","inputs":[{"name":"","type":"uint256","internalType":"uint256"}],"outputs":[{"name":"","type":"uint256","internalType":"uint256"}],"stateMutability":"view"},{"type":"event","name":"ApprovalForAll","inputs":[{"name":"account","type":"address","indexed":true,"internalType":"address"},{"name":"operator","type":"address","indexed":true,"internalType":"address"},{"name":"approved","type":"bool","indexed":false,"internalType":"bool"}],"anonymous":false},{"type":"event","name":"TransferBatch","inputs":[{"name":"operator","type":"address","indexed":true,"internalType":"address"},{"name":"from","type":"address","indexed":true,"internalType":"address"},{"name":"to","type":"address","indexed":true,"internalType":"address"},{"name":"ids","type":"uint256[]","indexed":false,"internalType":"uint256[]"},{"name":"values","type":"uint256[]","indexed":false,"internalType":"uint256[]"}],"anonymous":false},{"type":"event","name":"TransferSingle","inputs":[{"name":"operator","type":"address","indexed":true,"internalType":"address"},{"name":"from","type":"address","indexed":true,"internalType":"address"},{"name":"to","type":"address","indexed":true,"internalType":"address"},{"name":"id","type":"uint256","indexed":false,"internalType":"uint256"},{"name":"value","type":"uint256","indexed":false,"internalType":"uint256"}],"anonymous":false},{"type":"error","name":"InsufficientBalance","inputs":[]},{"type":"error","name":"InvalidRecipient","inputs":[]},{"type":"error","name":"LengthMismatch","inputs":[]},{"type":"error","name":"NotAuthorized","inputs":[]}],"bytecode":{"object":"0x608060405234801561000f575f80fd5b50610fdb8061001d5f395ff3fe608060405234801561000f575f80fd5b50600436106100b1575f3560e01c8063a22cb4651161006e578063a22cb4651461019c578063bd85b039146101af578063d81d0a15146101ce578063e985e9c5146101e1578063f5298aca1461021e578063fba0ee6414610231575f80fd5b806306fdde03146100b55780630febdd49146100fa578063156e29f61461010f5780633656eec2146101225780634e1273f41461015757806395d89b4114610177575b5f80fd5b6100e46040518060400160405280601081526020016f4461707045326547616d654974656d7360801b81525081565b6040516100f19190610b4c565b60405180910390f35b61010d610108366004610bb3565b610244565b005b61010d61011d366004610bf2565b6103be565b610149610130366004610c22565b5f60208181529281526040808220909352908152205481565b6040519081526020016100f1565b61016a610165366004610c94565b610489565b6040516100f19190610cfb565b6100e46040518060400160405280600681526020016544453245474960d01b81525081565b61010d6101aa366004610d3e565b61059b565b6101496101bd366004610d77565b60016020525f908152604090205481565b61010d6101dc366004610d8e565b610606565b61020e6101ef366004610e09565b600260209081525f928352604080842090915290825290205460ff1681565b60405190151581526020016100f1565b61010d61022c366004610bf2565b610790565b61010d61023f366004610e31565b6108c5565b336001600160a01b0385161480159061028057506001600160a01b0384165f90815260026020908152604080832033845290915290205460ff16155b1561029e5760405163ea8e4eb560e01b815260040160405180910390fd5b6001600160a01b0383166102c557604051634e46966960e11b815260040160405180910390fd5b5f828152602081815260408083206001600160a01b038816845290915290205481111561030557604051631e9acf1760e31b815260040160405180910390fd5b5f828152602081815260408083206001600160a01b038816845290915281208054839290610334908490610ed0565b90915550505f828152602081815260408083206001600160a01b038716845290915281208054839290610368908490610ee9565b909155505060408051838152602081018390526001600160a01b03808616929087169133917fc3d58168c5ae7397731d063d5bbf3d657854427343f4c083240f7aacaa2d0f62910160405180910390a450505050565b6001600160a01b0383166103e557604051634e46966960e11b815260040160405180910390fd5b5f828152602081815260408083206001600160a01b038716845290915281208054839290610414908490610ee9565b90915550505f8281526001602052604081208054839290610436908490610ee9565b909155505060408051838152602081018390526001600160a01b038516915f9133917fc3d58168c5ae7397731d063d5bbf3d657854427343f4c083240f7aacaa2d0f6291015b60405180910390a4505050565b60608382146104ae576040516001621398b960e31b0319815260040160405180910390fd5b8367ffffffffffffffff8111156104c7576104c7610efc565b6040519080825280602002602001820160405280156104f0578160200160208202803683370190505b5090505f5b84811015610592575f8085858481811061051157610511610f10565b9050602002013581526020019081526020015f205f87878481811061053857610538610f10565b905060200201602081019061054d9190610f24565b6001600160a01b03166001600160a01b031681526020019081526020015f205482828151811061057f5761057f610f10565b60209081029190910101526001016104f5565b50949350505050565b335f8181526002602090815260408083206001600160a01b03871680855290835292819020805460ff191686151590811790915590519081529192917f17307eab39ab6107e8899845ad3d59bd9653f200f220920489ca2b5937696c31910160405180910390a35050565b6001600160a01b03851661062d57604051634e46966960e11b815260040160405180910390fd5b828114610650576040516001621398b960e31b0319815260040160405180910390fd5b5f5b8381101561072d5782828281811061066c5761066c610f10565b905060200201355f8087878581811061068757610687610f10565b9050602002013581526020019081526020015f205f886001600160a01b03166001600160a01b031681526020019081526020015f205f8282546106ca9190610ee9565b9091555083905082828181106106e2576106e2610f10565b9050602002013560015f8787858181106106fe576106fe610f10565b9050602002013581526020019081526020015f205f8282546107209190610ee9565b9091555050600101610652565b50846001600160a01b03165f6001600160a01b0316336001600160a01b03167f4a39dc06d4c0dbc64b70af90fd698a233a518aa5d07e595d983b8c0526c8f7fb878787876040516107819493929190610f74565b60405180910390a45050505050565b336001600160a01b038416148015906107cc57506001600160a01b0383165f90815260026020908152604080832033845290915290205460ff16155b156107ea5760405163ea8e4eb560e01b815260040160405180910390fd5b5f828152602081815260408083206001600160a01b038716845290915290205481111561082a57604051631e9acf1760e31b815260040160405180910390fd5b5f828152602081815260408083206001600160a01b038716845290915281208054839290610859908490610ed0565b90915550505f828152600160205260408120805483929061087b908490610ed0565b909155505060408051838152602081018390525f916001600160a01b0386169133917fc3d58168c5ae7397731d063d5bbf3d657854427343f4c083240f7aacaa2d0f62910161047c565b336001600160a01b0387161480159061090157506001600160a01b0386165f90815260026020908152604080832033845290915290205460ff16155b1561091f5760405163ea8e4eb560e01b815260040160405180910390fd5b6001600160a01b03851661094657604051634e46966960e11b815260040160405180910390fd5b828114610969576040516001621398b960e31b0319815260040160405180910390fd5b5f5b83811015610ae85782828281811061098557610985610f10565b905060200201355f808787858181106109a0576109a0610f10565b9050602002013581526020019081526020015f205f896001600160a01b03166001600160a01b031681526020019081526020015f205410156109f557604051631e9acf1760e31b815260040160405180910390fd5b828282818110610a0757610a07610f10565b905060200201355f80878785818110610a2257610a22610f10565b9050602002013581526020019081526020015f205f896001600160a01b03166001600160a01b031681526020019081526020015f205f828254610a659190610ed0565b909155508390508282818110610a7d57610a7d610f10565b905060200201355f80878785818110610a9857610a98610f10565b9050602002013581526020019081526020015f205f886001600160a01b03166001600160a01b031681526020019081526020015f205f828254610adb9190610ee9565b909155505060010161096b565b50846001600160a01b0316866001600160a01b0316336001600160a01b03167f4a39dc06d4c0dbc64b70af90fd698a233a518aa5d07e595d983b8c0526c8f7fb87878787604051610b3c9493929190610f74565b60405180910390a4505050505050565b5f602080835283518060208501525f5b81811015610b7857858101830151858201604001528201610b5c565b505f604082860101526040601f19601f8301168501019250505092915050565b80356001600160a01b0381168114610bae575f80fd5b919050565b5f805f8060808587031215610bc6575f80fd5b610bcf85610b98565b9350610bdd60208601610b98565b93969395505050506040820135916060013590565b5f805f60608486031215610c04575f80fd5b610c0d84610b98565b95602085013595506040909401359392505050565b5f8060408385031215610c33575f80fd5b82359150610c4360208401610b98565b90509250929050565b5f8083601f840112610c5c575f80fd5b50813567ffffffffffffffff811115610c73575f80fd5b6020830191508360208260051b8501011115610c8d575f80fd5b9250929050565b5f805f8060408587031215610ca7575f80fd5b843567ffffffffffffffff80821115610cbe575f80fd5b610cca88838901610c4c565b90965094506020870135915080821115610ce2575f80fd5b50610cef87828801610c4c565b95989497509550505050565b602080825282518282018190525f9190848201906040850190845b81811015610d3257835183529284019291840191600101610d16565b50909695505050505050565b5f8060408385031215610d4f575f80fd5b610d5883610b98565b915060208301358015158114610d6c575f80fd5b809150509250929050565b5f60208284031215610d87575f80fd5b5035919050565b5f805f805f60608688031215610da2575f80fd5b610dab86610b98565b9450602086013567ffffffffffffffff80821115610dc7575f80fd5b610dd389838a01610c4c565b90965094506040880135915080821115610deb575f80fd5b50610df888828901610c4c565b969995985093965092949392505050565b5f8060408385031215610e1a575f80fd5b610e2383610b98565b9150610c4360208401610b98565b5f805f805f8060808789031215610e46575f80fd5b610e4f87610b98565b9550610e5d60208801610b98565b9450604087013567ffffffffffffffff80821115610e79575f80fd5b610e858a838b01610c4c565b90965094506060890135915080821115610e9d575f80fd5b50610eaa89828a01610c4c565b979a9699509497509295939492505050565b634e487b7160e01b5f52601160045260245ffd5b81810381811115610ee357610ee3610ebc565b92915050565b80820180821115610ee357610ee3610ebc565b634e487b7160e01b5f52604160045260245ffd5b634e487b7160e01b5f52603260045260245ffd5b5f60208284031215610f34575f80fd5b610f3d82610b98565b9392505050565b8183525f6001600160fb1b03831115610f5b575f80fd5b8260051b80836020870137939093016020019392505050565b604081525f610f87604083018688610f44565b8281036020840152610f9a818587610f44565b97965050505050505056fea264697066735822122019406ad744f846c6818b99651fb352f2057666fdee95da24f85ec9ecf9d8b4a864736f6c63430008180033","linkReferences":{}},"methodIdentifiers":{"balanceOf(uint256,address)":"3656eec2","balanceOfBatch(address[],uint256[])":"4e1273f4","burn(address,uint256,uint256)":"f5298aca","isApprovedForAll(address,address)":"e985e9c5","mint(address,uint256,uint256)":"156e29f6","mintBatch(address,uint256[],uint256[])":"d81d0a15","name()":"06fdde03","safeBatchTransferFrom(address,address,uint256[],uint256[])":"fba0ee64","safeTransferFrom(address,address,uint256,uint256)":"0febdd49","setApprovalForAll(address,bool)":"a22cb465","symbol()":"95d89b41","totalSupply(uint256)":"bd85b039"},"id":0}