{"abi":[{"type":"constructor","inputs":[{"name":"royaltyReceiver_","type":"address","internalType":"address"}],"stateMutability":"nonpayable"},{"type":"function","name":"ROYALTY_BPS","inputs":[],"outputs":[{"name":"","type":"uint96","internalType":"uint96"}],"stateMutability":"view"},{"type":"function","name":"approve","inputs":[{"name":"to","type":"address","internalType":"address"},{"name":"tokenId","type":"uint256","internalType":"uint256"}],"outputs":[],"stateMutability":"nonpayable"},{"type":"function","name":"balanceOf","inputs":[{"name":"","type":"address","internalType":"address"}],"outputs":[{"name":"","type":"uint256","internalType":"uint256"}],"stateMutability":"view"},{"type":"function","name":"getApproved","inputs":[{"name":"","type":"uint256","internalType":"uint256"}],"outputs":[{"name":"","type":"address","internalType":"address"}],"stateMutability":"view"},{"type":"function","name":"mint","inputs":[{"name":"to","type":"address","internalType":"address"}],"outputs":[{"name":"tokenId","type":"uint256","internalType":"uint256"}],"stateMutability":"nonpayable"},{"type":"function","name":"name","inputs":[],"outputs":[{"name":"","type":"string","internalType":"string"}],"stateMutability":"view"},{"type":"function","name":"ownerOf","inputs":[{"name":"","type":"uint256","internalType":"uint256"}],"outputs":[{"name":"","type":"address","internalType":"address"}],"stateMutability":"view"},{"type":"function","name":"royaltyInfo","inputs":[{"name":"","type":"uint256","internalType":"uint256"},{"name":"salePrice","type":"uint256","internalType":"uint256"}],"outputs":[{"name":"receiver","type":"address","internalType":"address"},{"name":"royaltyAmount","type":"uint256","internalType":"uint256"}],"stateMutability":"view"},{"type":"function","name":"royaltyReceiver","inputs":[],"outputs":[{"name":"","type":"address","internalType":"address"}],"stateMutability":"view"},{"type":"function","name":"symbol","inputs":[],"outputs":[{"name":"","type":"string","internalType":"string"}],"stateMutability":"view"},{"type":"function","name":"totalSupply","inputs":[],"outputs":[{"name":"","type":"uint256","internalType":"uint256"}],"stateMutability":"view"},{"type":"function","name":"transferFrom","inputs":[{"name":"from","type":"address","internalType":"address"},{"name":"to","type":"address","internalType":"address"},{"name":"tokenId","type":"uint256","internalType":"uint256"}],"outputs":[],"stateMutability":"nonpayable"},{"type":"event","name":"Approval","inputs":[{"name":"owner","type":"address","indexed":true,"internalType":"address"},{"name":"approved","type":"address","indexed":true,"internalType":"address"},{"name":"tokenId","type":"uint256","indexed":true,"internalType":"uint256"}],"anonymous":false},{"type":"event","name":"Transfer","inputs":[{"name":"from","type":"address","indexed":true,"internalType":"address"},{"name":"to","type":"address","indexed":true,"internalType":"address"},{"name":"tokenId","type":"uint256","indexed":true,"internalType":"uint256"}],"anonymous":false},{"type":"error","name":"InvalidRecipient","inputs":[]},{"type":"error","name":"NotOwnerOrApproved","inputs":[]}],"bytecode":{"object":"0x60e0604052600960a09081526813585c9ad95d13919560ba1b60c0525f90610027908261014a565b506040805180820190915260038152621352d560ea1b602082015260019061004f908261014a565b5034801561005b575f80fd5b50604051610a3c380380610a3c83398101604081905261007a91610209565b6001600160a01b0381166100a157604051634e46966960e11b815260040160405180910390fd5b6001600160a01b0316608052610236565b634e487b7160e01b5f52604160045260245ffd5b600181811c908216806100da57607f821691505b6020821081036100f857634e487b7160e01b5f52602260045260245ffd5b50919050565b601f82111561014557805f5260205f20601f840160051c810160208510156101235750805b601f840160051c820191505b81811015610142575f815560010161012f565b50505b505050565b81516001600160401b03811115610163576101636100b2565b6101778161017184546100c6565b846100fe565b602080601f8311600181146101aa575f84156101935750858301515b5f19600386901b1c1916600185901b178555610201565b5f85815260208120601f198616915b828110156101d8578886015182559484019460019091019084016101b9565b50858210156101f557878501515f19600388901b60f8161c191681555b505060018460011b0185555b505050505050565b5f60208284031215610219575f80fd5b81516001600160a01b038116811461022f575f80fd5b9392505050565b6080516107e76102555f395f818161021101526104ce01526107e75ff3fe608060405234801561000f575f80fd5b50600436106100b1575f3560e01c806349c657db1161006e57806349c657db146101845780636352211e146101aa5780636a627842146101d257806370a08231146101e557806395d89b41146102045780639fbc87131461020c575f80fd5b806306fdde03146100b5578063081812fc146100d3578063095ea7b31461011357806318160ddd1461012857806323b872dd1461013f5780632a55205a14610152575b5f80fd5b6100bd610233565b6040516100ca91906105e4565b60405180910390f35b6100fb6100e1366004610630565b60046020525f90815260409020546001600160a01b031681565b6040516001600160a01b0390911681526020016100ca565b610126610121366004610662565b6102be565b005b61013160055481565b6040519081526020016100ca565b61012661014d36600461068a565b610350565b6101656101603660046106c3565b6104cc565b604080516001600160a01b0390931683526020830191909152016100ca565b61018d6101f481565b6040516bffffffffffffffffffffffff90911681526020016100ca565b6100fb6101b8366004610630565b60026020525f90815260409020546001600160a01b031681565b6101316101e03660046106e3565b610510565b6101316101f33660046106e3565b60036020525f908152604090205481565b6100bd6105d7565b6100fb7f000000000000000000000000000000000000000000000000000000000000000081565b5f805461023f90610703565b80601f016020809104026020016040519081016040528092919081815260200182805461026b90610703565b80156102b65780601f1061028d576101008083540402835291602001916102b6565b820191905f5260205f20905b81548152906001019060200180831161029957829003601f168201915b505050505081565b5f818152600260205260409020546001600160a01b03163381146102f557604051636d8a29e760e11b815260040160405180910390fd5b5f8281526004602052604080822080546001600160a01b0319166001600160a01b0387811691821790925591518593918516917f8c5be1e5ebec7d5bd14f71427d1e84f3dd0314c0f7b2291e5b200ac8c7c3b92591a4505050565b5f818152600260205260409020546001600160a01b0384811691161461038957604051636d8a29e760e11b815260040160405180910390fd5b336001600160a01b038416148015906103b857505f818152600460205260409020546001600160a01b03163314155b156103d657604051636d8a29e760e11b815260040160405180910390fd5b6001600160a01b0382166103fd57604051634e46966960e11b815260040160405180910390fd5b5f81815260046020908152604080832080546001600160a01b03191690556001600160a01b03861683526003909152812080546001929061043f90849061074f565b90915550506001600160a01b0382165f90815260036020526040812080546001929061046c908490610768565b90915550505f8181526002602052604080822080546001600160a01b0319166001600160a01b0386811691821790925591518493918716917fddf252ad1be2c89b69c2b068fc378daa952ba7f163c4a11628f55a4df523b3ef91a4505050565b7f00000000000000000000000000000000000000000000000000000000000000005f6127106104fd6101f48561077b565b6105079190610792565b90509250929050565b5f6001600160a01b03821661053857604051634e46966960e11b815260040160405180910390fd5b600554610546906001610768565b5f81815260026020908152604080832080546001600160a01b0319166001600160a01b0388169081179091558352600390915281208054929350600192909190610591908490610768565b9091555050600581905560405181906001600160a01b038416905f907fddf252ad1be2c89b69c2b068fc378daa952ba7f163c4a11628f55a4df523b3ef908290a4919050565b6001805461023f90610703565b5f602080835283518060208501525f5b81811015610610578581018301518582016040015282016105f4565b505f604082860101526040601f19601f8301168501019250505092915050565b5f60208284031215610640575f80fd5b5035919050565b80356001600160a01b038116811461065d575f80fd5b919050565b5f8060408385031215610673575f80fd5b61067c83610647565b946020939093013593505050565b5f805f6060848603121561069c575f80fd5b6106a584610647565b92506106b360208501610647565b9150604084013590509250925092565b5f80604083850312156106d4575f80fd5b50508035926020909101359150565b5f602082840312156106f3575f80fd5b6106fc82610647565b9392505050565b600181811c9082168061071757607f821691505b60208210810361073557634e487b7160e01b5f52602260045260245ffd5b50919050565b634e487b7160e01b5f52601160045260245ffd5b818103818111156107625761076261073b565b92915050565b808201808211156107625761076261073b565b80820281158282048414176107625761076261073b565b5f826107ac57634e487b7160e01b5f52601260045260245ffd5b50049056fea264697066735822122071ce4caf599f4484fac68d73a2f5c7621d06da6716092211334cb3baa56fd9b664736f6c63430008180033","linkReferences":{}},"methodIdentifiers":{"ROYALTY_BPS()":"49c657db","approve(address,uint256)":"095ea7b3","balanceOf(address)":"70a08231","getApproved(uint256)":"081812fc","mint(address)":"6a627842","name()":"06fdde03","ownerOf(uint256)":"6352211e","royaltyInfo(uint256,uint256)":"2a55205a","royaltyReceiver()":"9fbc8713","symbol()":"95d89b41","totalSupply()":"18160ddd","transferFrom(address,address,uint256)":"23b872dd"},"id":0}