{"abi":[{"type":"constructor","inputs":[{"name":"royaltyReceiver_","type":"address","internalType":"address"}],"stateMutability":"nonpayable"},{"type":"function","name":"ROYALTY_BPS","inputs":[],"outputs":[{"name":"","type":"uint96","internalType":"uint96"}],"stateMutability":"view"},{"type":"function","name":"approve","inputs":[{"name":"to","type":"address","internalType":"address"},{"name":"tokenId","type":"uint256","internalType":"uint256"}],"outputs":[],"stateMutability":"nonpayable"},{"type":"function","name":"balanceOf","inputs":[{"name":"","type":"address","internalType":"address"}],"outputs":[{"name":"","type":"uint256","internalType":"uint256"}],"stateMutability":"view"},{"type":"function","name":"getApproved","inputs":[{"name":"","type":"uint256","internalType":"uint256"}],"outputs":[{"name":"","type":"address","internalType":"address"}],"stateMutability":"view"},{"type":"function","name":"isApprovedForAll","inputs":[{"name":"","type":"address","internalType":"address"},{"name":"","type":"address","internalType":"address"}],"outputs":[{"name":"","type":"bool","internalType":"bool"}],"stateMutability":"view"},{"type":"function","name":"mint","inputs":[{"name":"to","type":"address","internalType":"address"}],"outputs":[{"name":"tokenId","type":"uint256","internalType":"uint256"}],"stateMutability":"nonpayable"},{"type":"function","name":"name","inputs":[],"outputs":[{"name":"","type":"string","internalType":"string"}],"stateMutability":"view"},{"type":"function","name":"ownerOf","inputs":[{"name":"","type":"uint256","internalType":"uint256"}],"outputs":[{"name":"","type":"address","internalType":"address"}],"stateMutability":"view"},{"type":"function","name":"royaltyInfo","inputs":[{"name":"","type":"uint256","internalType":"uint256"},{"name":"salePrice","type":"uint256","internalType":"uint256"}],"outputs":[{"name":"receiver","type":"address","internalType":"address"},{"name":"royaltyAmount","type":"uint256","internalType":"uint256"}],"stateMutability":"view"},{"type":"function","name":"royaltyReceiver","inputs":[],"outputs":[{"name":"","type":"address","internalType":"address"}],"stateMutability":"view"},{"type":"function","name":"safeTransferFrom","inputs":[{"name":"from","type":"address","internalType":"address"},{"name":"to","type":"address","internalType":"address"},{"name":"tokenId","type":"uint256","internalType":"uint256"}],"outputs":[],"stateMutability":"nonpayable"},{"type":"function","name":"safeTransferFrom","inputs":[{"name":"from","type":"address","internalType":"address"},{"name":"to","type":"address","internalType":"address"},{"name":"tokenId","type":"uint256","internalType":"uint256"},{"name":"data","type":"bytes","internalType":"bytes"}],"outputs":[],"stateMutability":"nonpayable"},{"type":"function","name":"setApprovalForAll","inputs":[{"name":"operator","type":"address","internalType":"address"},{"name":"approved","type":"bool","internalType":"bool"}],"outputs":[],"stateMutability":"nonpayable"},{"type":"function","name":"supportsInterface","inputs":[{"name":"interfaceId","type":"bytes4","internalType":"bytes4"}],"outputs":[{"name":"","type":"bool","internalType":"bool"}],"stateMutability":"pure"},{"type":"function","name":"symbol","inputs":[],"outputs":[{"name":"","type":"string","internalType":"string"}],"stateMutability":"view"},{"type":"function","name":"tokenURI","inputs":[{"name":"tokenId","type":"uint256","internalType":"uint256"}],"outputs":[{"name":"","type":"string","internalType":"string"}],"stateMutability":"view"},{"type":"function","name":"totalSupply","inputs":[],"outputs":[{"name":"","type":"uint256","internalType":"uint256"}],"stateMutability":"view"},{"type":"function","name":"transferFrom","inputs":[{"name":"from","type":"address","internalType":"address"},{"name":"to","type":"address","internalType":"address"},{"name":"tokenId","type":"uint256","internalType":"uint256"}],"outputs":[],"stateMutability":"nonpayable"},{"type":"event","name":"Approval","inputs":[{"name":"owner","type":"address","indexed":true,"internalType":"address"},{"name":"approved","type":"address","indexed":true,"internalType":"address"},{"name":"tokenId","type":"uint256","indexed":true,"internalType":"uint256"}],"anonymous":false},{"type":"event","name":"ApprovalForAll","inputs":[{"name":"owner","type":"address","indexed":true,"internalType":"address"},{"name":"operator","type":"address","indexed":true,"internalType":"address"},{"name":"approved","type":"bool","indexed":false,"internalType":"bool"}],"anonymous":false},{"type":"event","name":"Transfer","inputs":[{"name":"from","type":"address","indexed":true,"internalType":"address"},{"name":"to","type":"address","indexed":true,"internalType":"address"},{"name":"tokenId","type":"uint256","indexed":true,"internalType":"uint256"}],"anonymous":false},{"type":"error","name":"InvalidRecipient","inputs":[]},{"type":"error","name":"NotOwnerOrApproved","inputs":[]},{"type":"error","name":"UnsafeRecipient","inputs":[]}],"bytecode":{"object":"0x60e0604052600960a09081526813585c9ad95d13919560ba1b60c0525f906200002990826200015b565b506040805180820190915260038152621352d560ea1b60208201526001906200005390826200015b565b5034801562000060575f80fd5b5060405162000fee38038062000fee833981016040819052620000839162000227565b6001600160a01b038116620000ab57604051634e46966960e11b815260040160405180910390fd5b6001600160a01b031660805262000256565b634e487b7160e01b5f52604160045260245ffd5b600181811c90821680620000e657607f821691505b6020821081036200010557634e487b7160e01b5f52602260045260245ffd5b50919050565b601f8211156200015657805f5260205f20601f840160051c81016020851015620001325750805b601f840160051c820191505b8181101562000153575f81556001016200013e565b50505b505050565b81516001600160401b03811115620001775762000177620000bd565b6200018f81620001888454620000d1565b846200010b565b602080601f831160018114620001c5575f8415620001ad5750858301515b5f19600386901b1c1916600185901b1785556200021f565b5f85815260208120601f198616915b82811015620001f557888601518255948401946001909101908401620001d4565b50858210156200021357878501515f19600388901b60f8161c191681555b505060018460011b0185555b505050505050565b5f6020828403121562000238575f80fd5b81516001600160a01b03811681146200024f575f80fd5b9392505050565b608051610d78620002765f395f81816102a301526104f70152610d785ff3fe608060405234801561000f575f80fd5b5060043610610111575f3560e01c80636352211e1161009e5780639fbc87131161006e5780639fbc87131461029e578063a22cb465146102c5578063b88d4fde146102d8578063c87b56dd146102eb578063e985e9c5146102fe575f80fd5b80636352211e1461023c5780636a6278421461026457806370a082311461027757806395d89b4114610296575f80fd5b806318160ddd116100e457806318160ddd146101a757806323b872dd146101be5780632a55205a146101d157806342842e0e1461020357806349c657db14610216575f80fd5b806301ffc9a71461011557806306fdde031461013d578063081812fc14610152578063095ea7b314610192575b5f80fd5b6101286101233660046109b6565b61032b565b60405190151581526020015b60405180910390f35b610145610397565b6040516101349190610a1b565b61017a610160366004610a2d565b60046020525f90815260409020546001600160a01b031681565b6040516001600160a01b039091168152602001610134565b6101a56101a0366004610a5f565b610422565b005b6101b060065481565b604051908152602001610134565b6101a56101cc366004610a87565b6104e5565b6101e46101df366004610ac0565b6104f5565b604080516001600160a01b039093168352602083019190915201610134565b6101a5610211366004610a87565b610539565b61021f6101f481565b6040516bffffffffffffffffffffffff9091168152602001610134565b61017a61024a366004610a2d565b60026020525f90815260409020546001600160a01b031681565b6101b0610272366004610ae0565b610553565b6101b0610285366004610ae0565b60036020525f908152604090205481565b61014561061a565b61017a7f000000000000000000000000000000000000000000000000000000000000000081565b6101a56102d3366004610af9565b610627565b6101a56102e6366004610b46565b610692565b6101456102f9366004610a2d565b6106af565b61012861030c366004610c1b565b600560209081525f928352604080842090915290825290205460ff1681565b5f6001600160e01b031982166301ffc9a760e01b148061035b57506001600160e01b031982166380ac58cd60e01b145b8061037657506001600160e01b03198216635b5e139f60e01b145b8061039157506001600160e01b0319821663152a902d60e11b145b92915050565b5f80546103a390610c43565b80601f01602080910402602001604051908101604052809291908181526020018280546103cf90610c43565b801561041a5780601f106103f15761010080835404028352916020019161041a565b820191905f5260205f20905b8154815290600101906020018083116103fd57829003601f168201915b505050505081565b5f818152600260205260409020546001600160a01b031633811480159061046c57506001600160a01b0381165f90815260056020908152604080832033845290915290205460ff16155b1561048a57604051636d8a29e760e11b815260040160405180910390fd5b5f8281526004602052604080822080546001600160a01b0319166001600160a01b0387811691821790925591518593918516917f8c5be1e5ebec7d5bd14f71427d1e84f3dd0314c0f7b2291e5b200ac8c7c3b92591a4505050565b6104f0838383610722565b505050565b7f00000000000000000000000000000000000000000000000000000000000000005f6127106105266101f485610c8f565b6105309190610ca6565b90509250929050565b6104f083838360405180602001604052805f815250610692565b5f6001600160a01b03821661057b57604051634e46966960e11b815260040160405180910390fd5b600654610589906001610cc5565b5f81815260026020908152604080832080546001600160a01b0319166001600160a01b03881690811790915583526003909152812080549293506001929091906105d4908490610cc5565b9091555050600681905560405181906001600160a01b038416905f907fddf252ad1be2c89b69c2b068fc378daa952ba7f163c4a11628f55a4df523b3ef908290a4919050565b600180546103a390610c43565b335f8181526005602090815260408083206001600160a01b03871680855290835292819020805460ff191686151590811790915590519081529192917f17307eab39ab6107e8899845ad3d59bd9653f200f220920489ca2b5937696c31910160405180910390a35050565b61069d848484610722565b6106a9848484846108cd565b50505050565b5f818152600260205260409020546060906001600160a01b031661070f5760405162461bcd60e51b8152602060048201526013602482015272115490cdcc8c4e881b9bdb995e1a5cdd195b9d606a1b604482015260640160405180910390fd5b505060408051602081019091525f815290565b5f818152600260205260409020546001600160a01b0384811691161461075b57604051636d8a29e760e11b815260040160405180910390fd5b336001600160a01b0384161480159061078a57505f818152600460205260409020546001600160a01b03163314155b80156107b957506001600160a01b0383165f90815260056020908152604080832033845290915290205460ff16155b156107d757604051636d8a29e760e11b815260040160405180910390fd5b6001600160a01b0382166107fe57604051634e46966960e11b815260040160405180910390fd5b5f81815260046020908152604080832080546001600160a01b03191690556001600160a01b038616835260039091528120805460019290610840908490610cd8565b90915550506001600160a01b0382165f90815260036020526040812080546001929061086d908490610cc5565b90915550505f8181526002602052604080822080546001600160a01b0319166001600160a01b0386811691821790925591518493918716917fddf252ad1be2c89b69c2b068fc378daa952ba7f163c4a11628f55a4df523b3ef91a4505050565b6001600160a01b0383163b156106a957604051630a85bd0160e11b81526001600160a01b0384169063150b7a029061090f903390889087908790600401610ceb565b6020604051808303815f875af1925050508015610949575060408051601f3d908101601f1916820190925261094691810190610d27565b60015b61096657604051633da6393160e01b815260040160405180910390fd5b6001600160e01b03198116630a85bd0160e11b1461099757604051633da6393160e01b815260040160405180910390fd5b5050505050565b6001600160e01b0319811681146109b3575f80fd5b50565b5f602082840312156109c6575f80fd5b81356109d18161099e565b9392505050565b5f81518084525f5b818110156109fc576020818501810151868301820152016109e0565b505f602082860101526020601f19601f83011685010191505092915050565b602081525f6109d160208301846109d8565b5f60208284031215610a3d575f80fd5b5035919050565b80356001600160a01b0381168114610a5a575f80fd5b919050565b5f8060408385031215610a70575f80fd5b610a7983610a44565b946020939093013593505050565b5f805f60608486031215610a99575f80fd5b610aa284610a44565b9250610ab060208501610a44565b9150604084013590509250925092565b5f8060408385031215610ad1575f80fd5b50508035926020909101359150565b5f60208284031215610af0575f80fd5b6109d182610a44565b5f8060408385031215610b0a575f80fd5b610b1383610a44565b915060208301358015158114610b27575f80fd5b809150509250929050565b634e487b7160e01b5f52604160045260245ffd5b5f805f8060808587031215610b59575f80fd5b610b6285610a44565b9350610b7060208601610a44565b925060408501359150606085013567ffffffffffffffff80821115610b93575f80fd5b818701915087601f830112610ba6575f80fd5b813581811115610bb857610bb8610b32565b604051601f8201601f19908116603f01168101908382118183101715610be057610be0610b32565b816040528281528a6020848701011115610bf8575f80fd5b826020860160208301375f60208483010152809550505050505092959194509250565b5f8060408385031215610c2c575f80fd5b610c3583610a44565b915061053060208401610a44565b600181811c90821680610c5757607f821691505b602082108103610c7557634e487b7160e01b5f52602260045260245ffd5b50919050565b634e487b7160e01b5f52601160045260245ffd5b808202811582820484141761039157610391610c7b565b5f82610cc057634e487b7160e01b5f52601260045260245ffd5b500490565b8082018082111561039157610391610c7b565b8181038181111561039157610391610c7b565b6001600160a01b03858116825284166020820152604081018390526080606082018190525f90610d1d908301846109d8565b9695505050505050565b5f60208284031215610d37575f80fd5b81516109d18161099e56fea26469706673582212205f862e78e22f7ec2066135ac8312fd10ce2ce06b290eabf6921e25730d34182664736f6c63430008180033","linkReferences":{}},"methodIdentifiers":{"ROYALTY_BPS()":"49c657db","approve(address,uint256)":"095ea7b3","balanceOf(address)":"70a08231","getApproved(uint256)":"081812fc","isApprovedForAll(address,address)":"e985e9c5","mint(address)":"6a627842","name()":"06fdde03","ownerOf(uint256)":"6352211e","royaltyInfo(uint256,uint256)":"2a55205a","royaltyReceiver()":"9fbc8713","safeTransferFrom(address,address,uint256)":"42842e0e","safeTransferFrom(address,address,uint256,bytes)":"b88d4fde","setApprovalForAll(address,bool)":"a22cb465","supportsInterface(bytes4)":"01ffc9a7","symbol()":"95d89b41","tokenURI(uint256)":"c87b56dd","totalSupply()":"18160ddd","transferFrom(address,address,uint256)":"23b872dd"},"id":0}