{"abi":[{"type":"function","name":"approve","inputs":[{"name":"to","type":"address","internalType":"address"},{"name":"tokenId","type":"uint256","internalType":"uint256"}],"outputs":[],"stateMutability":"nonpayable"},{"type":"function","name":"balanceOf","inputs":[{"name":"","type":"address","internalType":"address"}],"outputs":[{"name":"","type":"uint256","internalType":"uint256"}],"stateMutability":"view"},{"type":"function","name":"getApproved","inputs":[{"name":"","type":"uint256","internalType":"uint256"}],"outputs":[{"name":"","type":"address","internalType":"address"}],"stateMutability":"view"},{"type":"function","name":"mint","inputs":[{"name":"to","type":"address","internalType":"address"}],"outputs":[{"name":"tokenId","type":"uint256","internalType":"uint256"}],"stateMutability":"nonpayable"},{"type":"function","name":"name","inputs":[],"outputs":[{"name":"","type":"string","internalType":"string"}],"stateMutability":"view"},{"type":"function","name":"ownerOf","inputs":[{"name":"","type":"uint256","internalType":"uint256"}],"outputs":[{"name":"","type":"address","internalType":"address"}],"stateMutability":"view"},{"type":"function","name":"symbol","inputs":[],"outputs":[{"name":"","type":"string","internalType":"string"}],"stateMutability":"view"},{"type":"function","name":"totalSupply","inputs":[],"outputs":[{"name":"","type":"uint256","internalType":"uint256"}],"stateMutability":"view"},{"type":"function","name":"transferFrom","inputs":[{"name":"from","type":"address","internalType":"address"},{"name":"to","type":"address","internalType":"address"},{"name":"tokenId","type":"uint256","internalType":"uint256"}],"outputs":[],"stateMutability":"nonpayable"},{"type":"event","name":"Approval","inputs":[{"name":"owner","type":"address","indexed":true,"internalType":"address"},{"name":"approved","type":"address","indexed":true,"internalType":"address"},{"name":"tokenId","type":"uint256","indexed":true,"internalType":"uint256"}],"anonymous":false},{"type":"event","name":"Transfer","inputs":[{"name":"from","type":"address","indexed":true,"internalType":"address"},{"name":"to","type":"address","indexed":true,"internalType":"address"},{"name":"tokenId","type":"uint256","indexed":true,"internalType":"uint256"}],"anonymous":false},{"type":"error","name":"InvalidRecipient","inputs":[]},{"type":"error","name":"NotOwnerOrApproved","inputs":[]}],"bytecode":{"object":"0x60c0604052600960809081526813585c9ad95d13919560ba1b60a0525f9061002790826100f9565b506040805180820190915260038152621352d560ea1b602082015260019061004f90826100f9565b5034801561005b575f80fd5b506101b8565b634e487b7160e01b5f52604160045260245ffd5b600181811c9082168061008957607f821691505b6020821081036100a757634e487b7160e01b5f52602260045260245ffd5b50919050565b601f8211156100f457805f5260205f20601f840160051c810160208510156100d25750805b601f840160051c820191505b818110156100f1575f81556001016100de565b50505b505050565b81516001600160401b0381111561011257610112610061565b610126816101208454610075565b846100ad565b602080601f831160018114610159575f84156101425750858301515b5f19600386901b1c1916600185901b1785556101b0565b5f85815260208120601f198616915b8281101561018757888601518255948401946001909101908401610168565b50858210156101a457878501515f19600388901b60f8161c191681555b505060018460011b0185555b505050505050565b6106ad806101c55f395ff3fe608060405234801561000f575f80fd5b5060043610610090575f3560e01c806323b872dd1161006357806323b872dd1461011e5780636352211e146101315780636a6278421461015957806370a082311461016c57806395d89b411461018b575f80fd5b806306fdde0314610094578063081812fc146100b2578063095ea7b3146100f257806318160ddd14610107575b5f80fd5b61009c610193565b6040516100a99190610500565b60405180910390f35b6100da6100c036600461054c565b60046020525f90815260409020546001600160a01b031681565b6040516001600160a01b0390911681526020016100a9565b61010561010036600461057e565b61021e565b005b61011060055481565b6040519081526020016100a9565b61010561012c3660046105a6565b6102b0565b6100da61013f36600461054c565b60026020525f90815260409020546001600160a01b031681565b6101106101673660046105df565b61042c565b61011061017a3660046105df565b60036020525f908152604090205481565b61009c6104f3565b5f805461019f906105ff565b80601f01602080910402602001604051908101604052809291908181526020018280546101cb906105ff565b80156102165780601f106101ed57610100808354040283529160200191610216565b820191905f5260205f20905b8154815290600101906020018083116101f957829003601f168201915b505050505081565b5f818152600260205260409020546001600160a01b031633811461025557604051636d8a29e760e11b815260040160405180910390fd5b5f8281526004602052604080822080546001600160a01b0319166001600160a01b0387811691821790925591518593918516917f8c5be1e5ebec7d5bd14f71427d1e84f3dd0314c0f7b2291e5b200ac8c7c3b92591a4505050565b5f818152600260205260409020546001600160a01b038481169116146102e957604051636d8a29e760e11b815260040160405180910390fd5b336001600160a01b0384161480159061031857505f818152600460205260409020546001600160a01b03163314155b1561033657604051636d8a29e760e11b815260040160405180910390fd5b6001600160a01b03821661035d57604051634e46966960e11b815260040160405180910390fd5b5f81815260046020908152604080832080546001600160a01b03191690556001600160a01b03861683526003909152812080546001929061039f90849061064b565b90915550506001600160a01b0382165f9081526003602052604081208054600192906103cc908490610664565b90915550505f8181526002602052604080822080546001600160a01b0319166001600160a01b0386811691821790925591518493918716917fddf252ad1be2c89b69c2b068fc378daa952ba7f163c4a11628f55a4df523b3ef91a4505050565b5f6001600160a01b03821661045457604051634e46966960e11b815260040160405180910390fd5b600554610462906001610664565b5f81815260026020908152604080832080546001600160a01b0319166001600160a01b03881690811790915583526003909152812080549293506001929091906104ad908490610664565b9091555050600581905560405181906001600160a01b038416905f907fddf252ad1be2c89b69c2b068fc378daa952ba7f163c4a11628f55a4df523b3ef908290a4919050565b6001805461019f906105ff565b5f602080835283518060208501525f5b8181101561052c57858101830151858201604001528201610510565b505f604082860101526040601f19601f8301168501019250505092915050565b5f6020828403121561055c575f80fd5b5035919050565b80356001600160a01b0381168114610579575f80fd5b919050565b5f806040838503121561058f575f80fd5b61059883610563565b946020939093013593505050565b5f805f606084860312156105b8575f80fd5b6105c184610563565b92506105cf60208501610563565b9150604084013590509250925092565b5f602082840312156105ef575f80fd5b6105f882610563565b9392505050565b600181811c9082168061061357607f821691505b60208210810361063157634e487b7160e01b5f52602260045260245ffd5b50919050565b634e487b7160e01b5f52601160045260245ffd5b8181038181111561065e5761065e610637565b92915050565b8082018082111561065e5761065e61063756fea2646970667358221220c21096d8b2e104bf7a9e16ca8e277552ac0befc044441f9c0814623c3a2544d164736f6c63430008180033","linkReferences":{}},"methodIdentifiers":{"approve(address,uint256)":"095ea7b3","balanceOf(address)":"70a08231","getApproved(uint256)":"081812fc","mint(address)":"6a627842","name()":"06fdde03","ownerOf(uint256)":"6352211e","symbol()":"95d89b41","totalSupply()":"18160ddd","transferFrom(address,address,uint256)":"23b872dd"},"id":0}