{"abi":[{"type":"function","name":"emitLog","inputs":[{"name":"value","type":"uint256","internalType":"uint256"},{"name":"message","type":"string","internalType":"string"}],"outputs":[],"stateMutability":"nonpayable"},{"type":"function","name":"totalLogs","inputs":[],"outputs":[{"name":"","type":"uint256","internalType":"uint256"}],"stateMutability":"view"},{"type":"event","name":"Logged","inputs":[{"name":"sender","type":"address","indexed":true,"internalType":"address"},{"name":"value","type":"uint256","indexed":true,"internalType":"uint256"},{"name":"message","type":"string","indexed":false,"internalType":"string"}],"anonymous":false}],"bytecode":{"object":"0x608060405234801561000f575f80fd5b506101c08061001d5f395ff3fe608060405234801561000f575f80fd5b5060043610610034575f3560e01c8063200097ca14610038578063e4ce06621461004d575b5f80fd5b61004b6100463660046100c3565b610067565b005b6100555f5481565b60405190815260200160405180910390f35b5f8054908061007583610138565b919050555082336001600160a01b03167f465e66eb9289c3cbe414f7216c7745628f6cf2c309b281e584c4feee768af0ec84846040516100b692919061015c565b60405180910390a3505050565b5f805f604084860312156100d5575f80fd5b83359250602084013567ffffffffffffffff808211156100f3575f80fd5b818601915086601f830112610106575f80fd5b813581811115610114575f80fd5b876020828501011115610125575f80fd5b6020830194508093505050509250925092565b5f6001820161015557634e487b7160e01b5f52601160045260245ffd5b5060010190565b60208152816020820152818360408301375f818301604090810191909152601f909201601f1916010191905056fea264697066735822122065ea43908668475fc385b50a7331ac3584ca81bac1cf22e9bcf5d8ebc17e7a2664736f6c63430008180033","linkReferences":{}},"methodIdentifiers":{"emitLog(uint256,string)":"200097ca","totalLogs()":"e4ce0662"},"id":0}