{"abi":[{"type":"constructor","inputs":[{"name":"gateNft","type":"address","internalType":"address"}],"stateMutability":"nonpayable"},{"type":"function","name":"SECRET","inputs":[],"outputs":[{"name":"","type":"string","internalType":"string"}],"stateMutability":"view"},{"type":"function","name":"accessCount","inputs":[],"outputs":[{"name":"","type":"uint256","internalType":"uint256"}],"stateMutability":"view"},{"type":"function","name":"gate","inputs":[],"outputs":[{"name":"","type":"address","internalType":"contract IGateNFT"}],"stateMutability":"view"},{"type":"function","name":"getSecret","inputs":[],"outputs":[{"name":"","type":"string","internalType":"string"}],"stateMutability":"nonpayable"},{"type":"function","name":"grantTimedAccess","inputs":[{"name":"user","type":"address","internalType":"address"},{"name":"ttlSeconds","type":"uint256","internalType":"uint256"}],"outputs":[{"name":"expiresAt","type":"uint256","internalType":"uint256"}],"stateMutability":"nonpayable"},{"type":"function","name":"hasAccess","inputs":[{"name":"user","type":"address","internalType":"address"}],"outputs":[{"name":"","type":"bool","internalType":"bool"}],"stateMutability":"view"},{"type":"function","name":"isGated","inputs":[{"name":"user","type":"address","internalType":"address"}],"outputs":[{"name":"","type":"bool","internalType":"bool"}],"stateMutability":"view"},{"type":"function","name":"timedAccessExpiry","inputs":[{"name":"","type":"address","internalType":"address"}],"outputs":[{"name":"","type":"uint256","internalType":"uint256"}],"stateMutability":"view"},{"type":"function","name":"timedAccessGrantor","inputs":[{"name":"","type":"address","internalType":"address"}],"outputs":[{"name":"","type":"address","internalType":"address"}],"stateMutability":"view"},{"type":"event","name":"Accessed","inputs":[{"name":"caller","type":"address","indexed":true,"internalType":"address"}],"anonymous":false},{"type":"event","name":"TimedAccessGranted","inputs":[{"name":"grantedBy","type":"address","indexed":true,"internalType":"address"},{"name":"user","type":"address","indexed":true,"internalType":"address"},{"name":"expiresAt","type":"uint256","indexed":false,"internalType":"uint256"}],"anonymous":false},{"type":"error","name":"InvalidTtl","inputs":[]},{"type":"error","name":"NotGated","inputs":[]}],"bytecode":{"object":"0x60a060405234801561000f575f80fd5b5060405161078438038061078483398101604081905261002e9161003f565b6001600160a01b031660805261006c565b5f6020828403121561004f575f80fd5b81516001600160a01b0381168114610065575f80fd5b9392505050565b6080516106e561009f5f395f818160fb015281816101d8015281816103b90152818161044c015261053101526106e55ff3fe608060405234801561000f575f80fd5b5060043610610090575f3560e01c80637a0ebc88116100635780637a0ebc88146100f65780637b06c0c91461013557806395a078e814610158578063da19643a1461016b578063fa11ec3b14610193575f80fd5b8063053a50e81461009457806310b5effa146100ba5780633bd738a2146100c25780635b9fdc30146100e1575b5f80fd5b6100a76100a23660046105bf565b6101c1565b6040519081526020015b60405180910390f35b6100a75f5481565b6100a76100d03660046105e7565b60016020525f908152604090205481565b6100e9610307565b6040516100b19190610607565b61011d7f000000000000000000000000000000000000000000000000000000000000000081565b6040516001600160a01b0390911681526020016100b1565b6101486101433660046105e7565b610396565b60405190151581526020016100b1565b6101486101663660046105e7565b610429565b61011d6101793660046105e7565b60026020525f90815260409020546001600160a01b031681565b6100e96040518060400160405280600f81526020016e616c7068612d706173732d3230323560881b81525081565b6040516370a0823160e01b81523360048201525f907f00000000000000000000000000000000000000000000000000000000000000006001600160a01b0316906370a0823190602401602060405180830381865afa158015610225573d5f803e3d5ffd5b505050506040513d601f19601f820116820180604052508101906102499190610653565b5f036102685760405163c79f32b960e01b815260040160405180910390fd5b815f0361028857604051631ee3453360e11b815260040160405180910390fd5b610292824261067e565b6001600160a01b0384165f818152600160209081526040808320859055600282529182902080546001600160a01b031916339081179091559151848152939450919290917f6c0a8808c8b4144e2db38377df64a063a69cc832fb55009c7dbd2abcad6b08c2910160405180910390a392915050565b606061031233610429565b61032f5760405163c79f32b960e01b815260040160405180910390fd5b5f8054908061033d83610697565b909155505060405133907fbe1d2bfe5e52a59ada456a7c76497f60eeec9933f9243e25f4981c1e1e2715c4905f90a25060408051808201909152600f81526e616c7068612d706173732d3230323560881b602082015290565b6040516370a0823160e01b81526001600160a01b0382811660048301525f9182917f000000000000000000000000000000000000000000000000000000000000000016906370a0823190602401602060405180830381865afa1580156103fe573d5f803e3d5ffd5b505050506040513d601f19601f820116820180604052508101906104229190610653565b1192915050565b6040516370a0823160e01b81526001600160a01b0382811660048301525f9182917f000000000000000000000000000000000000000000000000000000000000000016906370a0823190602401602060405180830381865afa158015610491573d5f803e3d5ffd5b505050506040513d601f19601f820116820180604052508101906104b59190610653565b11156104c357506001919050565b6001600160a01b0382165f908152600160205260409020544211156104e957505f919050565b6001600160a01b038083165f90815260026020526040902054168061051057505f92915050565b6040516370a0823160e01b81526001600160a01b0382811660048301525f917f0000000000000000000000000000000000000000000000000000000000000000909116906370a0823190602401602060405180830381865afa158015610578573d5f803e3d5ffd5b505050506040513d601f19601f8201168201806040525081019061059c9190610653565b119392505050565b80356001600160a01b03811681146105ba575f80fd5b919050565b5f80604083850312156105d0575f80fd5b6105d9836105a4565b946020939093013593505050565b5f602082840312156105f7575f80fd5b610600826105a4565b9392505050565b5f602080835283518060208501525f5b8181101561063357858101830151858201604001528201610617565b505f604082860101526040601f19601f8301168501019250505092915050565b5f60208284031215610663575f80fd5b5051919050565b634e487b7160e01b5f52601160045260245ffd5b808201808211156106915761069161066a565b92915050565b5f600182016106a8576106a861066a565b506001019056fea2646970667358221220453a77512c9769d9eb64c5eab32d4bdb1ab4efda81d2302db5ca2dc65be47ec564736f6c63430008180033","linkReferences":{}},"methodIdentifiers":{"SECRET()":"fa11ec3b","accessCount()":"10b5effa","gate()":"7a0ebc88","getSecret()":"5b9fdc30","grantTimedAccess(address,uint256)":"053a50e8","hasAccess(address)":"95a078e8","isGated(address)":"7b06c0c9","timedAccessExpiry(address)":"3bd738a2","timedAccessGrantor(address)":"da19643a"},"id":1}