{"abi":[{"type":"constructor","inputs":[{"name":"gateNft","type":"address","internalType":"address"}],"stateMutability":"nonpayable"},{"type":"function","name":"SECRET","inputs":[],"outputs":[{"name":"","type":"string","internalType":"string"}],"stateMutability":"view"},{"type":"function","name":"accessCount","inputs":[],"outputs":[{"name":"","type":"uint256","internalType":"uint256"}],"stateMutability":"view"},{"type":"function","name":"gate","inputs":[],"outputs":[{"name":"","type":"address","internalType":"contract IGateNFT"}],"stateMutability":"view"},{"type":"function","name":"getSecret","inputs":[],"outputs":[{"name":"","type":"string","internalType":"string"}],"stateMutability":"nonpayable"},{"type":"function","name":"isGated","inputs":[{"name":"user","type":"address","internalType":"address"}],"outputs":[{"name":"","type":"bool","internalType":"bool"}],"stateMutability":"view"},{"type":"event","name":"Accessed","inputs":[{"name":"caller","type":"address","indexed":true,"internalType":"address"}],"anonymous":false},{"type":"error","name":"NotGated","inputs":[]}],"bytecode":{"object":"0x60a060405234801561000f575f80fd5b5060405161043638038061043683398101604081905261002e9161003f565b6001600160a01b031660805261006c565b5f6020828403121561004f575f80fd5b81516001600160a01b0381168114610065575f80fd5b9392505050565b6080516103a56100915f395f8181608e01528181610131015261024b01526103a55ff3fe608060405234801561000f575f80fd5b5060043610610055575f3560e01c806310b5effa146100595780635b9fdc30146100745780637a0ebc88146100895780637b06c0c9146100c8578063fa11ec3b146100eb575b5f80fd5b6100615f5481565b6040519081526020015b60405180910390f35b61007c610119565b60405161006b91906102bb565b6100b07f000000000000000000000000000000000000000000000000000000000000000081565b6040516001600160a01b03909116815260200161006b565b6100db6100d6366004610307565b610228565b604051901515815260200161006b565b61007c6040518060400160405280600f81526020016e616c7068612d706173732d3230323560881b81525081565b6040516370a0823160e01b81523360048201526060907f00000000000000000000000000000000000000000000000000000000000000006001600160a01b0316906370a0823190602401602060405180830381865afa15801561017e573d5f803e3d5ffd5b505050506040513d601f19601f820116820180604052508101906101a29190610334565b5f036101c15760405163c79f32b960e01b815260040160405180910390fd5b5f805490806101cf8361034b565b909155505060405133907fbe1d2bfe5e52a59ada456a7c76497f60eeec9933f9243e25f4981c1e1e2715c4905f90a25060408051808201909152600f81526e616c7068612d706173732d3230323560881b602082015290565b6040516370a0823160e01b81526001600160a01b0382811660048301525f9182917f000000000000000000000000000000000000000000000000000000000000000016906370a0823190602401602060405180830381865afa158015610290573d5f803e3d5ffd5b505050506040513d601f19601f820116820180604052508101906102b49190610334565b1192915050565b5f602080835283518060208501525f5b818110156102e7578581018301518582016040015282016102cb565b505f604082860101526040601f19601f8301168501019250505092915050565b5f60208284031215610317575f80fd5b81356001600160a01b038116811461032d575f80fd5b9392505050565b5f60208284031215610344575f80fd5b5051919050565b5f6001820161036857634e487b7160e01b5f52601160045260245ffd5b506001019056fea26469706673582212203de8c81bf709b366d90269a4c297b4da4a32dfa25f7f27a187adf53fcdca8cfb64736f6c63430008180033","linkReferences":{}},"methodIdentifiers":{"SECRET()":"fa11ec3b","accessCount()":"10b5effa","gate()":"7a0ebc88","getSecret()":"5b9fdc30","isGated(address)":"7b06c0c9"},"id":1}