{"abi":[{"type":"constructor","inputs":[{"name":"a","type":"address","internalType":"address"},{"name":"b","type":"address","internalType":"address"}],"stateMutability":"nonpayable"},{"type":"function","name":"permitAndSwap","inputs":[{"name":"amountIn","type":"uint256","internalType":"uint256"},{"name":"deadline","type":"uint256","internalType":"uint256"},{"name":"v","type":"uint8","internalType":"uint8"},{"name":"r","type":"bytes32","internalType":"bytes32"},{"name":"s","type":"bytes32","internalType":"bytes32"}],"outputs":[],"stateMutability":"nonpayable"},{"type":"function","name":"tokenA","inputs":[],"outputs":[{"name":"","type":"address","internalType":"contract IPermitToken"}],"stateMutability":"view"},{"type":"function","name":"tokenB","inputs":[],"outputs":[{"name":"","type":"address","internalType":"contract IPermitToken"}],"stateMutability":"view"},{"type":"event","name":"Swapped","inputs":[{"name":"user","type":"address","indexed":true,"internalType":"address"},{"name":"amountIn","type":"uint256","indexed":false,"internalType":"uint256"},{"name":"amountOut","type":"uint256","indexed":false,"internalType":"uint256"}],"anonymous":false}],"bytecode":{"object":"0x60c060405234801561000f575f80fd5b506040516104bc3803806104bc83398101604081905261002e91610060565b6001600160a01b039182166080521660a052610091565b80516001600160a01b038116811461005b575f80fd5b919050565b5f8060408385031215610071575f80fd5b61007a83610045565b915061008860208401610045565b90509250929050565b60805160a0516103f76100c55f395f8181608b015261025801525f8181604801528181610102015261018101526103f75ff3fe608060405234801561000f575f80fd5b506004361061003f575f3560e01c80630fc63d10146100435780635f64b55b14610086578063bdcfe553146100ad575b5f80fd5b61006a7f000000000000000000000000000000000000000000000000000000000000000081565b6040516001600160a01b03909116815260200160405180910390f35b61006a7f000000000000000000000000000000000000000000000000000000000000000081565b6100c06100bb366004610351565b6100c2565b005b60405163d505accf60e01b8152336004820152306024820152604481018690526064810185905260ff8416608482015260a4810183905260c481018290527f00000000000000000000000000000000000000000000000000000000000000006001600160a01b03169063d505accf9060e4015f604051808303815f87803b15801561014b575f80fd5b505af115801561015d573d5f803e3d5ffd5b50506040516323b872dd60e01b8152336004820152306024820152604481018890527f00000000000000000000000000000000000000000000000000000000000000006001600160a01b031692506323b872dd91506064016020604051808303815f875af11580156101d1573d5f803e3d5ffd5b505050506040513d601f19601f820116820180604052508101906101f5919061039b565b61023c5760405162461bcd60e51b81526020600482015260136024820152721d1c985b9cd9995c919c9bdb4819985a5b1959606a1b60448201526064015b60405180910390fd5b60405163a9059cbb60e01b8152336004820152602481018690527f00000000000000000000000000000000000000000000000000000000000000006001600160a01b03169063a9059cbb906044016020604051808303815f875af11580156102a6573d5f803e3d5ffd5b505050506040513d601f19601f820116820180604052508101906102ca919061039b565b61030f5760405162461bcd60e51b81526020600482015260166024820152751d1bdad95b90881d1c985b9cd9995c8819985a5b195960521b6044820152606401610233565b604080518681526020810187905233917f3a9a9f34f5831e9c8ecb66ab3aa308b2ff31eaca434615f6c9cadc656a9af71c910160405180910390a25050505050565b5f805f805f60a08688031215610365575f80fd5b8535945060208601359350604086013560ff81168114610383575f80fd5b94979396509394606081013594506080013592915050565b5f602082840312156103ab575f80fd5b815180151581146103ba575f80fd5b939250505056fea2646970667358221220eeef00bdd43082ffcbe39acce732cf6438699ac8369fc900bc207eb7f9e9f77c64736f6c63430008180033","linkReferences":{}},"methodIdentifiers":{"permitAndSwap(uint256,uint256,uint8,bytes32,bytes32)":"bdcfe553","tokenA()":"0fc63d10","tokenB()":"5f64b55b"},"id":0}