{"abi":[{"type":"function","name":"depositTo","inputs":[{"name":"account","type":"address","internalType":"address"}],"outputs":[],"stateMutability":"payable"},{"type":"function","name":"deposits","inputs":[{"name":"","type":"address","internalType":"address"}],"outputs":[{"name":"","type":"uint256","internalType":"uint256"}],"stateMutability":"view"},{"type":"function","name":"getUserOpHash","inputs":[{"name":"userOp","type":"tuple","internalType":"struct UserOperation","components":[{"name":"sender","type":"address","internalType":"address"},{"name":"nonce","type":"uint256","internalType":"uint256"},{"name":"initCode","type":"bytes","internalType":"bytes"},{"name":"callData","type":"bytes","internalType":"bytes"},{"name":"callGasLimit","type":"uint256","internalType":"uint256"},{"name":"verificationGasLimit","type":"uint256","internalType":"uint256"},{"name":"preVerificationGas","type":"uint256","internalType":"uint256"},{"name":"maxFeePerGas","type":"uint256","internalType":"uint256"},{"name":"maxPriorityFeePerGas","type":"uint256","internalType":"uint256"},{"name":"paymasterAndData","type":"bytes","internalType":"bytes"},{"name":"signature","type":"bytes","internalType":"bytes"}]}],"outputs":[{"name":"","type":"bytes32","internalType":"bytes32"}],"stateMutability":"view"},{"type":"function","name":"handleOps","inputs":[{"name":"ops","type":"tuple[]","internalType":"struct UserOperation[]","components":[{"name":"sender","type":"address","internalType":"address"},{"name":"nonce","type":"uint256","internalType":"uint256"},{"name":"initCode","type":"bytes","internalType":"bytes"},{"name":"callData","type":"bytes","internalType":"bytes"},{"name":"callGasLimit","type":"uint256","internalType":"uint256"},{"name":"verificationGasLimit","type":"uint256","internalType":"uint256"},{"name":"preVerificationGas","type":"uint256","internalType":"uint256"},{"name":"maxFeePerGas","type":"uint256","internalType":"uint256"},{"name":"maxPriorityFeePerGas","type":"uint256","internalType":"uint256"},{"name":"paymasterAndData","type":"bytes","internalType":"bytes"},{"name":"signature","type":"bytes","internalType":"bytes"}]},{"name":"beneficiary","type":"address","internalType":"address"}],"outputs":[],"stateMutability":"nonpayable"},{"type":"function","name":"withdrawTo","inputs":[{"name":"withdrawAddress","type":"address","internalType":"address payable"},{"name":"amount","type":"uint256","internalType":"uint256"}],"outputs":[],"stateMutability":"nonpayable"},{"type":"event","name":"UserOperationHandled","inputs":[{"name":"sender","type":"address","indexed":true,"internalType":"address"},{"name":"userOpHash","type":"bytes32","indexed":true,"internalType":"bytes32"}],"anonymous":false},{"type":"error","name":"FailedOp","inputs":[{"name":"opIndex","type":"uint256","internalType":"uint256"},{"name":"reason","type":"string","internalType":"string"}]},{"type":"error","name":"SenderAddressMismatch","inputs":[{"name":"expected","type":"address","internalType":"address"},{"name":"actual","type":"address","internalType":"address"}]},{"type":"error","name":"WithdrawFailed","inputs":[]}],"bytecode":{"object":"0x608060405234801561000f575f80fd5b50610ef98061001d5f395ff3fe608060405260043610610049575f3560e01c80631fad948c1461004d578063205c28781461006e578063a61935311461008d578063b760faf9146100be578063fc7e286d146100d1575b5f80fd5b348015610058575f80fd5b5061006c6100673660046109b4565b6100fc565b005b348015610079575f80fd5b5061006c610088366004610a33565b61037d565b348015610098575f80fd5b506100ac6100a7366004610a5d565b610466565b60405190815260200160405180910390f35b61006c6100cc366004610a9c565b610671565b3480156100dc575f80fd5b506100ac6100eb366004610a9c565b5f6020819052908152604090205481565b5f5b82811015610377573684848381811061011957610119610ab7565b905060200281019061012b9190610acb565b905061013a6020820182610a9c565b6001600160a01b03163b5f036101545761015482826106a0565b5f61015e82610466565b905061016d6020830183610a9c565b6001600160a01b031663fff35b7283836040518363ffffffff1660e01b815260040161019a929190610b5b565b5f604051808303815f87803b1580156101b1575f80fd5b505af19250505080156101c2575060015b610267576101ce610c73565b806308c379a00361021357506101e2610cc5565b806101ed5750610215565b8381604051631101335b60e11b815260040161020a929190610d70565b60405180910390fd5b505b82604051631101335b60e11b815260040161020a9181526040602082018190526017908201527f76616c6964617465557365724f70207265766572746564000000000000000000606082015260800190565b5f806102766020850185610a9c565b6001600160a01b031661028c6060860186610da9565b60405160200161029d929190610dec565b60408051601f19818403018152908290526102b791610dfb565b5f604051808303815f865af19150503d805f81146102f0576040519150601f19603f3d011682016040523d82523d5f602084013e6102f5565b606091505b509150915081610324578461030982610925565b604051631101335b60e11b815260040161020a929190610d70565b826103326020860186610a9c565b6001600160a01b03167f0d29d9552a0d4078ae566c370e910a7a9672b176a16b949f986e0f20e190fb9560405160405180910390a35050600190920191506100fe9050565b50505050565b335f90815260208190526040902054818110156103dd5760408051631101335b60e11b81525f196004820152602481019190915260146044820152731a5b9cdd59999a58da595b9d0819195c1bdcda5d60621b606482015260840161020a565b6103e78282610e20565b335f908152602081905260408082209290925590516001600160a01b0385169084908381818185875af1925050503d805f811461043f576040519150601f19603f3d011682016040523d82523d5f602084013e610444565b606091505b505090508061037757604051631d42c86760e21b815260040160405180910390fd5b5f807fbd47908f8c7dbc533ae674010d6ece038df6a5c9f4c9a8c90151f674f772602f6104966020850185610a9c565b60208501356104a86040870187610da9565b6040516104b6929190610dec565b6040519081900390206104cc6060880188610da9565b6040516104da929190610dec565b604051908190039020608088013560a089013560c08a013560e08b01356101008c013561050b6101208e018e610da9565b604051610519929190610dec565b6040805191829003822060208084019d909d526001600160a01b039b909b16828201526060820199909952608081019790975260a087019590955260c086019390935260e08501919091526101008401526101208301526101408201526101608082019390935281518082039093018352610180810182528251928401929092207f8b73c3c69bb8fe3d512ecc4cf759cc79239f7b179b0ffacaa9a75d522b39400f6101a08401527e10bd3ae90c81d188ded5c5f383d39b73fe090d52789ae044afaa619584ede76101c08401527f039eb7c1a17686c95dc5e5f7bb8ad8976b26a2ed19913115218a992047cfcee56101e0840152466102008401523061022080850191909152825180850390910181526102408401835280519085012061190160f01b61026085015261026284015261028280840191909152815180840390910181526102a2909201905280519101209392505050565b6001600160a01b0381165f9081526020819052604081208054349290610698908490610e39565b909155505050565b60146106af6040830183610da9565b905010156106fe5781604051631101335b60e11b815260040161020a918152604060208201819052601290820152711a5b9a5d10dbd919481d1bdbc81cda1bdc9d60721b606082015260800190565b5f61070c6040830183610da9565b61071a916014915f91610e4c565b61072391610e73565b60601c90505f6107366040840184610da9565b610744916014908290610e4c565b8080601f0160208091040260200160405190810160405280939291908181526020018383808284375f920182905250604051949550938493506001600160a01b038716925061079591508590610dfb565b5f604051808303815f865af19150503d805f81146107ce576040519150601f19603f3d011682016040523d82523d5f602084013e6107d3565b606091505b5091509150816107e7578561030982610925565b6020815110156108435785604051631101335b60e11b815260040161020a918152604060208201819052601b908201527f666163746f72792072657475726e6564206e6f20616464726573730000000000606082015260800190565b5f818060200190518101906108589190610ea8565b90506108676020870187610a9c565b6001600160a01b0316816001600160a01b0316146108b95761088c6020870187610a9c565b6040516303745cf760e31b81526001600160a01b039182166004820152908216602482015260440161020a565b806001600160a01b03163b5f0361091c5786604051631101335b60e11b815260040161020a9181526040602082018190526018908201527f6163636f756e7420776173206e6f74206465706c6f7965640000000000000000606082015260800190565b50505050505050565b606060048251101561095f575050604080518082019091526012815271195e1958dd5d1a5bdb881c995d995c9d195960721b602082015290565b5050604080518082019091526012815271195e1958dd5d1a5bdb881c995d995c9d195960721b602082015290565b6001600160a01b03811681146109a1575f80fd5b50565b80356109af8161098d565b919050565b5f805f604084860312156109c6575f80fd5b833567ffffffffffffffff808211156109dd575f80fd5b818601915086601f8301126109f0575f80fd5b8135818111156109fe575f80fd5b8760208260051b8501011115610a12575f80fd5b60209283019550935050840135610a288161098d565b809150509250925092565b5f8060408385031215610a44575f80fd5b8235610a4f8161098d565b946020939093013593505050565b5f60208284031215610a6d575f80fd5b813567ffffffffffffffff811115610a83575f80fd5b82016101608185031215610a95575f80fd5b9392505050565b5f60208284031215610aac575f80fd5b8135610a958161098d565b634e487b7160e01b5f52603260045260245ffd5b5f823561015e19833603018112610ae0575f80fd5b9190910192915050565b5f808335601e19843603018112610aff575f80fd5b830160208101925035905067ffffffffffffffff811115610b1e575f80fd5b803603821315610b2c575f80fd5b9250929050565b81835281816020850137505f828201602090810191909152601f909101601f19169091010190565b60408152610b7c60408201610b6f856109a4565b6001600160a01b03169052565b602083013560608201525f610b946040850185610aea565b610160806080860152610bac6101a086018385610b33565b9250610bbb6060880188610aea565b9250603f19808786030160a0880152610bd5858584610b33565b9450608089013560c088015260a089013560e0880152610100935060c089013584880152610120915060e089013582880152610140848a013581890152610c1e838b018b610aea565b95509250818887030184890152610c36868685610b33565b9550610c44818b018b610aea565b955093505080878603016101808801525050610c61838383610b33565b93505050508260208301529392505050565b5f60033d1115610c895760045f803e505f5160e01c5b90565b601f8201601f1916810167ffffffffffffffff81118282101715610cbe57634e487b7160e01b5f52604160045260245ffd5b6040525050565b5f60443d1015610cd25790565b6040516003193d81016004833e81513d67ffffffffffffffff8160248401118184111715610d0257505050505090565b8285019150815181811115610d1a5750505050505090565b843d8701016020828501011115610d345750505050505090565b610d4360208286010187610c8c565b509095945050505050565b5f5b83811015610d68578181015183820152602001610d50565b50505f910152565b828152604060208201525f8251806040840152610d94816060850160208701610d4e565b601f01601f1916919091016060019392505050565b5f808335601e19843603018112610dbe575f80fd5b83018035915067ffffffffffffffff821115610dd8575f80fd5b602001915036819003821315610b2c575f80fd5b818382375f9101908152919050565b5f8251610ae0818460208701610d4e565b634e487b7160e01b5f52601160045260245ffd5b81810381811115610e3357610e33610e0c565b92915050565b80820180821115610e3357610e33610e0c565b5f8085851115610e5a575f80fd5b83861115610e66575f80fd5b5050820193919092039150565b6bffffffffffffffffffffffff198135818116916014851015610ea05780818660140360031b1b83161692505b505092915050565b5f60208284031215610eb8575f80fd5b8151610a958161098d56fea2646970667358221220bdf66b2969fedccf7e0f0b03cba2d54cde2bebfb03702defd1b5260a04c92cbb64736f6c63430008180033","linkReferences":{}},"methodIdentifiers":{"depositTo(address)":"b760faf9","deposits(address)":"fc7e286d","getUserOpHash((address,uint256,bytes,bytes,uint256,uint256,uint256,uint256,uint256,bytes,bytes))":"a6193531","handleOps((address,uint256,bytes,bytes,uint256,uint256,uint256,uint256,uint256,bytes,bytes)[],address)":"1fad948c","withdrawTo(address,uint256)":"205c2878"},"id":0}