{"abi":[{"type":"function","name":"pull","inputs":[{"name":"token","type":"address","internalType":"address"},{"name":"from","type":"address","internalType":"address"},{"name":"to","type":"address","internalType":"address"},{"name":"amount","type":"uint256","internalType":"uint256"}],"outputs":[],"stateMutability":"nonpayable"},{"type":"event","name":"Pulled","inputs":[{"name":"token","type":"address","indexed":true,"internalType":"address"},{"name":"from","type":"address","indexed":true,"internalType":"address"},{"name":"to","type":"address","indexed":true,"internalType":"address"},{"name":"amount","type":"uint256","indexed":false,"internalType":"uint256"}],"anonymous":false},{"type":"error","name":"TransferFailed","inputs":[]}],"bytecode":{"object":"0x608060405234801561000f575f80fd5b506101fa8061001d5f395ff3fe608060405234801561000f575f80fd5b5060043610610029575f3560e01c8063dc772e941461002d575b5f80fd5b61004061003b366004610156565b610042565b005b6040516323b872dd60e01b81526001600160a01b0384811660048301528381166024830152604482018390525f91908616906323b872dd906064016020604051808303815f875af1158015610099573d5f803e3d5ffd5b505050506040513d601f19601f820116820180604052508101906100bd919061019e565b9050806100dd576040516312171d8360e31b815260040160405180910390fd5b826001600160a01b0316846001600160a01b0316866001600160a01b03167f71245ca0cbcd7ed3effe3e947001ed7a673eb73fda8d6c09755be6d7cb89d24d8560405161012c91815260200190565b60405180910390a45050505050565b80356001600160a01b0381168114610151575f80fd5b919050565b5f805f8060808587031215610169575f80fd5b6101728561013b565b93506101806020860161013b565b925061018e6040860161013b565b9396929550929360600135925050565b5f602082840312156101ae575f80fd5b815180151581146101bd575f80fd5b939250505056fea264697066735822122037f41a36c718c92d506b1c4249b577fa6403beb47f5693c368d40ebb4168c1be64736f6c63430008180033","linkReferences":{}},"methodIdentifiers":{"pull(address,address,address,uint256)":"dc772e94"},"id":5}