{"abi":[{"type":"function","name":"count","inputs":[],"outputs":[{"name":"","type":"uint256","internalType":"uint256"}],"stateMutability":"view"},{"type":"function","name":"countByCaller","inputs":[{"name":"","type":"address","internalType":"address"}],"outputs":[{"name":"","type":"uint256","internalType":"uint256"}],"stateMutability":"view"},{"type":"function","name":"increment","inputs":[],"outputs":[],"stateMutability":"nonpayable"},{"type":"event","name":"Incremented","inputs":[{"name":"caller","type":"address","indexed":true,"internalType":"address"},{"name":"newCount","type":"uint256","indexed":false,"internalType":"uint256"}],"anonymous":false}],"bytecode":{"object":"0x608060405234801561000f575f80fd5b506101788061001d5f395ff3fe608060405234801561000f575f80fd5b506004361061003f575f3560e01c806306661abd1461004357806313b3031a1461005d578063d09de08a1461007c575b5f80fd5b61004b5f5481565b60405190815260200160405180910390f35b61004b61006b3660046100f1565b60016020525f908152604090205481565b610084610086565b005b5f805490806100948361011e565b9091555050335f9081526001602052604081208054916100b38361011e565b90915550505f5460405190815233907f38ac789ed44572701765277c4d0970f2db1c1a571ed39e84358095ae4eaa54209060200160405180910390a2565b5f60208284031215610101575f80fd5b81356001600160a01b0381168114610117575f80fd5b9392505050565b5f6001820161013b57634e487b7160e01b5f52601160045260245ffd5b506001019056fea2646970667358221220264109b0838c928f75f195a520d296a49456e438bb12dc78339601dac49834ad64736f6c63430008180033","linkReferences":{}},"methodIdentifiers":{"count()":"06661abd","countByCaller(address)":"13b3031a","increment()":"d09de08a"},"id":1}