{"abi":[{"type":"function","name":"isValidRangeProof","inputs":[{"name":"who","type":"address","internalType":"address"},{"name":"value","type":"uint256","internalType":"uint256"},{"name":"salt","type":"bytes32","internalType":"bytes32"}],"outputs":[{"name":"","type":"bool","internalType":"bool"}],"stateMutability":"view"},{"type":"function","name":"maxValues","inputs":[{"name":"","type":"address","internalType":"address"}],"outputs":[{"name":"","type":"uint256","internalType":"uint256"}],"stateMutability":"view"},{"type":"function","name":"minValues","inputs":[{"name":"","type":"address","internalType":"address"}],"outputs":[{"name":"","type":"uint256","internalType":"uint256"}],"stateMutability":"view"},{"type":"function","name":"rangeCommitments","inputs":[{"name":"","type":"address","internalType":"address"}],"outputs":[{"name":"","type":"bytes32","internalType":"bytes32"}],"stateMutability":"view"},{"type":"function","name":"setRangeCommitment","inputs":[{"name":"commitment","type":"bytes32","internalType":"bytes32"},{"name":"minValue","type":"uint256","internalType":"uint256"},{"name":"maxValue","type":"uint256","internalType":"uint256"}],"outputs":[],"stateMutability":"nonpayable"},{"type":"function","name":"totalVerified","inputs":[],"outputs":[{"name":"","type":"uint256","internalType":"uint256"}],"stateMutability":"view"},{"type":"function","name":"verifiedCount","inputs":[{"name":"","type":"address","internalType":"address"}],"outputs":[{"name":"","type":"uint256","internalType":"uint256"}],"stateMutability":"view"},{"type":"function","name":"verifyRange","inputs":[{"name":"value","type":"uint256","internalType":"uint256"},{"name":"salt","type":"bytes32","internalType":"bytes32"}],"outputs":[{"name":"success","type":"bool","internalType":"bool"}],"stateMutability":"nonpayable"},{"type":"event","name":"RangeCommitmentSet","inputs":[{"name":"who","type":"address","indexed":true,"internalType":"address"},{"name":"commitment","type":"bytes32","indexed":true,"internalType":"bytes32"},{"name":"minValue","type":"uint256","indexed":false,"internalType":"uint256"},{"name":"maxValue","type":"uint256","indexed":false,"internalType":"uint256"}],"anonymous":false},{"type":"event","name":"RangeVerified","inputs":[{"name":"who","type":"address","indexed":true,"internalType":"address"},{"name":"value","type":"uint256","indexed":false,"internalType":"uint256"},{"name":"minValue","type":"uint256","indexed":false,"internalType":"uint256"},{"name":"maxValue","type":"uint256","indexed":false,"internalType":"uint256"}],"anonymous":false},{"type":"error","name":"InvalidRange","inputs":[]},{"type":"error","name":"InvalidRangeProof","inputs":[]},{"type":"error","name":"NoRangeCommitment","inputs":[]},{"type":"error","name":"RangeOutOfBounds","inputs":[{"name":"value","type":"uint256","internalType":"uint256"},{"name":"minValue","type":"uint256","internalType":"uint256"},{"name":"maxValue","type":"uint256","internalType":"uint256"}]}],"bytecode":{"object":"0x608060405234801561000f575f80fd5b506104e88061001d5f395ff3fe608060405234801561000f575f80fd5b5060043610610085575f3560e01c806399804231116100585780639980423114610112578063ea0b6f6814610125578063efec3fff14610144578063fe9eba1514610163575f80fd5b8063072f8b9914610089578063299288d41461009e5780633ba9db8b146100d057806390cc219a146100ef575b5f80fd5b61009c6100973660046103e1565b61016c565b005b6100bd6100ac366004610425565b5f6020819052908152604090205481565b6040519081526020015b60405180910390f35b6100bd6100de366004610425565b60016020525f908152604090205481565b6101026100fd36600461043e565b6101f2565b60405190151581526020016100c7565b61010261012036600461046e565b61028e565b6100bd610133366004610425565b60036020525f908152604090205481565b6100bd610152366004610425565b60026020525f908152604090205481565b6100bd60045481565b8082111561018d5760405163561ce9bb60e01b815260040160405180910390fd5b335f8181526020818152604080832087905560018252808320869055600282529182902084905581518581529081018490528592917f9b87502c6c09378d84c51d7fec718fd5189499293a18e720092ee28f1d2d5cc9910160405180910390a3505050565b6001600160a01b0383165f9081526020819052604081205480610218575f915050610287565b6001600160a01b0385165f908152600160209081526040808320546002909252909120548186108061024957508086115b15610259575f9350505050610287565b5050604080516020808201879052818301869052825180830384018152606090920190925280519101201490505b9392505050565b335f90815260208190526040812054806102bb576040516309d2aa2160e11b815260040160405180910390fd5b335f90815260016020908152604080832054600290925290912054818610806102e357508086115b156103165760405163e944a15760e01b815260048101879052602481018390526044810182905260640160405180910390fd5b6040805160208082018990528183018890528251808303840181526060909201909252805191012083811461035e576040516355699bc960e01b815260040160405180910390fd5b335f9081526003602052604081208054916103788361048e565b909155505060048054905f61038c8361048e565b9091555050604080518881526020810185905290810183905233907f854b0706aa2a4eb3658772708783c2e13550b2f2ee22714657cd0f02a8b06b219060600160405180910390a25060019695505050505050565b5f805f606084860312156103f3575f80fd5b505081359360208301359350604090920135919050565b80356001600160a01b0381168114610420575f80fd5b919050565b5f60208284031215610435575f80fd5b6102878261040a565b5f805f60608486031215610450575f80fd5b6104598461040a565b95602085013595506040909401359392505050565b5f806040838503121561047f575f80fd5b50508035926020909101359150565b5f600182016104ab57634e487b7160e01b5f52601160045260245ffd5b506001019056fea26469706673582212204b662f780d45f28b3fb758f147490b96d89918f46960c8c3f37aaa60fc770fc064736f6c63430008180033","linkReferences":{}},"methodIdentifiers":{"isValidRangeProof(address,uint256,bytes32)":"90cc219a","maxValues(address)":"efec3fff","minValues(address)":"3ba9db8b","rangeCommitments(address)":"299288d4","setRangeCommitment(bytes32,uint256,uint256)":"072f8b99","totalVerified()":"fe9eba15","verifiedCount(address)":"ea0b6f68","verifyRange(uint256,bytes32)":"99804231"},"id":1}