{"abi":[{"type":"constructor","inputs":[{"name":"nftAddress","type":"address","internalType":"address"}],"stateMutability":"nonpayable"},{"type":"function","name":"buy","inputs":[{"name":"tokenId","type":"uint256","internalType":"uint256"}],"outputs":[],"stateMutability":"payable"},{"type":"function","name":"cancel","inputs":[{"name":"tokenId","type":"uint256","internalType":"uint256"}],"outputs":[],"stateMutability":"nonpayable"},{"type":"function","name":"list","inputs":[{"name":"tokenId","type":"uint256","internalType":"uint256"},{"name":"price","type":"uint256","internalType":"uint256"}],"outputs":[],"stateMutability":"nonpayable"},{"type":"function","name":"listings","inputs":[{"name":"","type":"uint256","internalType":"uint256"}],"outputs":[{"name":"seller","type":"address","internalType":"address"},{"name":"price","type":"uint256","internalType":"uint256"},{"name":"active","type":"bool","internalType":"bool"}],"stateMutability":"view"},{"type":"function","name":"nft","inputs":[],"outputs":[{"name":"","type":"address","internalType":"contract IMarketNft"}],"stateMutability":"view"},{"type":"event","name":"Bought","inputs":[{"name":"tokenId","type":"uint256","indexed":true,"internalType":"uint256"},{"name":"buyer","type":"address","indexed":true,"internalType":"address"},{"name":"price","type":"uint256","indexed":false,"internalType":"uint256"}],"anonymous":false},{"type":"event","name":"Cancelled","inputs":[{"name":"tokenId","type":"uint256","indexed":true,"internalType":"uint256"}],"anonymous":false},{"type":"event","name":"Listed","inputs":[{"name":"tokenId","type":"uint256","indexed":true,"internalType":"uint256"},{"name":"seller","type":"address","indexed":true,"internalType":"address"},{"name":"price","type":"uint256","indexed":false,"internalType":"uint256"}],"anonymous":false},{"type":"error","name":"InsufficientPayment","inputs":[]},{"type":"error","name":"NotActive","inputs":[]},{"type":"error","name":"NotApproved","inputs":[]},{"type":"error","name":"NotOwner","inputs":[]},{"type":"error","name":"PaymentFailed","inputs":[]}],"bytecode":{"object":"0x60a060405234801561000f575f80fd5b5060405161080838038061080883398101604081905261002e9161003f565b6001600160a01b031660805261006c565b5f6020828403121561004f575f80fd5b81516001600160a01b0381168114610065575f80fd5b9392505050565b6080516107706100985f395f8181607f0152818161025d0152818161030d015261051301526107705ff3fe608060405260043610610049575f3560e01c806340e58ee51461004d57806347ccca021461006e57806350fd7367146100be578063d96a094a146100dd578063de74e57b146100f0575b5f80fd5b348015610058575f80fd5b5061006c6100673660046106b1565b61015e565b005b348015610079575f80fd5b506100a17f000000000000000000000000000000000000000000000000000000000000000081565b6040516001600160a01b0390911681526020015b60405180910390f35b3480156100c9575f80fd5b5061006c6100d83660046106c8565b61023d565b61006c6100eb3660046106b1565b610433565b3480156100fb575f80fd5b5061013761010a3660046106b1565b5f602081905290815260409020805460018201546002909201546001600160a01b03909116919060ff1683565b604080516001600160a01b03909416845260208401929092521515908201526060016100b5565b5f8181526020818152604091829020825160608101845281546001600160a01b031681526001820154928101929092526002015460ff161515918101829052906101bb57604051634065aaf160e11b815260040160405180910390fd5b80516001600160a01b031633146101e5576040516330cd747160e01b815260040160405180910390fd5b5f8281526020819052604080822080546001600160a01b031916815560018101839055600201805460ff191690555183917fc41d93b8bfbf9fd7cf5bfe271fd649ab6a6fec0ea101c23b82a2a28eca2533a991a25050565b6040516331a9108f60e11b81526004810183905233906001600160a01b037f00000000000000000000000000000000000000000000000000000000000000001690636352211e90602401602060405180830381865afa1580156102a2573d5f803e3d5ffd5b505050506040513d601f19601f820116820180604052508101906102c691906106e8565b6001600160a01b0316146102ed576040516330cd747160e01b815260040160405180910390fd5b60405163020604bf60e21b81526004810183905230906001600160a01b037f0000000000000000000000000000000000000000000000000000000000000000169063081812fc90602401602060405180830381865afa158015610352573d5f803e3d5ffd5b505050506040513d601f19601f8201168201806040525081019061037691906106e8565b6001600160a01b03161461039d5760405163c19f17a960e01b815260040160405180910390fd5b6040805160608101825233808252602080830185815260018486018181525f898152808552879020955186546001600160a01b0319166001600160a01b03909116178655915190850155516002909301805460ff191693151593909317909255915183815284917f50955776c5778c3b7d968d86d8c51fb6b29a7a74c20866b533268e209fc08343910160405180910390a35050565b5f8181526020818152604091829020825160608101845281546001600160a01b031681526001820154928101929092526002015460ff1615159181018290529061049057604051634065aaf160e11b815260040160405180910390fd5b80602001513410156104b55760405163cd1c886760e01b815260040160405180910390fd5b5f8281526020819052604080822080546001600160a01b031916815560018101929092556002909101805460ff19169055815190516323b872dd60e01b81526001600160a01b039182166004820152336024820152604481018490527f0000000000000000000000000000000000000000000000000000000000000000909116906323b872dd906064015f604051808303815f87803b158015610556575f80fd5b505af1158015610568573d5f803e3d5ffd5b505050505f815f01516001600160a01b031682602001516040515f6040518083038185875af1925050503d805f81146105bc576040519150601f19603f3d011682016040523d82523d5f602084013e6105c1565b606091505b50509050806105e3576040516307a4ced160e51b815260040160405180910390fd5b81602001513411156106645760208201515f9033906106029034610715565b6040515f81818185875af1925050503d805f811461063b576040519150601f19603f3d011682016040523d82523d5f602084013e610640565b606091505b5050905080610662576040516307a4ced160e51b815260040160405180910390fd5b505b336001600160a01b0316837fd2728f908c7e0feb83c6278798370fcb86b62f236c9dbf1a3f541096c215904084602001516040516106a491815260200190565b60405180910390a3505050565b5f602082840312156106c1575f80fd5b5035919050565b5f80604083850312156106d9575f80fd5b50508035926020909101359150565b5f602082840312156106f8575f80fd5b81516001600160a01b038116811461070e575f80fd5b9392505050565b8181038181111561073457634e487b7160e01b5f52601160045260245ffd5b9291505056fea2646970667358221220b5b121f1f75df905e0025a1ef8426a75a38b08189af955c1b93892cfe595a3a264736f6c63430008180033","linkReferences":{}},"methodIdentifiers":{"buy(uint256)":"d96a094a","cancel(uint256)":"40e58ee5","list(uint256,uint256)":"50fd7367","listings(uint256)":"de74e57b","nft()":"47ccca02"},"id":1}