{"abi":[{"type":"constructor","inputs":[{"name":"nftAddress","type":"address","internalType":"address"}],"stateMutability":"nonpayable"},{"type":"function","name":"acceptOffer","inputs":[{"name":"offerId","type":"uint256","internalType":"uint256"}],"outputs":[],"stateMutability":"nonpayable"},{"type":"function","name":"buy","inputs":[{"name":"tokenId","type":"uint256","internalType":"uint256"}],"outputs":[],"stateMutability":"payable"},{"type":"function","name":"buyNft","inputs":[{"name":"tokenId","type":"uint256","internalType":"uint256"}],"outputs":[],"stateMutability":"payable"},{"type":"function","name":"cancel","inputs":[{"name":"tokenId","type":"uint256","internalType":"uint256"}],"outputs":[],"stateMutability":"nonpayable"},{"type":"function","name":"cancelOffer","inputs":[{"name":"offerId","type":"uint256","internalType":"uint256"}],"outputs":[],"stateMutability":"nonpayable"},{"type":"function","name":"isOfferActive","inputs":[{"name":"offerId","type":"uint256","internalType":"uint256"}],"outputs":[{"name":"","type":"bool","internalType":"bool"}],"stateMutability":"view"},{"type":"function","name":"list","inputs":[{"name":"tokenId","type":"uint256","internalType":"uint256"},{"name":"price","type":"uint256","internalType":"uint256"}],"outputs":[],"stateMutability":"nonpayable"},{"type":"function","name":"listings","inputs":[{"name":"","type":"uint256","internalType":"uint256"}],"outputs":[{"name":"seller","type":"address","internalType":"address"},{"name":"price","type":"uint256","internalType":"uint256"},{"name":"active","type":"bool","internalType":"bool"}],"stateMutability":"view"},{"type":"function","name":"makeOffer","inputs":[{"name":"tokenId","type":"uint256","internalType":"uint256"},{"name":"amount","type":"uint256","internalType":"uint256"}],"outputs":[{"name":"offerId","type":"uint256","internalType":"uint256"}],"stateMutability":"payable"},{"type":"function","name":"makeOffer","inputs":[{"name":"tokenId","type":"uint256","internalType":"uint256"},{"name":"amount","type":"uint256","internalType":"uint256"},{"name":"deadline","type":"uint256","internalType":"uint256"}],"outputs":[{"name":"offerId","type":"uint256","internalType":"uint256"}],"stateMutability":"payable"},{"type":"function","name":"nextOfferId","inputs":[],"outputs":[{"name":"","type":"uint256","internalType":"uint256"}],"stateMutability":"view"},{"type":"function","name":"nft","inputs":[],"outputs":[{"name":"","type":"address","internalType":"contract IMarketNft"}],"stateMutability":"view"},{"type":"function","name":"offers","inputs":[{"name":"","type":"uint256","internalType":"uint256"}],"outputs":[{"name":"tokenId","type":"uint256","internalType":"uint256"},{"name":"buyer","type":"address","internalType":"address"},{"name":"amount","type":"uint256","internalType":"uint256"},{"name":"deadline","type":"uint256","internalType":"uint256"},{"name":"active","type":"bool","internalType":"bool"}],"stateMutability":"view"},{"type":"event","name":"Bought","inputs":[{"name":"tokenId","type":"uint256","indexed":true,"internalType":"uint256"},{"name":"buyer","type":"address","indexed":true,"internalType":"address"},{"name":"price","type":"uint256","indexed":false,"internalType":"uint256"}],"anonymous":false},{"type":"event","name":"Cancelled","inputs":[{"name":"tokenId","type":"uint256","indexed":true,"internalType":"uint256"}],"anonymous":false},{"type":"event","name":"Listed","inputs":[{"name":"tokenId","type":"uint256","indexed":true,"internalType":"uint256"},{"name":"seller","type":"address","indexed":true,"internalType":"address"},{"name":"price","type":"uint256","indexed":false,"internalType":"uint256"}],"anonymous":false},{"type":"event","name":"OfferAccepted","inputs":[{"name":"offerId","type":"uint256","indexed":true,"internalType":"uint256"},{"name":"tokenId","type":"uint256","indexed":true,"internalType":"uint256"},{"name":"buyer","type":"address","indexed":true,"internalType":"address"}],"anonymous":false},{"type":"event","name":"OfferCancelled","inputs":[{"name":"offerId","type":"uint256","indexed":true,"internalType":"uint256"}],"anonymous":false},{"type":"event","name":"OfferMade","inputs":[{"name":"offerId","type":"uint256","indexed":true,"internalType":"uint256"},{"name":"tokenId","type":"uint256","indexed":true,"internalType":"uint256"},{"name":"buyer","type":"address","indexed":true,"internalType":"address"},{"name":"amount","type":"uint256","indexed":false,"internalType":"uint256"},{"name":"deadline","type":"uint256","indexed":false,"internalType":"uint256"}],"anonymous":false},{"type":"error","name":"AlreadyListed","inputs":[{"name":"tokenId","type":"uint256","internalType":"uint256"}]},{"type":"error","name":"InsufficientPayment","inputs":[]},{"type":"error","name":"InvalidDeadline","inputs":[]},{"type":"error","name":"InvalidOfferAmount","inputs":[]},{"type":"error","name":"NotActive","inputs":[]},{"type":"error","name":"NotApproved","inputs":[]},{"type":"error","name":"NotOwner","inputs":[]},{"type":"error","name":"OfferExpired","inputs":[{"name":"offerId","type":"uint256","internalType":"uint256"}]},{"type":"error","name":"OfferNotActive","inputs":[{"name":"offerId","type":"uint256","internalType":"uint256"}]},{"type":"error","name":"OfferPaymentMismatch","inputs":[]},{"type":"error","name":"PaymentFailed","inputs":[]}],"bytecode":{"object":"0x60a060405234801561000f575f80fd5b506040516112b03803806112b083398101604081905261002e9161003f565b6001600160a01b031660805261006c565b5f6020828403121561004f575f80fd5b81516001600160a01b0381168114610065575f80fd5b9392505050565b6080516111fb6100b55f395f818161012e015281816104d2015281816105820152818161075c015281816108140152818161097301528181610dd30152610f3401526111fb5ff3fe6080604052600436106100bf575f3560e01c80635f5d06551161007c578063d96a094a11610057578063d96a094a146100e9578063de74e57b14610270578063e210a72d146102de578063ef706adf146102f1575f80fd5b80635f5d0655146101b65780638a72ea6a146101cb578063c815729d14610251575f80fd5b806305b7cdd3146100c3578063243adbdd146100e957806340e58ee5146100fe57806347ccca021461011d5780634f42db5c1461016857806350fd736714610197575b5f80fd5b6100d66100d13660046110c2565b610310565b6040519081526020015b60405180910390f35b6100fc6100f73660046110e2565b610324565b005b348015610109575f80fd5b506100fc6101183660046110e2565b610332565b348015610128575f80fd5b506101507f000000000000000000000000000000000000000000000000000000000000000081565b6040516001600160a01b0390911681526020016100e0565b348015610173575f80fd5b506101876101823660046110e2565b610411565b60405190151581526020016100e0565b3480156101a2575f80fd5b506100fc6101b13660046110c2565b610478565b3480156101c1575f80fd5b506100d660025481565b3480156101d6575f80fd5b5061021f6101e53660046110e2565b600160208190525f9182526040909120805491810154600282015460038301546004909301546001600160a01b0390921692909160ff1685565b604080519586526001600160a01b0390941660208601529284019190915260608301521515608082015260a0016100e0565b34801561025c575f80fd5b506100fc61026b3660046110e2565b6106a8565b34801561027b575f80fd5b506102b761028a3660046110e2565b5f602081905290815260409020805460018201546002909201546001600160a01b03909116919060ff1683565b604080516001600160a01b03909416845260208401929092521515908201526060016100e0565b6100d66102ec3660046110f9565b610a1f565b3480156102fc575f80fd5b506100fc61030b3660046110e2565b610a33565b5f61031d83835f19610bba565b9392505050565b61032f813334610cf1565b50565b5f8181526020818152604091829020825160608101845281546001600160a01b031681526001820154928101929092526002015460ff1615159181018290529061038f57604051634065aaf160e11b815260040160405180910390fd5b80516001600160a01b031633146103b9576040516330cd747160e01b815260040160405180910390fd5b5f8281526020819052604080822080546001600160a01b031916815560018101839055600201805460ff191690555183917fc41d93b8bfbf9fd7cf5bfe271fd649ab6a6fec0ea101c23b82a2a28eca2533a991a25050565b5f818152600160208181526040808420815160a08101835281548152938101546001600160a01b031692840192909252600282015490830152600381015460608301526004015460ff16158015608083018190529061031d57506060015142111592915050565b5f8281526020819052604090206002015460ff16156104b257604051637fbcdff960e01b8152600481018390526024015b60405180910390fd5b6040516331a9108f60e11b81526004810183905233906001600160a01b037f00000000000000000000000000000000000000000000000000000000000000001690636352211e90602401602060405180830381865afa158015610517573d5f803e3d5ffd5b505050506040513d601f19601f8201168201806040525081019061053b919061113d565b6001600160a01b031614610562576040516330cd747160e01b815260040160405180910390fd5b60405163020604bf60e21b81526004810183905230906001600160a01b037f0000000000000000000000000000000000000000000000000000000000000000169063081812fc90602401602060405180830381865afa1580156105c7573d5f803e3d5ffd5b505050506040513d601f19601f820116820180604052508101906105eb919061113d565b6001600160a01b0316146106125760405163c19f17a960e01b815260040160405180910390fd5b6040805160608101825233808252602080830185815260018486018181525f898152808552879020955186546001600160a01b0319166001600160a01b03909116178655915190850155516002909301805460ff191693151593909317909255915183815284917f50955776c5778c3b7d968d86d8c51fb6b29a7a74c20866b533268e209fc08343910160405180910390a35050565b5f81815260016020818152604092839020835160a08101855281548152928101546001600160a01b0316918301919091526002810154928201929092526003820154606082015260049091015460ff1615156080820181905261072157604051630e3dde1b60e11b8152600481018390526024016104a9565b4281606001511015610749576040516348e57f5f60e01b8152600481018390526024016104a9565b80516040516331a9108f60e11b815233917f00000000000000000000000000000000000000000000000000000000000000006001600160a01b031691636352211e9161079b9160040190815260200190565b602060405180830381865afa1580156107b6573d5f803e3d5ffd5b505050506040513d601f19601f820116820180604052508101906107da919061113d565b6001600160a01b031614610801576040516330cd747160e01b815260040160405180910390fd5b805160405163020604bf60e21b815230917f00000000000000000000000000000000000000000000000000000000000000006001600160a01b03169163081812fc916108539160040190815260200190565b602060405180830381865afa15801561086e573d5f803e3d5ffd5b505050506040513d601f19601f82011682018060405250810190610892919061113d565b6001600160a01b0316146108b95760405163c19f17a960e01b815260040160405180910390fd5b5f82815260016020818152604080842084815592830180546001600160a01b03191690556002808401859055600384018590556004909301805460ff191690558451845290839052909120015460ff161561093f5780515f90815260208190526040812080546001600160a01b03191681556001810191909155600201805460ff191690555b602081015181516040516323b872dd60e01b81523360048201526001600160a01b03928316602482015260448101919091527f0000000000000000000000000000000000000000000000000000000000000000909116906323b872dd906064015f604051808303815f87803b1580156109b6575f80fd5b505af11580156109c8573d5f803e3d5ffd5b505050506109de815f0151338360400151610f15565b602081015181516040516001600160a01b039092169184907fcb229072cbcd1d5410a56504f86a872c0eac1578c7eb4463ec190b52d3b669e2905f90a45050565b5f610a2b848484610bba565b949350505050565b5f81815260016020818152604092839020835160a08101855281548152928101546001600160a01b0316918301919091526002810154928201929092526003820154606082015260049091015460ff16151560808201819052610aac57604051630e3dde1b60e11b8152600481018390526024016104a9565b60208101516001600160a01b03163314610ad9576040516330cd747160e01b815260040160405180910390fd5b5f82815260016020818152604080842084815592830180546001600160a01b031916905560028301849055600383018490556004909201805460ff191690558301518382015191516001600160a01b0390911691908381818185875af1925050503d805f8114610b64576040519150601f19603f3d011682016040523d82523d5f602084013e610b69565b606091505b5050905080610b8b576040516307a4ced160e51b815260040160405180910390fd5b60405183907fc28b4aed030bfacc245c0501326e1beb8c0ef0d60e4edc21067fdeb52da2a7aa905f90a2505050565b5f825f03610bdb576040516308ff9e7760e41b815260040160405180910390fd5b823414610bfb57604051635dda57f960e01b815260040160405180910390fd5b428211610c1b57604051631da7447960e21b815260040160405180910390fd5b60025f8154610c299061116a565b91829055506040805160a081018252868152336020808301828152838501898152606085018981526001608087018181525f8a815282875289902097518855935190870180546001600160a01b0319166001600160a01b0390921691909117905590516002860155516003850155516004909301805460ff1916931515939093179092558251878152918201869052929350869184917f23b0047c5c1f392c454f858542ddfb8143e48945b1a00e247308d5eb97164bc4910160405180910390a49392505050565b5f8381526020818152604091829020825160608101845281546001600160a01b031681526001820154928101929092526002015460ff16151591810182905290610d4e57604051634065aaf160e11b815260040160405180910390fd5b8060200151821015610d735760405163cd1c886760e01b815260040160405180910390fd5b5f8481526020819052604080822080546001600160a01b031916815560018101929092556002909101805460ff19169055815190516323b872dd60e01b81526001600160a01b0391821660048201528482166024820152604481018690527f0000000000000000000000000000000000000000000000000000000000000000909116906323b872dd906064015f604051808303815f87803b158015610e16575f80fd5b505af1158015610e28573d5f803e3d5ffd5b50505050610e3e84825f01518360200151610f15565b8060200151821115610ec7575f836001600160a01b0316826020015184610e659190611182565b6040515f81818185875af1925050503d805f8114610e9e576040519150601f19603f3d011682016040523d82523d5f602084013e610ea3565b606091505b5050905080610ec5576040516307a4ced160e51b815260040160405180910390fd5b505b826001600160a01b0316847fd2728f908c7e0feb83c6278798370fcb86b62f236c9dbf1a3f541096c21590408360200151604051610f0791815260200190565b60405180910390a350505050565b60405163152a902d60e11b8152600481018490526024810182905281907f00000000000000000000000000000000000000000000000000000000000000006001600160a01b031690632a55205a906044016040805180830381865afa925050508015610f9e575060408051601f3d908101601f19168201909252610f9b9181019061119b565b60015b1561104b576001600160a01b03821615801590610fba57505f81115b156110485783811115610fca5750825b610fd48185611182565b92505f826001600160a01b0316826040515f6040518083038185875af1925050503d805f811461101f576040519150601f19603f3d011682016040523d82523d5f602084013e611024565b606091505b5050905080611046576040516307a4ced160e51b815260040160405180910390fd5b505b50505b5f836001600160a01b0316826040515f6040518083038185875af1925050503d805f8114611094576040519150601f19603f3d011682016040523d82523d5f602084013e611099565b606091505b50509050806110bb576040516307a4ced160e51b815260040160405180910390fd5b5050505050565b5f80604083850312156110d3575f80fd5b50508035926020909101359150565b5f602082840312156110f2575f80fd5b5035919050565b5f805f6060848603121561110b575f80fd5b505081359360208301359350604090920135919050565b80516001600160a01b0381168114611138575f80fd5b919050565b5f6020828403121561114d575f80fd5b61031d82611122565b634e487b7160e01b5f52601160045260245ffd5b5f6001820161117b5761117b611156565b5060010190565b8181038181111561119557611195611156565b92915050565b5f80604083850312156111ac575f80fd5b6111b583611122565b915060208301519050925092905056fea26469706673582212201fb1467b0bb697bca0630356ed01fd379b642d65b9da8c10a947fa925117fa8464736f6c63430008180033","linkReferences":{}},"methodIdentifiers":{"acceptOffer(uint256)":"c815729d","buy(uint256)":"d96a094a","buyNft(uint256)":"243adbdd","cancel(uint256)":"40e58ee5","cancelOffer(uint256)":"ef706adf","isOfferActive(uint256)":"4f42db5c","list(uint256,uint256)":"50fd7367","listings(uint256)":"de74e57b","makeOffer(uint256,uint256)":"05b7cdd3","makeOffer(uint256,uint256,uint256)":"e210a72d","nextOfferId()":"5f5d0655","nft()":"47ccca02","offers(uint256)":"8a72ea6a"},"id":1}