{"abi":[{"type":"constructor","inputs":[{"name":"nftAddress","type":"address","internalType":"address"}],"stateMutability":"nonpayable"},{"type":"function","name":"acceptOffer","inputs":[{"name":"offerId","type":"uint256","internalType":"uint256"}],"outputs":[],"stateMutability":"nonpayable"},{"type":"function","name":"buy","inputs":[{"name":"tokenId","type":"uint256","internalType":"uint256"}],"outputs":[],"stateMutability":"payable"},{"type":"function","name":"buyNft","inputs":[{"name":"tokenId","type":"uint256","internalType":"uint256"}],"outputs":[],"stateMutability":"payable"},{"type":"function","name":"cancel","inputs":[{"name":"tokenId","type":"uint256","internalType":"uint256"}],"outputs":[],"stateMutability":"nonpayable"},{"type":"function","name":"cancelOffer","inputs":[{"name":"offerId","type":"uint256","internalType":"uint256"}],"outputs":[],"stateMutability":"nonpayable"},{"type":"function","name":"isOfferActive","inputs":[{"name":"offerId","type":"uint256","internalType":"uint256"}],"outputs":[{"name":"","type":"bool","internalType":"bool"}],"stateMutability":"view"},{"type":"function","name":"list","inputs":[{"name":"tokenId","type":"uint256","internalType":"uint256"},{"name":"price","type":"uint256","internalType":"uint256"}],"outputs":[],"stateMutability":"nonpayable"},{"type":"function","name":"listings","inputs":[{"name":"","type":"uint256","internalType":"uint256"}],"outputs":[{"name":"seller","type":"address","internalType":"address"},{"name":"price","type":"uint256","internalType":"uint256"},{"name":"active","type":"bool","internalType":"bool"}],"stateMutability":"view"},{"type":"function","name":"makeOffer","inputs":[{"name":"tokenId","type":"uint256","internalType":"uint256"},{"name":"amount","type":"uint256","internalType":"uint256"}],"outputs":[{"name":"offerId","type":"uint256","internalType":"uint256"}],"stateMutability":"payable"},{"type":"function","name":"makeOffer","inputs":[{"name":"tokenId","type":"uint256","internalType":"uint256"},{"name":"amount","type":"uint256","internalType":"uint256"},{"name":"deadline","type":"uint256","internalType":"uint256"}],"outputs":[{"name":"offerId","type":"uint256","internalType":"uint256"}],"stateMutability":"payable"},{"type":"function","name":"nextOfferId","inputs":[],"outputs":[{"name":"","type":"uint256","internalType":"uint256"}],"stateMutability":"view"},{"type":"function","name":"nft","inputs":[],"outputs":[{"name":"","type":"address","internalType":"contract IMarketNft"}],"stateMutability":"view"},{"type":"function","name":"offers","inputs":[{"name":"","type":"uint256","internalType":"uint256"}],"outputs":[{"name":"tokenId","type":"uint256","internalType":"uint256"},{"name":"buyer","type":"address","internalType":"address"},{"name":"amount","type":"uint256","internalType":"uint256"},{"name":"deadline","type":"uint256","internalType":"uint256"},{"name":"active","type":"bool","internalType":"bool"}],"stateMutability":"view"},{"type":"function","name":"offersByToken","inputs":[{"name":"","type":"uint256","internalType":"uint256"},{"name":"","type":"uint256","internalType":"uint256"}],"outputs":[{"name":"","type":"uint256","internalType":"uint256"}],"stateMutability":"view"},{"type":"event","name":"Bought","inputs":[{"name":"tokenId","type":"uint256","indexed":true,"internalType":"uint256"},{"name":"buyer","type":"address","indexed":true,"internalType":"address"},{"name":"price","type":"uint256","indexed":false,"internalType":"uint256"}],"anonymous":false},{"type":"event","name":"Cancelled","inputs":[{"name":"tokenId","type":"uint256","indexed":true,"internalType":"uint256"}],"anonymous":false},{"type":"event","name":"Listed","inputs":[{"name":"tokenId","type":"uint256","indexed":true,"internalType":"uint256"},{"name":"seller","type":"address","indexed":true,"internalType":"address"},{"name":"price","type":"uint256","indexed":false,"internalType":"uint256"}],"anonymous":false},{"type":"event","name":"OfferAccepted","inputs":[{"name":"offerId","type":"uint256","indexed":true,"internalType":"uint256"},{"name":"tokenId","type":"uint256","indexed":true,"internalType":"uint256"},{"name":"buyer","type":"address","indexed":true,"internalType":"address"}],"anonymous":false},{"type":"event","name":"OfferCancelled","inputs":[{"name":"offerId","type":"uint256","indexed":true,"internalType":"uint256"}],"anonymous":false},{"type":"event","name":"OfferMade","inputs":[{"name":"offerId","type":"uint256","indexed":true,"internalType":"uint256"},{"name":"tokenId","type":"uint256","indexed":true,"internalType":"uint256"},{"name":"buyer","type":"address","indexed":true,"internalType":"address"},{"name":"amount","type":"uint256","indexed":false,"internalType":"uint256"},{"name":"deadline","type":"uint256","indexed":false,"internalType":"uint256"}],"anonymous":false},{"type":"error","name":"AlreadyListed","inputs":[{"name":"tokenId","type":"uint256","internalType":"uint256"}]},{"type":"error","name":"InsufficientPayment","inputs":[]},{"type":"error","name":"InvalidDeadline","inputs":[]},{"type":"error","name":"InvalidOfferAmount","inputs":[]},{"type":"error","name":"NotActive","inputs":[]},{"type":"error","name":"NotApproved","inputs":[]},{"type":"error","name":"NotOwner","inputs":[]},{"type":"error","name":"OfferExpired","inputs":[{"name":"offerId","type":"uint256","internalType":"uint256"}]},{"type":"error","name":"OfferNotActive","inputs":[{"name":"offerId","type":"uint256","internalType":"uint256"}]},{"type":"error","name":"OfferPaymentMismatch","inputs":[]},{"type":"error","name":"PaymentFailed","inputs":[]}],"bytecode":{"object":"0x60a060405234801561000f575f80fd5b5060405161155b38038061155b83398101604081905261002e9161003f565b6001600160a01b031660805261006c565b5f6020828403121561004f575f80fd5b81516001600160a01b0381168114610065575f80fd5b9392505050565b6080516114a66100b55f395f81816101480152818161050b015281816105bb015281816107c001528181610878015281816109e301528181610e6c015261119d01526114a65ff3fe6080604052600436106100d9575f3560e01c80638a72ea6a1161007c578063d96a094a11610057578063d96a094a14610103578063de74e57b146102a9578063e210a72d14610317578063ef706adf1461032a575f80fd5b80638a72ea6a146101e5578063b33a70c61461026b578063c815729d1461028a575f80fd5b806347ccca02116100b757806347ccca02146101375780634f42db5c1461018257806350fd7367146101b15780635f5d0655146101d0575f80fd5b806305b7cdd3146100dd578063243adbdd1461010357806340e58ee514610118575b5f80fd5b6100f06100eb366004611359565b610349565b6040519081526020015b60405180910390f35b610116610111366004611379565b61035d565b005b348015610123575f80fd5b50610116610132366004611379565b61036b565b348015610142575f80fd5b5061016a7f000000000000000000000000000000000000000000000000000000000000000081565b6040516001600160a01b0390911681526020016100fa565b34801561018d575f80fd5b506101a161019c366004611379565b61044a565b60405190151581526020016100fa565b3480156101bc575f80fd5b506101166101cb366004611359565b6104b1565b3480156101db575f80fd5b506100f060035481565b3480156101f0575f80fd5b506102396101ff366004611379565b600160208190525f9182526040909120805491810154600282015460038301546004909301546001600160a01b0390921692909160ff1685565b604080519586526001600160a01b0390941660208601529284019190915260608301521515608082015260a0016100fa565b348015610276575f80fd5b506100f0610285366004611359565b6106e1565b348015610295575f80fd5b506101166102a4366004611379565b61070c565b3480156102b4575f80fd5b506102f06102c3366004611379565b5f602081905290815260409020805460018201546002909201546001600160a01b03909116919060ff1683565b604080516001600160a01b03909416845260208401929092521515908201526060016100fa565b6100f0610325366004611390565b610a8f565b348015610335575f80fd5b50610116610344366004611379565b610aa3565b5f61035683835f19610c2a565b9392505050565b610368813334610d82565b50565b5f8181526020818152604091829020825160608101845281546001600160a01b031681526001820154928101929092526002015460ff161515918101829052906103c857604051634065aaf160e11b815260040160405180910390fd5b80516001600160a01b031633146103f2576040516330cd747160e01b815260040160405180910390fd5b5f8281526020819052604080822080546001600160a01b031916815560018101839055600201805460ff191690555183917fc41d93b8bfbf9fd7cf5bfe271fd649ab6a6fec0ea101c23b82a2a28eca2533a991a25050565b5f818152600160208181526040808420815160a08101835281548152938101546001600160a01b031692840192909252600282015490830152600381015460608301526004015460ff16158015608083018190529061035657506060015142111592915050565b5f8281526020819052604090206002015460ff16156104eb57604051637fbcdff960e01b8152600481018390526024015b60405180910390fd5b6040516331a9108f60e11b81526004810183905233906001600160a01b037f00000000000000000000000000000000000000000000000000000000000000001690636352211e90602401602060405180830381865afa158015610550573d5f803e3d5ffd5b505050506040513d601f19601f8201168201806040525081019061057491906113d4565b6001600160a01b03161461059b576040516330cd747160e01b815260040160405180910390fd5b60405163020604bf60e21b81526004810183905230906001600160a01b037f0000000000000000000000000000000000000000000000000000000000000000169063081812fc90602401602060405180830381865afa158015610600573d5f803e3d5ffd5b505050506040513d601f19601f8201168201806040525081019061062491906113d4565b6001600160a01b03161461064b5760405163c19f17a960e01b815260040160405180910390fd5b6040805160608101825233808252602080830185815260018486018181525f898152808552879020955186546001600160a01b0319166001600160a01b03909116178655915190850155516002909301805460ff191693151593909317909255915183815284917f50955776c5778c3b7d968d86d8c51fb6b29a7a74c20866b533268e209fc08343910160405180910390a35050565b6002602052815f5260405f2081815481106106fa575f80fd5b905f5260205f20015f91509150505481565b5f81815260016020818152604092839020835160a08101855281548152928101546001600160a01b0316918301919091526002810154928201929092526003820154606082015260049091015460ff1615156080820181905261078557604051630e3dde1b60e11b8152600481018390526024016104e2565b42816060015110156107ad576040516348e57f5f60e01b8152600481018390526024016104e2565b80516040516331a9108f60e11b815233917f00000000000000000000000000000000000000000000000000000000000000006001600160a01b031691636352211e916107ff9160040190815260200190565b602060405180830381865afa15801561081a573d5f803e3d5ffd5b505050506040513d601f19601f8201168201806040525081019061083e91906113d4565b6001600160a01b031614610865576040516330cd747160e01b815260040160405180910390fd5b805160405163020604bf60e21b815230917f00000000000000000000000000000000000000000000000000000000000000006001600160a01b03169163081812fc916108b79160040190815260200190565b602060405180830381865afa1580156108d2573d5f803e3d5ffd5b505050506040513d601f19601f820116820180604052508101906108f691906113d4565b6001600160a01b03161461091d5760405163c19f17a960e01b815260040160405180910390fd5b5f82815260016020818152604080842084815592830180546001600160a01b03191690556002808401859055600384018590556004909301805460ff191690558451845290839052909120015460ff16156109a35780515f90815260208190526040812080546001600160a01b03191681556001810191909155600201805460ff191690555b80516109af9083610fae565b602081015181516040516323b872dd60e01b81523360048201526001600160a01b03928316602482015260448101919091527f0000000000000000000000000000000000000000000000000000000000000000909116906323b872dd906064015f604051808303815f87803b158015610a26575f80fd5b505af1158015610a38573d5f803e3d5ffd5b50505050610a4e815f015133836040015161117e565b602081015181516040516001600160a01b039092169184907fcb229072cbcd1d5410a56504f86a872c0eac1578c7eb4463ec190b52d3b669e2905f90a45050565b5f610a9b848484610c2a565b949350505050565b5f81815260016020818152604092839020835160a08101855281548152928101546001600160a01b0316918301919091526002810154928201929092526003820154606082015260049091015460ff16151560808201819052610b1c57604051630e3dde1b60e11b8152600481018390526024016104e2565b60208101516001600160a01b03163314610b49576040516330cd747160e01b815260040160405180910390fd5b5f82815260016020818152604080842084815592830180546001600160a01b031916905560028301849055600383018490556004909201805460ff191690558301518382015191516001600160a01b0390911691908381818185875af1925050503d805f8114610bd4576040519150601f19603f3d011682016040523d82523d5f602084013e610bd9565b606091505b5050905080610bfb576040516307a4ced160e51b815260040160405180910390fd5b60405183907fc28b4aed030bfacc245c0501326e1beb8c0ef0d60e4edc21067fdeb52da2a7aa905f90a2505050565b5f825f03610c4b576040516308ff9e7760e41b815260040160405180910390fd5b823414610c6b57604051635dda57f960e01b815260040160405180910390fd5b428211610c8b57604051631da7447960e21b815260040160405180910390fd5b60035f8154610c9990611401565b91829055506040805160a081018252868152336020808301828152838501898152606085018981526001608087018181525f8a815282875289812098518955945188830180546001600160a01b0319166001600160a01b0390921691909117905592516002808901919091559151600388015591516004909601805460ff1916961515969096179095558a82529382528481208054948501815581528190209092018490558251878152918201869052929350869184917f23b0047c5c1f392c454f858542ddfb8143e48945b1a00e247308d5eb97164bc4910160405180910390a49392505050565b5f8381526020818152604091829020825160608101845281546001600160a01b031681526001820154928101929092526002015460ff16151591810182905290610ddf57604051634065aaf160e11b815260040160405180910390fd5b8060200151821015610e045760405163cd1c886760e01b815260040160405180910390fd5b5f84815260208190526040812080546001600160a01b031916815560018101829055600201805460ff19169055610e3c908590610fae565b80516040516323b872dd60e01b81526001600160a01b0391821660048201528482166024820152604481018690527f0000000000000000000000000000000000000000000000000000000000000000909116906323b872dd906064015f604051808303815f87803b158015610eaf575f80fd5b505af1158015610ec1573d5f803e3d5ffd5b50505050610ed784825f0151836020015161117e565b8060200151821115610f60575f836001600160a01b0316826020015184610efe9190611419565b6040515f81818185875af1925050503d805f8114610f37576040519150601f19603f3d011682016040523d82523d5f602084013e610f3c565b606091505b5050905080610f5e576040516307a4ced160e51b815260040160405180910390fd5b505b826001600160a01b0316847fd2728f908c7e0feb83c6278798370fcb86b62f236c9dbf1a3f541096c21590408360200151604051610fa091815260200190565b60405180910390a350505050565b5f8281526002602090815260408083208054825181850281018501909352808352919290919083018282801561100157602002820191905f5260205f20905b815481526020019060010190808311610fed575b5050505f868152600260205260408120939450611021939250905061132b565b5f5b8151811015611178575f82828151811061103f5761103f611432565b602002602001015190508381036110565750611170565b5f81815260016020818152604092839020835160a08101855281548152928101546001600160a01b0316918301919091526002810154928201929092526003820154606082015260049091015460ff161515608082018190526110ba575050611170565b5f82815260016020818152604080842084815592830180546001600160a01b031916905560028301849055600383018490556004909201805460ff191690558301518382015191516001600160a01b0390911691908381818185875af1925050503d805f8114611145576040519150601f19603f3d011682016040523d82523d5f602084013e61114a565b606091505b505090508061116c576040516307a4ced160e51b815260040160405180910390fd5b5050505b600101611023565b50505050565b60405163152a902d60e11b8152600481018490526024810182905281907f00000000000000000000000000000000000000000000000000000000000000006001600160a01b031690632a55205a906044016040805180830381865afa925050508015611207575060408051601f3d908101601f1916820190925261120491810190611446565b60015b156112b4576001600160a01b0382161580159061122357505f81115b156112b157838111156112335750825b61123d8185611419565b92505f826001600160a01b0316826040515f6040518083038185875af1925050503d805f8114611288576040519150601f19603f3d011682016040523d82523d5f602084013e61128d565b606091505b50509050806112af576040516307a4ced160e51b815260040160405180910390fd5b505b50505b5f836001600160a01b0316826040515f6040518083038185875af1925050503d805f81146112fd576040519150601f19603f3d011682016040523d82523d5f602084013e611302565b606091505b5050905080611324576040516307a4ced160e51b815260040160405180910390fd5b5050505050565b5080545f8255905f5260205f209081019061036891905b80821115611355575f8155600101611342565b5090565b5f806040838503121561136a575f80fd5b50508035926020909101359150565b5f60208284031215611389575f80fd5b5035919050565b5f805f606084860312156113a2575f80fd5b505081359360208301359350604090920135919050565b80516001600160a01b03811681146113cf575f80fd5b919050565b5f602082840312156113e4575f80fd5b610356826113b9565b634e487b7160e01b5f52601160045260245ffd5b5f60018201611412576114126113ed565b5060010190565b8181038181111561142c5761142c6113ed565b92915050565b634e487b7160e01b5f52603260045260245ffd5b5f8060408385031215611457575f80fd5b611460836113b9565b915060208301519050925092905056fea2646970667358221220d0bda2ab91b85818c4c6f1d49b41f40cb8cbd3ba2bc2de6fe7899c5f904f1ff764736f6c63430008180033","linkReferences":{}},"methodIdentifiers":{"acceptOffer(uint256)":"c815729d","buy(uint256)":"d96a094a","buyNft(uint256)":"243adbdd","cancel(uint256)":"40e58ee5","cancelOffer(uint256)":"ef706adf","isOfferActive(uint256)":"4f42db5c","list(uint256,uint256)":"50fd7367","listings(uint256)":"de74e57b","makeOffer(uint256,uint256)":"05b7cdd3","makeOffer(uint256,uint256,uint256)":"e210a72d","nextOfferId()":"5f5d0655","nft()":"47ccca02","offers(uint256)":"8a72ea6a","offersByToken(uint256,uint256)":"b33a70c6"},"id":1}