{"abi":[{"type":"constructor","inputs":[{"name":"a","type":"address","internalType":"address"},{"name":"b","type":"address","internalType":"address"}],"stateMutability":"nonpayable"},{"type":"function","name":"swapAforB","inputs":[{"name":"amountIn","type":"uint256","internalType":"uint256"},{"name":"minOutputAmount","type":"uint256","internalType":"uint256"}],"outputs":[{"name":"","type":"uint256","internalType":"uint256"}],"stateMutability":"nonpayable"},{"type":"function","name":"swapAforB","inputs":[{"name":"amountIn","type":"uint256","internalType":"uint256"}],"outputs":[{"name":"","type":"uint256","internalType":"uint256"}],"stateMutability":"nonpayable"},{"type":"function","name":"tokenA","inputs":[],"outputs":[{"name":"","type":"address","internalType":"contract IErc20"}],"stateMutability":"view"},{"type":"function","name":"tokenB","inputs":[],"outputs":[{"name":"","type":"address","internalType":"contract IErc20"}],"stateMutability":"view"},{"type":"event","name":"Swapped","inputs":[{"name":"user","type":"address","indexed":true,"internalType":"address"},{"name":"amountIn","type":"uint256","indexed":false,"internalType":"uint256"},{"name":"amountOut","type":"uint256","indexed":false,"internalType":"uint256"}],"anonymous":false},{"type":"error","name":"InsufficientLiquidity","inputs":[{"name":"amountOut","type":"uint256","internalType":"uint256"},{"name":"availableLiquidity","type":"uint256","internalType":"uint256"}]},{"type":"error","name":"SlippageExceeded","inputs":[{"name":"amountOut","type":"uint256","internalType":"uint256"},{"name":"minOutputAmount","type":"uint256","internalType":"uint256"}]},{"type":"error","name":"TransferInFailed","inputs":[]},{"type":"error","name":"TransferOutFailed","inputs":[]}],"bytecode":{"object":"0x60c060405234801561000f575f80fd5b506040516104f53803806104f583398101604081905261002e91610060565b6001600160a01b039182166080521660a052610091565b80516001600160a01b038116811461005b575f80fd5b919050565b5f8060408385031215610071575f80fd5b61007a83610045565b915061008860208401610045565b90509250929050565b60805160a0516104306100c55f395f818160b80152818161010801526102a301525f8181605301526101f801526104305ff3fe608060405234801561000f575f80fd5b506004361061004a575f3560e01c80630fc63d101461004e578063140e6247146100925780635f64b55b146100b3578063e4f1f70a146100da575b5f80fd5b6100757f000000000000000000000000000000000000000000000000000000000000000081565b6040516001600160a01b0390911681526020015b60405180910390f35b6100a56100a0366004610386565b6100ed565b604051908152602001610089565b6100757f000000000000000000000000000000000000000000000000000000000000000081565b6100a56100e83660046103a6565b610375565b6040516370a0823160e01b81523060048201525f90839082907f00000000000000000000000000000000000000000000000000000000000000006001600160a01b0316906370a0823190602401602060405180830381865afa158015610155573d5f803e3d5ffd5b505050506040513d601f19601f8201168201806040525081019061017991906103bd565b9050818110156101ab5760405163a17e11d560e01b815260048101839052602481018290526044015b60405180910390fd5b838210156101d6576040516371c4efed60e01b815260048101839052602481018590526044016101a2565b6040516323b872dd60e01b8152336004820152306024820152604481018690527f00000000000000000000000000000000000000000000000000000000000000006001600160a01b0316906323b872dd906064016020604051808303815f875af1158015610246573d5f803e3d5ffd5b505050506040513d601f19601f8201168201806040525081019061026a91906103d4565b6102875760405163073d1efd60e51b815260040160405180910390fd5b60405163a9059cbb60e01b8152336004820152602481018390527f00000000000000000000000000000000000000000000000000000000000000006001600160a01b03169063a9059cbb906044016020604051808303815f875af11580156102f1573d5f803e3d5ffd5b505050506040513d601f19601f8201168201806040525081019061031591906103d4565b6103325760405163cefaffeb60e01b815260040160405180910390fd5b604080518681526020810184905233917f3a9a9f34f5831e9c8ecb66ab3aa308b2ff31eaca434615f6c9cadc656a9af71c910160405180910390a2509392505050565b5f610380825f6100ed565b92915050565b5f8060408385031215610397575f80fd5b50508035926020909101359150565b5f602082840312156103b6575f80fd5b5035919050565b5f602082840312156103cd575f80fd5b5051919050565b5f602082840312156103e4575f80fd5b815180151581146103f3575f80fd5b939250505056fea26469706673582212204bfa3451f707a3a5270b3f1d2eef509223672ebf4f74a7bfceb0fad87fd38a3b64736f6c63430008180033","linkReferences":{}},"methodIdentifiers":{"swapAforB(uint256)":"e4f1f70a","swapAforB(uint256,uint256)":"140e6247","tokenA()":"0fc63d10","tokenB()":"5f64b55b"},"id":0}