{"abi":[{"type":"constructor","inputs":[{"name":"a","type":"address","internalType":"address"},{"name":"b","type":"address","internalType":"address"}],"stateMutability":"nonpayable"},{"type":"function","name":"swapAforB","inputs":[{"name":"amountIn","type":"uint256","internalType":"uint256"},{"name":"minOutputAmount","type":"uint256","internalType":"uint256"}],"outputs":[],"stateMutability":"nonpayable"},{"type":"function","name":"tokenA","inputs":[],"outputs":[{"name":"","type":"address","internalType":"contract IErc20"}],"stateMutability":"view"},{"type":"function","name":"tokenB","inputs":[],"outputs":[{"name":"","type":"address","internalType":"contract IErc20"}],"stateMutability":"view"},{"type":"event","name":"Swapped","inputs":[{"name":"user","type":"address","indexed":true,"internalType":"address"},{"name":"amountIn","type":"uint256","indexed":false,"internalType":"uint256"},{"name":"amountOut","type":"uint256","indexed":false,"internalType":"uint256"}],"anonymous":false},{"type":"error","name":"InsufficientLiquidity","inputs":[{"name":"amountOut","type":"uint256","internalType":"uint256"},{"name":"availableLiquidity","type":"uint256","internalType":"uint256"}]},{"type":"error","name":"SlippageExceeded","inputs":[{"name":"amountOut","type":"uint256","internalType":"uint256"},{"name":"minOutputAmount","type":"uint256","internalType":"uint256"}]},{"type":"error","name":"TransferInFailed","inputs":[]},{"type":"error","name":"TransferOutFailed","inputs":[]}],"bytecode":{"object":"0x60c060405234801561000f575f80fd5b5060405161049d38038061049d83398101604081905261002e91610060565b6001600160a01b039182166080521660a052610091565b80516001600160a01b038116811461005b575f80fd5b919050565b5f8060408385031215610071575f80fd5b61007a83610045565b915061008860208401610045565b90509250929050565b60805160a0516103d96100c45f395f818160a00152818160db015261027601525f8181604801526101cb01526103d95ff3fe608060405234801561000f575f80fd5b506004361061003f575f3560e01c80630fc63d1014610043578063140e6247146100865780635f64b55b1461009b575b5f80fd5b61006a7f000000000000000000000000000000000000000000000000000000000000000081565b6040516001600160a01b03909116815260200160405180910390f35b610099610094366004610346565b6100c2565b005b61006a7f000000000000000000000000000000000000000000000000000000000000000081565b6040516370a0823160e01b815230600482015282905f907f00000000000000000000000000000000000000000000000000000000000000006001600160a01b0316906370a0823190602401602060405180830381865afa158015610128573d5f803e3d5ffd5b505050506040513d601f19601f8201168201806040525081019061014c9190610366565b90508181101561017e5760405163a17e11d560e01b815260048101839052602481018290526044015b60405180910390fd5b828210156101a9576040516371c4efed60e01b81526004810183905260248101849052604401610175565b6040516323b872dd60e01b8152336004820152306024820152604481018590527f00000000000000000000000000000000000000000000000000000000000000006001600160a01b0316906323b872dd906064016020604051808303815f875af1158015610219573d5f803e3d5ffd5b505050506040513d601f19601f8201168201806040525081019061023d919061037d565b61025a5760405163073d1efd60e51b815260040160405180910390fd5b60405163a9059cbb60e01b8152336004820152602481018390527f00000000000000000000000000000000000000000000000000000000000000006001600160a01b03169063a9059cbb906044016020604051808303815f875af11580156102c4573d5f803e3d5ffd5b505050506040513d601f19601f820116820180604052508101906102e8919061037d565b6103055760405163cefaffeb60e01b815260040160405180910390fd5b604080518581526020810184905233917f3a9a9f34f5831e9c8ecb66ab3aa308b2ff31eaca434615f6c9cadc656a9af71c910160405180910390a250505050565b5f8060408385031215610357575f80fd5b50508035926020909101359150565b5f60208284031215610376575f80fd5b5051919050565b5f6020828403121561038d575f80fd5b8151801515811461039c575f80fd5b939250505056fea2646970667358221220e01f28bb30fe93ce1cc8d3be6855ebd2a45869e8d0eda76662753a2f2a14980864736f6c63430008180033","linkReferences":{}},"methodIdentifiers":{"swapAforB(uint256,uint256)":"140e6247","tokenA()":"0fc63d10","tokenB()":"5f64b55b"},"id":0}