{"abi":[{"type":"constructor","inputs":[{"name":"a","type":"address","internalType":"address"},{"name":"b","type":"address","internalType":"address"}],"stateMutability":"nonpayable"},{"type":"function","name":"swapAforB","inputs":[{"name":"amountIn","type":"uint256","internalType":"uint256"}],"outputs":[],"stateMutability":"nonpayable"},{"type":"function","name":"tokenA","inputs":[],"outputs":[{"name":"","type":"address","internalType":"contract IErc20"}],"stateMutability":"view"},{"type":"function","name":"tokenB","inputs":[],"outputs":[{"name":"","type":"address","internalType":"contract IErc20"}],"stateMutability":"view"},{"type":"event","name":"Swapped","inputs":[{"name":"user","type":"address","indexed":true,"internalType":"address"},{"name":"amountIn","type":"uint256","indexed":false,"internalType":"uint256"},{"name":"amountOut","type":"uint256","indexed":false,"internalType":"uint256"}],"anonymous":false},{"type":"error","name":"TransferInFailed","inputs":[]},{"type":"error","name":"TransferOutFailed","inputs":[]}],"bytecode":{"object":"0x60c060405234801561000f575f80fd5b5060405161038c38038061038c83398101604081905261002e91610060565b6001600160a01b039182166080521660a052610091565b80516001600160a01b038116811461005b575f80fd5b919050565b5f8060408385031215610071575f80fd5b61007a83610045565b915061008860208401610045565b90509250929050565b60805160a0516102cf6100bd5f395f8181608b015261018f01525f81816048015260e401526102cf5ff3fe608060405234801561000f575f80fd5b506004361061003f575f3560e01c80630fc63d10146100435780635f64b55b14610086578063e4f1f70a146100ad575b5f80fd5b61006a7f000000000000000000000000000000000000000000000000000000000000000081565b6040516001600160a01b03909116815260200160405180910390f35b61006a7f000000000000000000000000000000000000000000000000000000000000000081565b6100c06100bb36600461025c565b6100c2565b005b6040516323b872dd60e01b8152336004820152306024820152604481018290527f00000000000000000000000000000000000000000000000000000000000000006001600160a01b0316906323b872dd906064016020604051808303815f875af1158015610132573d5f803e3d5ffd5b505050506040513d601f19601f820116820180604052508101906101569190610273565b6101735760405163073d1efd60e51b815260040160405180910390fd5b60405163a9059cbb60e01b8152336004820152602481018290527f00000000000000000000000000000000000000000000000000000000000000006001600160a01b03169063a9059cbb906044016020604051808303815f875af11580156101dd573d5f803e3d5ffd5b505050506040513d601f19601f820116820180604052508101906102019190610273565b61021e5760405163cefaffeb60e01b815260040160405180910390fd5b604080518281526020810183905233917f3a9a9f34f5831e9c8ecb66ab3aa308b2ff31eaca434615f6c9cadc656a9af71c910160405180910390a250565b5f6020828403121561026c575f80fd5b5035919050565b5f60208284031215610283575f80fd5b81518015158114610292575f80fd5b939250505056fea26469706673582212208a5f2236251ea9de545fff91d73f2592059c8dc297a307dfff402cfa22a1511664736f6c63430008180033","linkReferences":{}},"methodIdentifiers":{"swapAforB(uint256)":"e4f1f70a","tokenA()":"0fc63d10","tokenB()":"5f64b55b"},"id":0}