{"abi":[{"type":"constructor","inputs":[{"name":"n","type":"string","internalType":"string"},{"name":"s","type":"string","internalType":"string"},{"name":"initialSupply","type":"uint256","internalType":"uint256"},{"name":"recipient","type":"address","internalType":"address"},{"name":"minter_","type":"address","internalType":"address"}],"stateMutability":"nonpayable"},{"type":"function","name":"balanceOf","inputs":[{"name":"","type":"address","internalType":"address"}],"outputs":[{"name":"","type":"uint256","internalType":"uint256"}],"stateMutability":"view"},{"type":"function","name":"decimals","inputs":[],"outputs":[{"name":"","type":"uint8","internalType":"uint8"}],"stateMutability":"view"},{"type":"function","name":"mint","inputs":[{"name":"to","type":"address","internalType":"address"},{"name":"value","type":"uint256","internalType":"uint256"}],"outputs":[],"stateMutability":"nonpayable"},{"type":"function","name":"minter","inputs":[],"outputs":[{"name":"","type":"address","internalType":"address"}],"stateMutability":"view"},{"type":"function","name":"name","inputs":[],"outputs":[{"name":"","type":"string","internalType":"string"}],"stateMutability":"view"},{"type":"function","name":"symbol","inputs":[],"outputs":[{"name":"","type":"string","internalType":"string"}],"stateMutability":"view"},{"type":"function","name":"totalSupply","inputs":[],"outputs":[{"name":"","type":"uint256","internalType":"uint256"}],"stateMutability":"view"},{"type":"function","name":"transfer","inputs":[{"name":"to","type":"address","internalType":"address"},{"name":"value","type":"uint256","internalType":"uint256"}],"outputs":[{"name":"","type":"bool","internalType":"bool"}],"stateMutability":"nonpayable"},{"type":"event","name":"Mint","inputs":[{"name":"to","type":"address","indexed":true,"internalType":"address"},{"name":"value","type":"uint256","indexed":false,"internalType":"uint256"}],"anonymous":false},{"type":"event","name":"Transfer","inputs":[{"name":"from","type":"address","indexed":true,"internalType":"address"},{"name":"to","type":"address","indexed":true,"internalType":"address"},{"name":"value","type":"uint256","indexed":false,"internalType":"uint256"}],"anonymous":false},{"type":"error","name":"NotMinter","inputs":[]}],"bytecode":{"object":"0x60a060405234801562000010575f80fd5b50604051620008f5380380620008f583398101604081905262000033916200018f565b5f620000408682620002ac565b5060016200004f8582620002ac565b5060028390556001600160a01b0381811660805282165f818152600360209081526040808320879055518681527fddf252ad1be2c89b69c2b068fc378daa952ba7f163c4a11628f55a4df523b3ef910160405180910390a3505050505062000378565b634e487b7160e01b5f52604160045260245ffd5b5f82601f830112620000d6575f80fd5b81516001600160401b0380821115620000f357620000f3620000b2565b604051601f8301601f19908116603f011681019082821181831017156200011e576200011e620000b2565b81604052838152602092508660208588010111156200013b575f80fd5b5f91505b838210156200015e57858201830151818301840152908201906200013f565b5f602085830101528094505050505092915050565b80516001600160a01b03811681146200018a575f80fd5b919050565b5f805f805f60a08688031215620001a4575f80fd5b85516001600160401b0380821115620001bb575f80fd5b620001c989838a01620000c6565b96506020880151915080821115620001df575f80fd5b50620001ee88828901620000c6565b94505060408601519250620002066060870162000173565b9150620002166080870162000173565b90509295509295909350565b600181811c908216806200023757607f821691505b6020821081036200025657634e487b7160e01b5f52602260045260245ffd5b50919050565b601f821115620002a757805f5260205f20601f840160051c81016020851015620002835750805b601f840160051c820191505b81811015620002a4575f81556001016200028f565b50505b505050565b81516001600160401b03811115620002c857620002c8620000b2565b620002e081620002d9845462000222565b846200025c565b602080601f83116001811462000316575f8415620002fe5750858301515b5f19600386901b1c1916600185901b17855562000370565b5f85815260208120601f198616915b82811015620003465788860151825594840194600190910190840162000325565b50858210156200036457878501515f19600388901b60f8161c191681555b505060018460011b0185555b505050505050565b60805161055e620003975f395f818160ac015261020c015261055e5ff3fe608060405234801561000f575f80fd5b5060043610610085575f3560e01c806340c10f191161005857806340c10f191461011757806370a082311461012c57806395d89b411461014b578063a9059cbb14610153575f80fd5b806306fdde031461008957806307546172146100a757806318160ddd146100e6578063313ce567146100fd575b5f80fd5b610091610176565b60405161009e9190610407565b60405180910390f35b6100ce7f000000000000000000000000000000000000000000000000000000000000000081565b6040516001600160a01b03909116815260200161009e565b6100ef60025481565b60405190815260200161009e565b610105601281565b60405160ff909116815260200161009e565b61012a61012536600461046e565b610201565b005b6100ef61013a366004610496565b60036020525f908152604090205481565b610091610310565b61016661016136600461046e565b61031d565b604051901515815260200161009e565b5f8054610182906104b6565b80601f01602080910402602001604051908101604052809291908181526020018280546101ae906104b6565b80156101f95780601f106101d0576101008083540402835291602001916101f9565b820191905f5260205f20905b8154815290600101906020018083116101dc57829003601f168201915b505050505081565b336001600160a01b037f0000000000000000000000000000000000000000000000000000000000000000161461024a57604051633e34a41b60e21b815260040160405180910390fd5b6001600160a01b0382165f9081526003602052604081208054839290610271908490610502565b925050819055508060025f8282546102899190610502565b90915550506040518181526001600160a01b038316907f0f6798a560793a54c3bcfe86a93cde1e73087d944c0ea20544137d41213968859060200160405180910390a26040518181526001600160a01b038316905f907fddf252ad1be2c89b69c2b068fc378daa952ba7f163c4a11628f55a4df523b3ef9060200160405180910390a35050565b60018054610182906104b6565b335f9081526003602052604081205482111561036e5760405162461bcd60e51b815260206004820152600c60248201526b1a5b9cdd59999a58da595b9d60a21b604482015260640160405180910390fd5b335f908152600360205260408120805484929061038c908490610515565b90915550506001600160a01b0383165f90815260036020526040812080548492906103b8908490610502565b90915550506040518281526001600160a01b0384169033907fddf252ad1be2c89b69c2b068fc378daa952ba7f163c4a11628f55a4df523b3ef9060200160405180910390a35060015b92915050565b5f602080835283518060208501525f5b8181101561043357858101830151858201604001528201610417565b505f604082860101526040601f19601f8301168501019250505092915050565b80356001600160a01b0381168114610469575f80fd5b919050565b5f806040838503121561047f575f80fd5b61048883610453565b946020939093013593505050565b5f602082840312156104a6575f80fd5b6104af82610453565b9392505050565b600181811c908216806104ca57607f821691505b6020821081036104e857634e487b7160e01b5f52602260045260245ffd5b50919050565b634e487b7160e01b5f52601160045260245ffd5b80820180821115610401576104016104ee565b81810381811115610401576104016104ee56fea26469706673582212209e5dfc953c988b25a8c75b3e85ae2d9eaf0bef447ffaf20d840a61d04d32422464736f6c63430008180033","linkReferences":{}},"methodIdentifiers":{"balanceOf(address)":"70a08231","decimals()":"313ce567","mint(address,uint256)":"40c10f19","minter()":"07546172","name()":"06fdde03","symbol()":"95d89b41","totalSupply()":"18160ddd","transfer(address,uint256)":"a9059cbb"},"id":0}