{"abi":[{"type":"constructor","inputs":[{"name":"n","type":"string","internalType":"string"},{"name":"s","type":"string","internalType":"string"},{"name":"initialSupply","type":"uint256","internalType":"uint256"},{"name":"recipient","type":"address","internalType":"address"}],"stateMutability":"nonpayable"},{"type":"function","name":"balanceOf","inputs":[{"name":"","type":"address","internalType":"address"}],"outputs":[{"name":"","type":"uint256","internalType":"uint256"}],"stateMutability":"view"},{"type":"function","name":"decimals","inputs":[],"outputs":[{"name":"","type":"uint8","internalType":"uint8"}],"stateMutability":"view"},{"type":"function","name":"mint","inputs":[{"name":"to","type":"address","internalType":"address"},{"name":"value","type":"uint256","internalType":"uint256"}],"outputs":[],"stateMutability":"nonpayable"},{"type":"function","name":"minter","inputs":[],"outputs":[{"name":"","type":"address","internalType":"address"}],"stateMutability":"view"},{"type":"function","name":"name","inputs":[],"outputs":[{"name":"","type":"string","internalType":"string"}],"stateMutability":"view"},{"type":"function","name":"symbol","inputs":[],"outputs":[{"name":"","type":"string","internalType":"string"}],"stateMutability":"view"},{"type":"function","name":"totalSupply","inputs":[],"outputs":[{"name":"","type":"uint256","internalType":"uint256"}],"stateMutability":"view"},{"type":"function","name":"transfer","inputs":[{"name":"to","type":"address","internalType":"address"},{"name":"value","type":"uint256","internalType":"uint256"}],"outputs":[{"name":"","type":"bool","internalType":"bool"}],"stateMutability":"nonpayable"},{"type":"event","name":"Mint","inputs":[{"name":"to","type":"address","indexed":true,"internalType":"address"},{"name":"value","type":"uint256","indexed":false,"internalType":"uint256"}],"anonymous":false},{"type":"event","name":"Transfer","inputs":[{"name":"from","type":"address","indexed":true,"internalType":"address"},{"name":"to","type":"address","indexed":true,"internalType":"address"},{"name":"value","type":"uint256","indexed":false,"internalType":"uint256"}],"anonymous":false},{"type":"error","name":"NotMinter","inputs":[]}],"bytecode":{"object":"0x60a060405234801561000f575f80fd5b506040516108a33803806108a383398101604081905261002e9161015d565b5f6100398582610268565b5060016100468482610268565b5060028290556001600160a01b03811660808190525f818152600360209081526040808320869055518581527fddf252ad1be2c89b69c2b068fc378daa952ba7f163c4a11628f55a4df523b3ef910160405180910390a350505050610327565b634e487b7160e01b5f52604160045260245ffd5b5f82601f8301126100c9575f80fd5b81516001600160401b03808211156100e3576100e36100a6565b604051601f8301601f19908116603f0116810190828211818310171561010b5761010b6100a6565b8160405283815260209250866020858801011115610127575f80fd5b5f91505b83821015610148578582018301518183018401529082019061012b565b5f602085830101528094505050505092915050565b5f805f8060808587031215610170575f80fd5b84516001600160401b0380821115610186575f80fd5b610192888389016100ba565b955060208701519150808211156101a7575f80fd5b506101b4878288016100ba565b60408701516060880151919550935090506001600160a01b03811681146101d9575f80fd5b939692955090935050565b600181811c908216806101f857607f821691505b60208210810361021657634e487b7160e01b5f52602260045260245ffd5b50919050565b601f82111561026357805f5260205f20601f840160051c810160208510156102415750805b601f840160051c820191505b81811015610260575f815560010161024d565b50505b505050565b81516001600160401b03811115610281576102816100a6565b6102958161028f84546101e4565b8461021c565b602080601f8311600181146102c8575f84156102b15750858301515b5f19600386901b1c1916600185901b17855561031f565b5f85815260208120601f198616915b828110156102f6578886015182559484019460019091019084016102d7565b508582101561031357878501515f19600388901b60f8161c191681555b505060018460011b0185555b505050505050565b60805161055e6103455f395f818160ac015261020c015261055e5ff3fe608060405234801561000f575f80fd5b5060043610610085575f3560e01c806340c10f191161005857806340c10f191461011757806370a082311461012c57806395d89b411461014b578063a9059cbb14610153575f80fd5b806306fdde031461008957806307546172146100a757806318160ddd146100e6578063313ce567146100fd575b5f80fd5b610091610176565b60405161009e9190610407565b60405180910390f35b6100ce7f000000000000000000000000000000000000000000000000000000000000000081565b6040516001600160a01b03909116815260200161009e565b6100ef60025481565b60405190815260200161009e565b610105601281565b60405160ff909116815260200161009e565b61012a61012536600461046e565b610201565b005b6100ef61013a366004610496565b60036020525f908152604090205481565b610091610310565b61016661016136600461046e565b61031d565b604051901515815260200161009e565b5f8054610182906104b6565b80601f01602080910402602001604051908101604052809291908181526020018280546101ae906104b6565b80156101f95780601f106101d0576101008083540402835291602001916101f9565b820191905f5260205f20905b8154815290600101906020018083116101dc57829003601f168201915b505050505081565b336001600160a01b037f0000000000000000000000000000000000000000000000000000000000000000161461024a57604051633e34a41b60e21b815260040160405180910390fd5b6001600160a01b0382165f9081526003602052604081208054839290610271908490610502565b925050819055508060025f8282546102899190610502565b90915550506040518181526001600160a01b038316907f0f6798a560793a54c3bcfe86a93cde1e73087d944c0ea20544137d41213968859060200160405180910390a26040518181526001600160a01b038316905f907fddf252ad1be2c89b69c2b068fc378daa952ba7f163c4a11628f55a4df523b3ef9060200160405180910390a35050565b60018054610182906104b6565b335f9081526003602052604081205482111561036e5760405162461bcd60e51b815260206004820152600c60248201526b1a5b9cdd59999a58da595b9d60a21b604482015260640160405180910390fd5b335f908152600360205260408120805484929061038c908490610515565b90915550506001600160a01b0383165f90815260036020526040812080548492906103b8908490610502565b90915550506040518281526001600160a01b0384169033907fddf252ad1be2c89b69c2b068fc378daa952ba7f163c4a11628f55a4df523b3ef9060200160405180910390a35060015b92915050565b5f602080835283518060208501525f5b8181101561043357858101830151858201604001528201610417565b505f604082860101526040601f19601f8301168501019250505092915050565b80356001600160a01b0381168114610469575f80fd5b919050565b5f806040838503121561047f575f80fd5b61048883610453565b946020939093013593505050565b5f602082840312156104a6575f80fd5b6104af82610453565b9392505050565b600181811c908216806104ca57607f821691505b6020821081036104e857634e487b7160e01b5f52602260045260245ffd5b50919050565b634e487b7160e01b5f52601160045260245ffd5b80820180821115610401576104016104ee565b81810381811115610401576104016104ee56fea2646970667358221220f978fed46e0212b1676549ed8e963e20b4f25485f9a66e7e8f4fc0d0bfdc2c4c64736f6c63430008180033","linkReferences":{}},"methodIdentifiers":{"balanceOf(address)":"70a08231","decimals()":"313ce567","mint(address,uint256)":"40c10f19","minter()":"07546172","name()":"06fdde03","symbol()":"95d89b41","totalSupply()":"18160ddd","transfer(address,uint256)":"a9059cbb"},"id":0}