{"abi":[{"type":"constructor","inputs":[{"name":"owner_","type":"address","internalType":"address"},{"name":"entryPoint_","type":"address","internalType":"address"}],"stateMutability":"nonpayable"},{"type":"receive","stateMutability":"payable"},{"type":"function","name":"MAGICVALUE","inputs":[],"outputs":[{"name":"","type":"bytes4","internalType":"bytes4"}],"stateMutability":"view"},{"type":"function","name":"entryPoint","inputs":[],"outputs":[{"name":"","type":"address","internalType":"address"}],"stateMutability":"view"},{"type":"function","name":"execute","inputs":[{"name":"target","type":"address","internalType":"address"},{"name":"value","type":"uint256","internalType":"uint256"},{"name":"data","type":"bytes","internalType":"bytes"}],"outputs":[{"name":"result","type":"bytes","internalType":"bytes"}],"stateMutability":"nonpayable"},{"type":"function","name":"isValidSignature","inputs":[{"name":"hash","type":"bytes32","internalType":"bytes32"},{"name":"signature","type":"bytes","internalType":"bytes"}],"outputs":[{"name":"","type":"bytes4","internalType":"bytes4"}],"stateMutability":"view"},{"type":"function","name":"nonce","inputs":[],"outputs":[{"name":"","type":"uint256","internalType":"uint256"}],"stateMutability":"view"},{"type":"function","name":"owner","inputs":[],"outputs":[{"name":"","type":"address","internalType":"address"}],"stateMutability":"view"},{"type":"function","name":"validateUserOp","inputs":[{"name":"userOp","type":"tuple","internalType":"struct UserOperation","components":[{"name":"sender","type":"address","internalType":"address"},{"name":"nonce","type":"uint256","internalType":"uint256"},{"name":"initCode","type":"bytes","internalType":"bytes"},{"name":"callData","type":"bytes","internalType":"bytes"},{"name":"callGasLimit","type":"uint256","internalType":"uint256"},{"name":"verificationGasLimit","type":"uint256","internalType":"uint256"},{"name":"preVerificationGas","type":"uint256","internalType":"uint256"},{"name":"maxFeePerGas","type":"uint256","internalType":"uint256"},{"name":"maxPriorityFeePerGas","type":"uint256","internalType":"uint256"},{"name":"paymasterAndData","type":"bytes","internalType":"bytes"},{"name":"signature","type":"bytes","internalType":"bytes"}]},{"name":"userOpHash","type":"bytes32","internalType":"bytes32"}],"outputs":[],"stateMutability":"nonpayable"},{"type":"error","name":"ExecutionFailed","inputs":[]},{"type":"error","name":"InvalidNonce","inputs":[{"name":"expected","type":"uint256","internalType":"uint256"},{"name":"actual","type":"uint256","internalType":"uint256"}]},{"type":"error","name":"InvalidSignature","inputs":[]},{"type":"error","name":"NotAuthorized","inputs":[]},{"type":"error","name":"ZeroAddress","inputs":[]}],"bytecode":{"object":"0x60a060405234801561000f575f80fd5b5060405161083338038061083383398101604081905261002e916100a8565b6001600160a01b038216158061004b57506001600160a01b038116155b156100695760405163d92e233d60e01b815260040160405180910390fd5b5f80546001600160a01b0319166001600160a01b03938416179055166080526100d9565b80516001600160a01b03811681146100a3575f80fd5b919050565b5f80604083850312156100b9575f80fd5b6100c28361008d565b91506100d06020840161008d565b90509250929050565b6080516107346100ff5f395f81816101230152818161020001526102d501526107345ff3fe608060405260043610610071575f3560e01c8063b0d691fe1161004c578063b0d691fe14610112578063b61d27f614610145578063ff21882314610171578063fff35b721461018b575f80fd5b80631626ba7e1461007c5780638da5cb5b146100b9578063affed0e0146100ef575f80fd5b3661007857005b5f80fd5b348015610087575f80fd5b5061009b61009636600461054a565b6101ac565b6040516001600160e01b031990911681526020015b60405180910390f35b3480156100c4575f80fd5b505f546100d7906001600160a01b031681565b6040516001600160a01b0390911681526020016100b0565b3480156100fa575f80fd5b5061010460015481565b6040519081526020016100b0565b34801561011d575f80fd5b506100d77f000000000000000000000000000000000000000000000000000000000000000081565b348015610150575f80fd5b5061016461015f366004610592565b6101dd565b6040516100b091906105f5565b34801561017c575f80fd5b5061009b630b135d3f60e11b81565b348015610196575f80fd5b506101aa6101a5366004610641565b6102ca565b005b5f6101b884848461039a565b6101ca576001600160e01b03196101d3565b630b135d3f60e11b5b90505b9392505050565b5f546060906001600160a01b031633148015906102235750336001600160a01b037f00000000000000000000000000000000000000000000000000000000000000001614155b156102415760405163ea8e4eb560e01b815260040160405180910390fd5b5f80866001600160a01b031686868660405161025e929190610688565b5f6040518083038185875af1925050503d805f8114610298576040519150601f19603f3d011682016040523d82523d5f602084013e61029d565b606091505b5091509150816102c057604051632b3f6d1160e21b815260040160405180910390fd5b9695505050505050565b336001600160a01b037f000000000000000000000000000000000000000000000000000000000000000016146103135760405163ea8e4eb560e01b815260040160405180910390fd5b60015482602001351461034e576001546040516306427aeb60e01b815260048101919091526020830135602482015260440160405180910390fd5b61036581610360610140850185610697565b61039a565b61038257604051638baa579f60e01b815260040160405180910390fd5b60018054905f610391836106da565b91905055505050565b5f604182146103aa57505f6101d6565b604080515f808252602080830180855288905286840135821a93830184905286356060840181905290870135608084018190529093909290919060019060a0016020604051602081039080840390855afa15801561040a573d5f803e3d5ffd5b5050604051601f1901515f549092506001600160a01b0390811690831603905061043b5760019450505050506101d6565b6040517f19457468657265756d205369676e6564204d6573736167653a0a3332000000006020820152603c81018990525f90605c0160408051808303601f1901815282825280516020918201205f805490855291840180845281905260ff87169284019290925260608301889052608083018790529092506001600160a01b03169060019060a0016020604051602081039080840390855afa1580156104e3573d5f803e3d5ffd5b505050602060405103516001600160a01b031614955050505050509392505050565b5f8083601f840112610515575f80fd5b50813567ffffffffffffffff81111561052c575f80fd5b602083019150836020828501011115610543575f80fd5b9250929050565b5f805f6040848603121561055c575f80fd5b83359250602084013567ffffffffffffffff811115610579575f80fd5b61058586828701610505565b9497909650939450505050565b5f805f80606085870312156105a5575f80fd5b84356001600160a01b03811681146105bb575f80fd5b935060208501359250604085013567ffffffffffffffff8111156105dd575f80fd5b6105e987828801610505565b95989497509550505050565b5f602080835283518060208501525f5b8181101561062157858101830151858201604001528201610605565b505f604082860101526040601f19601f8301168501019250505092915050565b5f8060408385031215610652575f80fd5b823567ffffffffffffffff811115610668575f80fd5b8301610160818603121561067a575f80fd5b946020939093013593505050565b818382375f9101908152919050565b5f808335601e198436030181126106ac575f80fd5b83018035915067ffffffffffffffff8211156106c6575f80fd5b602001915036819003821315610543575f80fd5b5f600182016106f757634e487b7160e01b5f52601160045260245ffd5b506001019056fea2646970667358221220d910d00fa212648a1d64e248704cefddb5cf646ba297fc649181253abb72a32164736f6c63430008180033","linkReferences":{}},"methodIdentifiers":{"MAGICVALUE()":"ff218823","entryPoint()":"b0d691fe","execute(address,uint256,bytes)":"b61d27f6","isValidSignature(bytes32,bytes)":"1626ba7e","nonce()":"affed0e0","owner()":"8da5cb5b","validateUserOp((address,uint256,bytes,bytes,uint256,uint256,uint256,uint256,uint256,bytes,bytes),bytes32)":"fff35b72"},"id":2}