{"abi":[{"type":"constructor","inputs":[{"name":"tokenAddr","type":"address","internalType":"address"},{"name":"beneficiaryAddr","type":"address","internalType":"address"},{"name":"startTime","type":"uint64","internalType":"uint64"},{"name":"cliffDuration","type":"uint64","internalType":"uint64"},{"name":"vestingDuration","type":"uint64","internalType":"uint64"},{"name":"totalAmount","type":"uint256","internalType":"uint256"}],"stateMutability":"nonpayable"},{"type":"function","name":"beneficiary","inputs":[],"outputs":[{"name":"","type":"address","internalType":"address"}],"stateMutability":"view"},{"type":"function","name":"cliff","inputs":[],"outputs":[{"name":"","type":"uint64","internalType":"uint64"}],"stateMutability":"view"},{"type":"function","name":"duration","inputs":[],"outputs":[{"name":"","type":"uint64","internalType":"uint64"}],"stateMutability":"view"},{"type":"function","name":"releasable","inputs":[],"outputs":[{"name":"","type":"uint256","internalType":"uint256"}],"stateMutability":"view"},{"type":"function","name":"release","inputs":[],"outputs":[{"name":"amount","type":"uint256","internalType":"uint256"}],"stateMutability":"nonpayable"},{"type":"function","name":"released","inputs":[],"outputs":[{"name":"","type":"uint256","internalType":"uint256"}],"stateMutability":"view"},{"type":"function","name":"start","inputs":[],"outputs":[{"name":"","type":"uint64","internalType":"uint64"}],"stateMutability":"view"},{"type":"function","name":"token","inputs":[],"outputs":[{"name":"","type":"address","internalType":"contract IERC20"}],"stateMutability":"view"},{"type":"function","name":"total","inputs":[],"outputs":[{"name":"","type":"uint256","internalType":"uint256"}],"stateMutability":"view"},{"type":"function","name":"vestedAmount","inputs":[{"name":"timestamp","type":"uint64","internalType":"uint64"}],"outputs":[{"name":"","type":"uint256","internalType":"uint256"}],"stateMutability":"view"},{"type":"event","name":"Released","inputs":[{"name":"amount","type":"uint256","indexed":false,"internalType":"uint256"}],"anonymous":false},{"type":"error","name":"NotBeneficiary","inputs":[]},{"type":"error","name":"TransferFailed","inputs":[]}],"bytecode":{"object":"0x610140604052348015610010575f80fd5b506040516107b03803806107b083398101604081905261002f916100ae565b6001600160a01b03808716608052851660a0526001600160401b03841660c0526100598385610117565b6001600160401b0390811660e0529190911661010052610120525061014a92505050565b80516001600160a01b0381168114610093575f80fd5b919050565b80516001600160401b0381168114610093575f80fd5b5f805f805f8060c087890312156100c3575f80fd5b6100cc8761007d565b95506100da6020880161007d565b94506100e860408801610098565b93506100f660608801610098565b925061010460808801610098565b915060a087015190509295509295509295565b6001600160401b0381811683821601908082111561014357634e487b7160e01b5f52601160045260245ffd5b5092915050565b60805160a05160c05160e05161010051610120516105e16101cf5f395f8181610131015281816102a3015261032c01525f818160ca0152818161024101526102d201525f818161010a01526101fb01525f81816101a70152818161026201526102f701525f8181610158015261039d01525f81816101d601526103cc01526105e15ff3fe608060405234801561000f575f80fd5b506004361061009b575f3560e01c806386d1a69f1161006357806386d1a69f14610192578063961325211461019a578063be9a6555146101a2578063fbccedae146101c9578063fc0c546a146101d1575f80fd5b80630a17b06b1461009f5780630fb5a6b4146100c557806313d033c0146101055780632ddbd13a1461012c57806338af3eed14610153575b5f80fd5b6100b26100ad3660046104a5565b6101f8565b6040519081526020015b60405180910390f35b6100ec7f000000000000000000000000000000000000000000000000000000000000000081565b60405167ffffffffffffffff90911681526020016100bc565b6100ec7f000000000000000000000000000000000000000000000000000000000000000081565b6100b27f000000000000000000000000000000000000000000000000000000000000000081565b61017a7f000000000000000000000000000000000000000000000000000000000000000081565b6040516001600160a01b0390911681526020016100bc565b6100b2610360565b6100b25f5481565b6100ec7f000000000000000000000000000000000000000000000000000000000000000081565b6100b261048a565b61017a7f000000000000000000000000000000000000000000000000000000000000000081565b5f7f000000000000000000000000000000000000000000000000000000000000000067ffffffffffffffff168267ffffffffffffffff16101561023c57505f919050565b6102867f00000000000000000000000000000000000000000000000000000000000000007f00000000000000000000000000000000000000000000000000000000000000006104e7565b67ffffffffffffffff168267ffffffffffffffff16106102c757507f0000000000000000000000000000000000000000000000000000000000000000919050565b67ffffffffffffffff7f00000000000000000000000000000000000000000000000000000000000000001661031c7f00000000000000000000000000000000000000000000000000000000000000008461050f565b6103509067ffffffffffffffff167f0000000000000000000000000000000000000000000000000000000000000000610530565b61035a9190610547565b92915050565b5f61036961048a565b9050805f8082825461037b9190610566565b909155505080156104875760405163a9059cbb60e01b81526001600160a01b037f000000000000000000000000000000000000000000000000000000000000000081166004830152602482018390527f0000000000000000000000000000000000000000000000000000000000000000169063a9059cbb906044016020604051808303815f875af1158015610412573d5f803e3d5ffd5b505050506040513d601f19601f820116820180604052508101906104369190610579565b610453576040516312171d8360e31b815260040160405180910390fd5b6040518181527ffb81f9b30d73d830c3544b34d827c08142579ee75710b490bab0b3995468c5659060200160405180910390a15b90565b5f8054610496426101f8565b6104a09190610598565b905090565b5f602082840312156104b5575f80fd5b813567ffffffffffffffff811681146104cc575f80fd5b9392505050565b634e487b7160e01b5f52601160045260245ffd5b67ffffffffffffffff818116838216019080821115610508576105086104d3565b5092915050565b67ffffffffffffffff828116828216039080821115610508576105086104d3565b808202811582820484141761035a5761035a6104d3565b5f8261056157634e487b7160e01b5f52601260045260245ffd5b500490565b8082018082111561035a5761035a6104d3565b5f60208284031215610589575f80fd5b815180151581146104cc575f80fd5b8181038181111561035a5761035a6104d356fea2646970667358221220a5c37a3883189a1342d12a75ce06bbd8ba2b35359b323cf3766da60f956437a264736f6c63430008180033","linkReferences":{}},"methodIdentifiers":{"beneficiary()":"38af3eed","cliff()":"13d033c0","duration()":"0fb5a6b4","releasable()":"fbccedae","release()":"86d1a69f","released()":"96132521","start()":"be9a6555","token()":"fc0c546a","total()":"2ddbd13a","vestedAmount(uint64)":"0a17b06b"},"id":1}