{"abi":[{"type":"function","name":"sponsorAndExecute","inputs":[{"name":"account","type":"address","internalType":"address"},{"name":"target","type":"address","internalType":"address"},{"name":"value","type":"uint256","internalType":"uint256"},{"name":"data","type":"bytes","internalType":"bytes"}],"outputs":[{"name":"result","type":"bytes","internalType":"bytes"}],"stateMutability":"nonpayable"},{"type":"function","name":"sponsoredCount","inputs":[],"outputs":[{"name":"","type":"uint256","internalType":"uint256"}],"stateMutability":"view"},{"type":"event","name":"Sponsored","inputs":[{"name":"account","type":"address","indexed":true,"internalType":"address"},{"name":"target","type":"address","indexed":true,"internalType":"address"},{"name":"data","type":"bytes","indexed":false,"internalType":"bytes"}],"anonymous":false},{"type":"error","name":"CallFailed","inputs":[]}],"bytecode":{"object":"0x608060405234801561000f575f80fd5b506103e58061001d5f395ff3fe608060405234801561000f575f80fd5b5060043610610034575f3560e01c8063836b6a9b14610038578063ac1d16b514610061575b5f80fd5b61004b610046366004610174565b610077565b6040516100589190610229565b60405180910390f35b6100695f5481565b604051908152602001610058565b604051635b0e93fb60e11b81526060906001600160a01b0387169063b61d27f6906100ac908890889088908890600401610283565b5f604051808303815f875af11580156100c7573d5f803e3d5ffd5b505050506040513d5f823e601f3d908101601f191682016040526100ee91908101906102c8565b5f8054919250806100fe83610370565b9190505550846001600160a01b0316866001600160a01b03167f6bd29510c1078f16f797606bb87d05bad8db6b5557936a16db1fa42520e8bc748585604051610148929190610394565b60405180910390a395945050505050565b80356001600160a01b038116811461016f575f80fd5b919050565b5f805f805f60808688031215610188575f80fd5b61019186610159565b945061019f60208701610159565b935060408601359250606086013567ffffffffffffffff808211156101c2575f80fd5b818801915088601f8301126101d5575f80fd5b8135818111156101e3575f80fd5b8960208285010111156101f4575f80fd5b9699959850939650602001949392505050565b5f5b83811015610221578181015183820152602001610209565b50505f910152565b602081525f8251806020840152610247816040850160208701610207565b601f01601f19169190910160400192915050565b81835281816020850137505f828201602090810191909152601f909101601f19169091010190565b60018060a01b0385168152836020820152606060408201525f6102aa60608301848661025b565b9695505050505050565b634e487b7160e01b5f52604160045260245ffd5b5f602082840312156102d8575f80fd5b815167ffffffffffffffff808211156102ef575f80fd5b818401915084601f830112610302575f80fd5b815181811115610314576103146102b4565b604051601f8201601f19908116603f0116810190838211818310171561033c5761033c6102b4565b81604052828152876020848701011115610354575f80fd5b610365836020830160208801610207565b979650505050505050565b5f6001820161038d57634e487b7160e01b5f52601160045260245ffd5b5060010190565b602081525f6103a760208301848661025b565b94935050505056fea264697066735822122063cb9208f7152f23a7ea60819d25001bd6649a11e0f4d22ba782582cffda3bbe64736f6c63430008180033","linkReferences":{}},"methodIdentifiers":{"sponsorAndExecute(address,address,uint256,bytes)":"836b6a9b","sponsoredCount()":"ac1d16b5"},"id":2}