{"abi":[{"type":"constructor","inputs":[],"stateMutability":"nonpayable"},{"type":"function","name":"MAX_SUPPLY","inputs":[],"outputs":[{"name":"","type":"uint256","internalType":"uint256"}],"stateMutability":"view"},{"type":"function","name":"ROYALTY_BPS","inputs":[],"outputs":[{"name":"","type":"uint96","internalType":"uint96"}],"stateMutability":"view"},{"type":"function","name":"approve","inputs":[{"name":"to","type":"address","internalType":"address"},{"name":"tokenId","type":"uint256","internalType":"uint256"}],"outputs":[],"stateMutability":"nonpayable"},{"type":"function","name":"balanceOf","inputs":[{"name":"owner","type":"address","internalType":"address"}],"outputs":[{"name":"","type":"uint256","internalType":"uint256"}],"stateMutability":"view"},{"type":"function","name":"batchMint","inputs":[{"name":"to","type":"address","internalType":"address"},{"name":"count","type":"uint256","internalType":"uint256"}],"outputs":[{"name":"tokenIds","type":"uint256[]","internalType":"uint256[]"}],"stateMutability":"nonpayable"},{"type":"function","name":"getApproved","inputs":[{"name":"tokenId","type":"uint256","internalType":"uint256"}],"outputs":[{"name":"","type":"address","internalType":"address"}],"stateMutability":"view"},{"type":"function","name":"isApprovedForAll","inputs":[{"name":"owner","type":"address","internalType":"address"},{"name":"operator","type":"address","internalType":"address"}],"outputs":[{"name":"","type":"bool","internalType":"bool"}],"stateMutability":"view"},{"type":"function","name":"mint","inputs":[{"name":"to","type":"address","internalType":"address"}],"outputs":[{"name":"tokenId","type":"uint256","internalType":"uint256"}],"stateMutability":"nonpayable"},{"type":"function","name":"name","inputs":[],"outputs":[{"name":"","type":"string","internalType":"string"}],"stateMutability":"view"},{"type":"function","name":"ownerOf","inputs":[{"name":"tokenId","type":"uint256","internalType":"uint256"}],"outputs":[{"name":"","type":"address","internalType":"address"}],"stateMutability":"view"},{"type":"function","name":"royaltyInfo","inputs":[{"name":"","type":"uint256","internalType":"uint256"},{"name":"salePrice","type":"uint256","internalType":"uint256"}],"outputs":[{"name":"receiver","type":"address","internalType":"address"},{"name":"royaltyAmount","type":"uint256","internalType":"uint256"}],"stateMutability":"view"},{"type":"function","name":"royaltyReceiver","inputs":[],"outputs":[{"name":"","type":"address","internalType":"address"}],"stateMutability":"view"},{"type":"function","name":"setApprovalForAll","inputs":[{"name":"operator","type":"address","internalType":"address"},{"name":"approved","type":"bool","internalType":"bool"}],"outputs":[],"stateMutability":"nonpayable"},{"type":"function","name":"symbol","inputs":[],"outputs":[{"name":"","type":"string","internalType":"string"}],"stateMutability":"view"},{"type":"function","name":"tokenOfOwnerByIndex","inputs":[{"name":"owner","type":"address","internalType":"address"},{"name":"index","type":"uint256","internalType":"uint256"}],"outputs":[{"name":"","type":"uint256","internalType":"uint256"}],"stateMutability":"view"},{"type":"function","name":"totalSupply","inputs":[],"outputs":[{"name":"","type":"uint256","internalType":"uint256"}],"stateMutability":"view"},{"type":"function","name":"transferFrom","inputs":[{"name":"from","type":"address","internalType":"address"},{"name":"to","type":"address","internalType":"address"},{"name":"tokenId","type":"uint256","internalType":"uint256"}],"outputs":[],"stateMutability":"nonpayable"},{"type":"event","name":"Approval","inputs":[{"name":"owner","type":"address","indexed":true,"internalType":"address"},{"name":"approved","type":"address","indexed":true,"internalType":"address"},{"name":"tokenId","type":"uint256","indexed":true,"internalType":"uint256"}],"anonymous":false},{"type":"event","name":"ApprovalForAll","inputs":[{"name":"owner","type":"address","indexed":true,"internalType":"address"},{"name":"operator","type":"address","indexed":true,"internalType":"address"},{"name":"approved","type":"bool","indexed":false,"internalType":"bool"}],"anonymous":false},{"type":"event","name":"Transfer","inputs":[{"name":"from","type":"address","indexed":true,"internalType":"address"},{"name":"to","type":"address","indexed":true,"internalType":"address"},{"name":"tokenId","type":"uint256","indexed":true,"internalType":"uint256"}],"anonymous":false},{"type":"error","name":"AlreadyMinted","inputs":[]},{"type":"error","name":"InvalidRecipient","inputs":[]},{"type":"error","name":"MaxSupplyReached","inputs":[{"name":"maxSupply","type":"uint256","internalType":"uint256"}]},{"type":"error","name":"NotOwner","inputs":[]},{"type":"error","name":"OwnerIndexOutOfBounds","inputs":[]}],"bytecode":{"object":"0x60e0604052600a60a09081526911185c1c114c9953919560b21b60c0525f906200002a90826200010b565b506040805180820190915260048152634445324560e01b60208201526001906200005590826200010b565b5034801562000062575f80fd5b5033608052620001d7565b634e487b7160e01b5f52604160045260245ffd5b600181811c908216806200009657607f821691505b602082108103620000b557634e487b7160e01b5f52602260045260245ffd5b50919050565b601f8211156200010657805f5260205f20601f840160051c81016020851015620000e25750805b601f840160051c820191505b8181101562000103575f8155600101620000ee565b50505b505050565b81516001600160401b038111156200012757620001276200006d565b6200013f8162000138845462000081565b84620000bb565b602080601f83116001811462000175575f84156200015d5750858301515b5f19600386901b1c1916600185901b178555620001cf565b5f85815260208120601f198616915b82811015620001a55788860151825594840194600190910190840162000184565b5085821015620001c357878501515f19600388901b60f8161c191681555b505060018460011b0185555b505050505050565b608051610d65620001f75f395f818161029501526106260152610d655ff3fe608060405234801561000f575f80fd5b5060043610610106575f3560e01c806343508b051161009e57806370a082311161006e57806370a082311461026057806395d89b41146102885780639fbc871314610290578063a22cb465146102b7578063e985e9c5146102ca575f80fd5b806343508b05146101f457806349c657db146102145780636352211e1461023a5780636a6278421461024d575f80fd5b806323b872dd116100d957806323b872dd146101945780632a55205a146101a75780632f745c59146101d957806332cb6b0c146101ec575f80fd5b806306fdde031461010a578063081812fc14610128578063095ea7b31461016857806318160ddd1461017d575b5f80fd5b610112610315565b60405161011f9190610a9c565b60405180910390f35b610150610136366004610ae8565b5f908152600560205260409020546001600160a01b031690565b6040516001600160a01b03909116815260200161011f565b61017b610176366004610b1a565b6103a0565b005b61018660025481565b60405190815260200161011f565b61017b6101a2366004610b42565b610463565b6101ba6101b5366004610b7b565b610624565b604080516001600160a01b03909316835260208301919091520161011f565b6101866101e7366004610b1a565b610668565b610186600a81565b610207610202366004610b1a565b6106ca565b60405161011f9190610b9b565b61021d6101f481565b6040516bffffffffffffffffffffffff909116815260200161011f565b610150610248366004610ae8565b6107ae565b61018661025b366004610bde565b610808565b61018661026e366004610bde565b6001600160a01b03165f9081526004602052604090205490565b610112610812565b6101507f000000000000000000000000000000000000000000000000000000000000000081565b61017b6102c5366004610bfe565b61081f565b6103056102d8366004610c37565b6001600160a01b039182165f90815260066020908152604080832093909416825291909152205460ff1690565b604051901515815260200161011f565b5f805461032190610c5f565b80601f016020809104026020016040519081016040528092919081815260200182805461034d90610c5f565b80156103985780601f1061036f57610100808354040283529160200191610398565b820191905f5260205f20905b81548152906001019060200180831161037b57829003601f168201915b505050505081565b5f818152600360205260409020546001600160a01b03163381148015906103ea57506001600160a01b0381165f90815260066020908152604080832033845290915290205460ff16155b15610408576040516330cd747160e01b815260040160405180910390fd5b5f8281526005602052604080822080546001600160a01b0319166001600160a01b0387811691821790925591518593918516917f8c5be1e5ebec7d5bd14f71427d1e84f3dd0314c0f7b2291e5b200ac8c7c3b92591a4505050565b5f818152600360205260409020546001600160a01b0384811691161461049c576040516330cd747160e01b815260040160405180910390fd5b336001600160a01b038416148015906104cb57505f818152600560205260409020546001600160a01b03163314155b80156104fa57506001600160a01b0383165f90815260066020908152604080832033845290915290205460ff16155b15610518576040516330cd747160e01b815260040160405180910390fd5b6001600160a01b03821661053f57604051634e46966960e11b815260040160405180910390fd5b5f81815260056020526040902080546001600160a01b0319169055610564838261088a565b6001600160a01b0383165f90815260046020526040812080546001929061058c908490610cab565b9091555061059c90508282610931565b6001600160a01b0382165f9081526004602052604081208054600192906105c4908490610cbe565b90915550505f8181526003602052604080822080546001600160a01b0319166001600160a01b0386811691821790925591518493918716917fddf252ad1be2c89b69c2b068fc378daa952ba7f163c4a11628f55a4df523b3ef91a4505050565b7f00000000000000000000000000000000000000000000000000000000000000005f6127106106556101f485610cd1565b61065f9190610ce8565b90509250929050565b6001600160a01b0382165f90815260046020526040812054821061069f576040516306ed618760e11b815260040160405180910390fd5b506001600160a01b0382165f9081526007602090815260408083208484529091529020545b92915050565b60606001600160a01b0383166106f357604051634e46966960e11b815260040160405180910390fd5b600a826002546107039190610cbe565b111561072a5760405163f9f8491560e01b8152600a60048201526024015b60405180910390fd5b8167ffffffffffffffff81111561074357610743610d07565b60405190808252806020026020018201604052801561076c578160200160208202803683370190505b5090505f5b828110156107a7576107828461096c565b82828151811061079457610794610d1b565b6020908102919091010152600101610771565b5092915050565b5f818152600360205260408120546001600160a01b0316806106c45760405162461bcd60e51b8152602060048201526013602482015272115490cdcc8c4e881b9bdb995e1a5cdd195b9d606a1b6044820152606401610721565b5f6106c48261096c565b6001805461032190610c5f565b335f8181526006602090815260408083206001600160a01b03871680855290835292819020805460ff191686151590811790915590519081529192917f17307eab39ab6107e8899845ad3d59bd9653f200f220920489ca2b5937696c31910160405180910390a35050565b6001600160a01b0382165f908152600460205260408120546108ae90600190610cab565b5f838152600860205260409020549091508082146108ff576001600160a01b0384165f9081526007602090815260408083208584528252808320548484528184208190558352600890915290208190555b505f9182526008602090815260408084208490556001600160a01b039094168352600781528383209183525290812055565b6001600160a01b039091165f908152600460209081526040808320546007835281842081855283528184208590559383526008909152902055565b5f6001600160a01b03821661099457604051634e46966960e11b815260040160405180910390fd5b6002546109a2906001610cbe565b9050600a8111156109c95760405163f9f8491560e01b8152600a6004820152602401610721565b5f818152600360205260409020546001600160a01b0316156109fe57604051631bbdf5c560e31b815260040160405180910390fd5b5f81815260036020526040902080546001600160a01b0319166001600160a01b038416179055610a2e8282610931565b6001600160a01b0382165f908152600460205260408120805460019290610a56908490610cbe565b9091555050600281905560405181906001600160a01b038416905f907fddf252ad1be2c89b69c2b068fc378daa952ba7f163c4a11628f55a4df523b3ef908290a4919050565b5f602080835283518060208501525f5b81811015610ac857858101830151858201604001528201610aac565b505f604082860101526040601f19601f8301168501019250505092915050565b5f60208284031215610af8575f80fd5b5035919050565b80356001600160a01b0381168114610b15575f80fd5b919050565b5f8060408385031215610b2b575f80fd5b610b3483610aff565b946020939093013593505050565b5f805f60608486031215610b54575f80fd5b610b5d84610aff565b9250610b6b60208501610aff565b9150604084013590509250925092565b5f8060408385031215610b8c575f80fd5b50508035926020909101359150565b602080825282518282018190525f9190848201906040850190845b81811015610bd257835183529284019291840191600101610bb6565b50909695505050505050565b5f60208284031215610bee575f80fd5b610bf782610aff565b9392505050565b5f8060408385031215610c0f575f80fd5b610c1883610aff565b915060208301358015158114610c2c575f80fd5b809150509250929050565b5f8060408385031215610c48575f80fd5b610c5183610aff565b915061065f60208401610aff565b600181811c90821680610c7357607f821691505b602082108103610c9157634e487b7160e01b5f52602260045260245ffd5b50919050565b634e487b7160e01b5f52601160045260245ffd5b818103818111156106c4576106c4610c97565b808201808211156106c4576106c4610c97565b80820281158282048414176106c4576106c4610c97565b5f82610d0257634e487b7160e01b5f52601260045260245ffd5b500490565b634e487b7160e01b5f52604160045260245ffd5b634e487b7160e01b5f52603260045260245ffdfea26469706673582212204240d5a71a985e5003b989277cc681923d5f4f43e6348bee9d064de26ec9be8d64736f6c63430008180033","linkReferences":{}},"methodIdentifiers":{"MAX_SUPPLY()":"32cb6b0c","ROYALTY_BPS()":"49c657db","approve(address,uint256)":"095ea7b3","balanceOf(address)":"70a08231","batchMint(address,uint256)":"43508b05","getApproved(uint256)":"081812fc","isApprovedForAll(address,address)":"e985e9c5","mint(address)":"6a627842","name()":"06fdde03","ownerOf(uint256)":"6352211e","royaltyInfo(uint256,uint256)":"2a55205a","royaltyReceiver()":"9fbc8713","setApprovalForAll(address,bool)":"a22cb465","symbol()":"95d89b41","tokenOfOwnerByIndex(address,uint256)":"2f745c59","totalSupply()":"18160ddd","transferFrom(address,address,uint256)":"23b872dd"},"id":0}