{"abi":[{"type":"function","name":"approve","inputs":[{"name":"to","type":"address","internalType":"address"},{"name":"tokenId","type":"uint256","internalType":"uint256"}],"outputs":[],"stateMutability":"nonpayable"},{"type":"function","name":"balanceOf","inputs":[{"name":"owner","type":"address","internalType":"address"}],"outputs":[{"name":"","type":"uint256","internalType":"uint256"}],"stateMutability":"view"},{"type":"function","name":"getApproved","inputs":[{"name":"tokenId","type":"uint256","internalType":"uint256"}],"outputs":[{"name":"","type":"address","internalType":"address"}],"stateMutability":"view"},{"type":"function","name":"isApprovedForAll","inputs":[{"name":"owner","type":"address","internalType":"address"},{"name":"operator","type":"address","internalType":"address"}],"outputs":[{"name":"","type":"bool","internalType":"bool"}],"stateMutability":"view"},{"type":"function","name":"mint","inputs":[{"name":"to","type":"address","internalType":"address"}],"outputs":[{"name":"tokenId","type":"uint256","internalType":"uint256"}],"stateMutability":"nonpayable"},{"type":"function","name":"name","inputs":[],"outputs":[{"name":"","type":"string","internalType":"string"}],"stateMutability":"view"},{"type":"function","name":"ownerOf","inputs":[{"name":"tokenId","type":"uint256","internalType":"uint256"}],"outputs":[{"name":"","type":"address","internalType":"address"}],"stateMutability":"view"},{"type":"function","name":"setApprovalForAll","inputs":[{"name":"operator","type":"address","internalType":"address"},{"name":"approved","type":"bool","internalType":"bool"}],"outputs":[],"stateMutability":"nonpayable"},{"type":"function","name":"symbol","inputs":[],"outputs":[{"name":"","type":"string","internalType":"string"}],"stateMutability":"view"},{"type":"function","name":"totalSupply","inputs":[],"outputs":[{"name":"","type":"uint256","internalType":"uint256"}],"stateMutability":"view"},{"type":"function","name":"transferFrom","inputs":[{"name":"from","type":"address","internalType":"address"},{"name":"to","type":"address","internalType":"address"},{"name":"tokenId","type":"uint256","internalType":"uint256"}],"outputs":[],"stateMutability":"nonpayable"},{"type":"event","name":"Approval","inputs":[{"name":"owner","type":"address","indexed":true,"internalType":"address"},{"name":"approved","type":"address","indexed":true,"internalType":"address"},{"name":"tokenId","type":"uint256","indexed":true,"internalType":"uint256"}],"anonymous":false},{"type":"event","name":"ApprovalForAll","inputs":[{"name":"owner","type":"address","indexed":true,"internalType":"address"},{"name":"operator","type":"address","indexed":true,"internalType":"address"},{"name":"approved","type":"bool","indexed":false,"internalType":"bool"}],"anonymous":false},{"type":"event","name":"Transfer","inputs":[{"name":"from","type":"address","indexed":true,"internalType":"address"},{"name":"to","type":"address","indexed":true,"internalType":"address"},{"name":"tokenId","type":"uint256","indexed":true,"internalType":"uint256"}],"anonymous":false},{"type":"error","name":"AlreadyMinted","inputs":[]},{"type":"error","name":"InvalidRecipient","inputs":[]},{"type":"error","name":"NotOwner","inputs":[]}],"bytecode":{"object":"0x60c0604052600a60809081526911185c1c114c9953919560b21b60a0525f9061002890826100fb565b506040805180820190915260048152634445324560e01b602082015260019061005190826100fb565b5034801561005d575f80fd5b506101ba565b634e487b7160e01b5f52604160045260245ffd5b600181811c9082168061008b57607f821691505b6020821081036100a957634e487b7160e01b5f52602260045260245ffd5b50919050565b601f8211156100f657805f5260205f20601f840160051c810160208510156100d45750805b601f840160051c820191505b818110156100f3575f81556001016100e0565b50505b505050565b81516001600160401b0381111561011457610114610063565b610128816101228454610077565b846100af565b602080601f83116001811461015b575f84156101445750858301515b5f19600386901b1c1916600185901b1785556101b2565b5f85815260208120601f198616915b828110156101895788860151825594840194600190910190840161016a565b50858210156101a657878501515f19600388901b60f8161c191681555b505060018460011b0185555b505050505050565b6108db806101c75f395ff3fe608060405234801561000f575f80fd5b50600436106100a6575f3560e01c80636352211e1161006e5780636352211e146101475780636a6278421461015a57806370a082311461016d57806395d89b4114610195578063a22cb4651461019d578063e985e9c5146101b0575f80fd5b806306fdde03146100aa578063081812fc146100c8578063095ea7b31461010857806318160ddd1461011d57806323b872dd14610134575b5f80fd5b6100b26101fb565b6040516100bf91906106ca565b60405180910390f35b6100f06100d6366004610716565b5f908152600560205260409020546001600160a01b031690565b6040516001600160a01b0390911681526020016100bf565b61011b610116366004610748565b610286565b005b61012660025481565b6040519081526020016100bf565b61011b610142366004610770565b610349565b6100f0610155366004610716565b6104f4565b6101266101683660046107a9565b610558565b61012661017b3660046107a9565b6001600160a01b03165f9081526004602052604090205490565b6100b2610652565b61011b6101ab3660046107c9565b61065f565b6101eb6101be366004610802565b6001600160a01b039182165f90815260066020908152604080832093909416825291909152205460ff1690565b60405190151581526020016100bf565b5f805461020790610833565b80601f016020809104026020016040519081016040528092919081815260200182805461023390610833565b801561027e5780601f106102555761010080835404028352916020019161027e565b820191905f5260205f20905b81548152906001019060200180831161026157829003601f168201915b505050505081565b5f818152600360205260409020546001600160a01b03163381148015906102d057506001600160a01b0381165f90815260066020908152604080832033845290915290205460ff16155b156102ee576040516330cd747160e01b815260040160405180910390fd5b5f8281526005602052604080822080546001600160a01b0319166001600160a01b0387811691821790925591518593918516917f8c5be1e5ebec7d5bd14f71427d1e84f3dd0314c0f7b2291e5b200ac8c7c3b92591a4505050565b5f818152600360205260409020546001600160a01b03848116911614610382576040516330cd747160e01b815260040160405180910390fd5b336001600160a01b038416148015906103b157505f818152600560205260409020546001600160a01b03163314155b80156103e057506001600160a01b0383165f90815260066020908152604080832033845290915290205460ff16155b156103fe576040516330cd747160e01b815260040160405180910390fd5b6001600160a01b03821661042557604051634e46966960e11b815260040160405180910390fd5b5f81815260056020908152604080832080546001600160a01b03191690556001600160a01b03861683526004909152812080546001929061046790849061087f565b90915550506001600160a01b0382165f908152600460205260408120805460019290610494908490610892565b90915550505f8181526003602052604080822080546001600160a01b0319166001600160a01b0386811691821790925591518493918716917fddf252ad1be2c89b69c2b068fc378daa952ba7f163c4a11628f55a4df523b3ef91a4505050565b5f818152600360205260408120546001600160a01b0316806105525760405162461bcd60e51b8152602060048201526013602482015272115490cdcc8c4e881b9bdb995e1a5cdd195b9d606a1b604482015260640160405180910390fd5b92915050565b5f6001600160a01b03821661058057604051634e46966960e11b815260040160405180910390fd5b60025461058e906001610892565b5f818152600360205260409020549091506001600160a01b0316156105c657604051631bbdf5c560e31b815260040160405180910390fd5b5f81815260036020908152604080832080546001600160a01b0319166001600160a01b03871690811790915583526004909152812080546001929061060c908490610892565b9091555050600281905560405181906001600160a01b038416905f907fddf252ad1be2c89b69c2b068fc378daa952ba7f163c4a11628f55a4df523b3ef908290a4919050565b6001805461020790610833565b335f8181526006602090815260408083206001600160a01b03871680855290835292819020805460ff191686151590811790915590519081529192917f17307eab39ab6107e8899845ad3d59bd9653f200f220920489ca2b5937696c31910160405180910390a35050565b5f602080835283518060208501525f5b818110156106f6578581018301518582016040015282016106da565b505f604082860101526040601f19601f8301168501019250505092915050565b5f60208284031215610726575f80fd5b5035919050565b80356001600160a01b0381168114610743575f80fd5b919050565b5f8060408385031215610759575f80fd5b6107628361072d565b946020939093013593505050565b5f805f60608486031215610782575f80fd5b61078b8461072d565b92506107996020850161072d565b9150604084013590509250925092565b5f602082840312156107b9575f80fd5b6107c28261072d565b9392505050565b5f80604083850312156107da575f80fd5b6107e38361072d565b9150602083013580151581146107f7575f80fd5b809150509250929050565b5f8060408385031215610813575f80fd5b61081c8361072d565b915061082a6020840161072d565b90509250929050565b600181811c9082168061084757607f821691505b60208210810361086557634e487b7160e01b5f52602260045260245ffd5b50919050565b634e487b7160e01b5f52601160045260245ffd5b818103818111156105525761055261086b565b808201808211156105525761055261086b56fea26469706673582212207ce53e3d08a0f9f7d5b7c0d36ef9c43e4d9e5408908c8bad6070a034ed5bee1c64736f6c63430008180033","linkReferences":{}},"methodIdentifiers":{"approve(address,uint256)":"095ea7b3","balanceOf(address)":"70a08231","getApproved(uint256)":"081812fc","isApprovedForAll(address,address)":"e985e9c5","mint(address)":"6a627842","name()":"06fdde03","ownerOf(uint256)":"6352211e","setApprovalForAll(address,bool)":"a22cb465","symbol()":"95d89b41","totalSupply()":"18160ddd","transferFrom(address,address,uint256)":"23b872dd"},"id":0}