{"abi":[{"type":"constructor","inputs":[],"stateMutability":"nonpayable"},{"type":"function","name":"MAX_SUPPLY","inputs":[],"outputs":[{"name":"","type":"uint256","internalType":"uint256"}],"stateMutability":"view"},{"type":"function","name":"ROYALTY_BPS","inputs":[],"outputs":[{"name":"","type":"uint96","internalType":"uint96"}],"stateMutability":"view"},{"type":"function","name":"approve","inputs":[{"name":"to","type":"address","internalType":"address"},{"name":"tokenId","type":"uint256","internalType":"uint256"}],"outputs":[],"stateMutability":"nonpayable"},{"type":"function","name":"balanceOf","inputs":[{"name":"owner","type":"address","internalType":"address"}],"outputs":[{"name":"","type":"uint256","internalType":"uint256"}],"stateMutability":"view"},{"type":"function","name":"batchMint","inputs":[{"name":"to","type":"address","internalType":"address"},{"name":"count","type":"uint256","internalType":"uint256"}],"outputs":[{"name":"tokenIds","type":"uint256[]","internalType":"uint256[]"}],"stateMutability":"nonpayable"},{"type":"function","name":"getApproved","inputs":[{"name":"tokenId","type":"uint256","internalType":"uint256"}],"outputs":[{"name":"","type":"address","internalType":"address"}],"stateMutability":"view"},{"type":"function","name":"isApprovedForAll","inputs":[{"name":"owner","type":"address","internalType":"address"},{"name":"operator","type":"address","internalType":"address"}],"outputs":[{"name":"","type":"bool","internalType":"bool"}],"stateMutability":"view"},{"type":"function","name":"mint","inputs":[{"name":"to","type":"address","internalType":"address"}],"outputs":[{"name":"tokenId","type":"uint256","internalType":"uint256"}],"stateMutability":"nonpayable"},{"type":"function","name":"name","inputs":[],"outputs":[{"name":"","type":"string","internalType":"string"}],"stateMutability":"view"},{"type":"function","name":"ownerOf","inputs":[{"name":"tokenId","type":"uint256","internalType":"uint256"}],"outputs":[{"name":"","type":"address","internalType":"address"}],"stateMutability":"view"},{"type":"function","name":"royaltyInfo","inputs":[{"name":"","type":"uint256","internalType":"uint256"},{"name":"salePrice","type":"uint256","internalType":"uint256"}],"outputs":[{"name":"receiver","type":"address","internalType":"address"},{"name":"royaltyAmount","type":"uint256","internalType":"uint256"}],"stateMutability":"view"},{"type":"function","name":"royaltyReceiver","inputs":[],"outputs":[{"name":"","type":"address","internalType":"address"}],"stateMutability":"view"},{"type":"function","name":"safeTransferFrom","inputs":[{"name":"from","type":"address","internalType":"address"},{"name":"to","type":"address","internalType":"address"},{"name":"tokenId","type":"uint256","internalType":"uint256"}],"outputs":[],"stateMutability":"nonpayable"},{"type":"function","name":"safeTransferFrom","inputs":[{"name":"from","type":"address","internalType":"address"},{"name":"to","type":"address","internalType":"address"},{"name":"tokenId","type":"uint256","internalType":"uint256"},{"name":"data","type":"bytes","internalType":"bytes"}],"outputs":[],"stateMutability":"nonpayable"},{"type":"function","name":"setApprovalForAll","inputs":[{"name":"operator","type":"address","internalType":"address"},{"name":"approved","type":"bool","internalType":"bool"}],"outputs":[],"stateMutability":"nonpayable"},{"type":"function","name":"supportsInterface","inputs":[{"name":"interfaceId","type":"bytes4","internalType":"bytes4"}],"outputs":[{"name":"","type":"bool","internalType":"bool"}],"stateMutability":"pure"},{"type":"function","name":"symbol","inputs":[],"outputs":[{"name":"","type":"string","internalType":"string"}],"stateMutability":"view"},{"type":"function","name":"tokenByIndex","inputs":[{"name":"index","type":"uint256","internalType":"uint256"}],"outputs":[{"name":"","type":"uint256","internalType":"uint256"}],"stateMutability":"view"},{"type":"function","name":"tokenOfOwnerByIndex","inputs":[{"name":"owner","type":"address","internalType":"address"},{"name":"index","type":"uint256","internalType":"uint256"}],"outputs":[{"name":"","type":"uint256","internalType":"uint256"}],"stateMutability":"view"},{"type":"function","name":"totalSupply","inputs":[],"outputs":[{"name":"","type":"uint256","internalType":"uint256"}],"stateMutability":"view"},{"type":"function","name":"transferFrom","inputs":[{"name":"from","type":"address","internalType":"address"},{"name":"to","type":"address","internalType":"address"},{"name":"tokenId","type":"uint256","internalType":"uint256"}],"outputs":[],"stateMutability":"nonpayable"},{"type":"event","name":"Approval","inputs":[{"name":"owner","type":"address","indexed":true,"internalType":"address"},{"name":"approved","type":"address","indexed":true,"internalType":"address"},{"name":"tokenId","type":"uint256","indexed":true,"internalType":"uint256"}],"anonymous":false},{"type":"event","name":"ApprovalForAll","inputs":[{"name":"owner","type":"address","indexed":true,"internalType":"address"},{"name":"operator","type":"address","indexed":true,"internalType":"address"},{"name":"approved","type":"bool","indexed":false,"internalType":"bool"}],"anonymous":false},{"type":"event","name":"Transfer","inputs":[{"name":"from","type":"address","indexed":true,"internalType":"address"},{"name":"to","type":"address","indexed":true,"internalType":"address"},{"name":"tokenId","type":"uint256","indexed":true,"internalType":"uint256"}],"anonymous":false},{"type":"error","name":"AlreadyMinted","inputs":[]},{"type":"error","name":"InvalidRecipient","inputs":[]},{"type":"error","name":"MaxSupplyReached","inputs":[{"name":"maxSupply","type":"uint256","internalType":"uint256"}]},{"type":"error","name":"NotOwner","inputs":[]},{"type":"error","name":"OwnerIndexOutOfBounds","inputs":[]},{"type":"error","name":"TokenIndexOutOfBounds","inputs":[]},{"type":"error","name":"UnsafeRecipient","inputs":[]}],"bytecode":{"object":"0x60e0604052600a60a09081526911185c1c114c9953919560b21b60c0525f906200002a90826200010b565b506040805180820190915260048152634445324560e01b60208201526001906200005590826200010b565b5034801562000062575f80fd5b5033608052620001d7565b634e487b7160e01b5f52604160045260245ffd5b600181811c908216806200009657607f821691505b602082108103620000b557634e487b7160e01b5f52602260045260245ffd5b50919050565b601f8211156200010657805f5260205f20601f840160051c81016020851015620000e25750805b601f840160051c820191505b8181101562000103575f8155600101620000ee565b50505b505050565b81516001600160401b038111156200012757620001276200006d565b6200013f8162000138845462000081565b84620000bb565b602080601f83116001811462000175575f84156200015d5750858301515b5f19600386901b1c1916600185901b178555620001cf565b5f85815260208120601f198616915b82811015620001a55788860151825594840194600190910190840162000184565b5085821015620001c357878501515f19600388901b60f8161c191681555b505060018460011b0185555b505050505050565b6080516110ef620001f75f395f8181610306015261055501526110ef5ff3fe608060405234801561000f575f80fd5b5060043610610132575f3560e01c806343508b05116100b457806370a082311161007957806370a08231146102d157806395d89b41146102f95780639fbc871314610301578063a22cb46514610328578063b88d4fde1461033b578063e985e9c51461034e575f80fd5b806343508b051461025257806349c657db146102725780634f6ccce7146102985780636352211e146102ab5780636a627842146102be575f80fd5b806323b872dd116100fa57806323b872dd146101df5780632a55205a146101f25780632f745c591461022457806332cb6b0c1461023757806342842e0e1461023f575f80fd5b806301ffc9a71461013657806306fdde031461015e578063081812fc14610173578063095ea7b3146101b357806318160ddd146101c8575b5f80fd5b610149610144366004610cd6565b610389565b60405190151581526020015b60405180910390f35b6101666103f5565b6040516101559190610d3b565b61019b610181366004610d4d565b5f908152600560205260409020546001600160a01b031690565b6040516001600160a01b039091168152602001610155565b6101c66101c1366004610d7f565b610480565b005b6101d160025481565b604051908152602001610155565b6101c66101ed366004610da7565b610543565b610205610200366004610de0565b610553565b604080516001600160a01b039093168352602083019190915201610155565b6101d1610232366004610d7f565b610597565b6101d1600a81565b6101c661024d366004610da7565b6105f6565b610265610260366004610d7f565b610610565b6040516101559190610e00565b61027b6101f481565b6040516bffffffffffffffffffffffff9091168152602001610155565b6101d16102a6366004610d4d565b6106f3565b61019b6102b9366004610d4d565b610721565b6101d16102cc366004610e43565b61077b565b6101d16102df366004610e43565b6001600160a01b03165f9081526004602052604090205490565b610166610785565b61019b7f000000000000000000000000000000000000000000000000000000000000000081565b6101c6610336366004610e5c565b610792565b6101c6610349366004610ea9565b6107fd565b61014961035c366004610f7e565b6001600160a01b039182165f90815260066020908152604080832093909416825291909152205460ff1690565b5f6001600160e01b031982166301ffc9a760e01b14806103b957506001600160e01b031982166380ac58cd60e01b145b806103d457506001600160e01b0319821663780e9d6360e01b145b806103ef57506001600160e01b0319821663152a902d60e11b145b92915050565b5f805461040190610fa6565b80601f016020809104026020016040519081016040528092919081815260200182805461042d90610fa6565b80156104785780601f1061044f57610100808354040283529160200191610478565b820191905f5260205f20905b81548152906001019060200180831161045b57829003601f168201915b505050505081565b5f818152600360205260409020546001600160a01b03163381148015906104ca57506001600160a01b0381165f90815260066020908152604080832033845290915290205460ff16155b156104e8576040516330cd747160e01b815260040160405180910390fd5b5f8281526005602052604080822080546001600160a01b0319166001600160a01b0387811691821790925591518593918516917f8c5be1e5ebec7d5bd14f71427d1e84f3dd0314c0f7b2291e5b200ac8c7c3b92591a4505050565b61054e83838361081a565b505050565b7f00000000000000000000000000000000000000000000000000000000000000005f6127106105846101f485610ff2565b61058e9190611009565b90509250929050565b6001600160a01b0382165f9081526004602052604081205482106105ce576040516306ed618760e11b815260040160405180910390fd5b506001600160a01b03919091165f908152600760209081526040808320938352929052205490565b61054e83838360405180602001604052805f8152506107fd565b60606001600160a01b03831661063957604051634e46966960e11b815260040160405180910390fd5b60025461064790600a611028565b82111561066f5760405163f9f8491560e01b8152600a60048201526024015b60405180910390fd5b8167ffffffffffffffff81111561068857610688610e95565b6040519080825280602002602001820160405280156106b1578160200160208202803683370190505b5090505f5b828110156106ec576106c7846109db565b8282815181106106d9576106d961103b565b60209081029190910101526001016106b6565b5092915050565b5f6002548210610716576040516329c8c00760e21b815260040160405180910390fd5b6103ef82600161104f565b5f818152600360205260408120546001600160a01b0316806103ef5760405162461bcd60e51b8152602060048201526013602482015272115490cdcc8c4e881b9bdb995e1a5cdd195b9d606a1b6044820152606401610666565b5f6103ef826109db565b6001805461040190610fa6565b335f8181526006602090815260408083206001600160a01b03871680855290835292819020805460ff191686151590811790915590519081529192917f17307eab39ab6107e8899845ad3d59bd9653f200f220920489ca2b5937696c31910160405180910390a35050565b61080884848461081a565b61081484848484610b0b565b50505050565b5f818152600360205260409020546001600160a01b03848116911614610853576040516330cd747160e01b815260040160405180910390fd5b336001600160a01b0384161480159061088257505f818152600560205260409020546001600160a01b03163314155b80156108b157506001600160a01b0383165f90815260066020908152604080832033845290915290205460ff16155b156108cf576040516330cd747160e01b815260040160405180910390fd5b6001600160a01b0382166108f657604051634e46966960e11b815260040160405180910390fd5b5f81815260056020526040902080546001600160a01b031916905561091b8382610bdc565b6001600160a01b0383165f908152600460205260408120805460019290610943908490611028565b9091555061095390508282610c83565b6001600160a01b0382165f90815260046020526040812080546001929061097b90849061104f565b90915550505f8181526003602052604080822080546001600160a01b0319166001600160a01b0386811691821790925591518493918716917fddf252ad1be2c89b69c2b068fc378daa952ba7f163c4a11628f55a4df523b3ef91a4505050565b5f6001600160a01b038216610a0357604051634e46966960e11b815260040160405180910390fd5b600254610a1190600161104f565b9050600a811115610a385760405163f9f8491560e01b8152600a6004820152602401610666565b5f818152600360205260409020546001600160a01b031615610a6d57604051631bbdf5c560e31b815260040160405180910390fd5b5f81815260036020526040902080546001600160a01b0319166001600160a01b038416179055610a9d8282610c83565b6001600160a01b0382165f908152600460205260408120805460019290610ac590849061104f565b9091555050600281905560405181906001600160a01b038416905f907fddf252ad1be2c89b69c2b068fc378daa952ba7f163c4a11628f55a4df523b3ef908290a4919050565b6001600160a01b0383163b1561081457604051630a85bd0160e11b81526001600160a01b0384169063150b7a0290610b4d903390889087908790600401611062565b6020604051808303815f875af1925050508015610b87575060408051601f3d908101601f19168201909252610b849181019061109e565b60015b610ba457604051633da6393160e01b815260040160405180910390fd5b6001600160e01b03198116630a85bd0160e11b14610bd557604051633da6393160e01b815260040160405180910390fd5b5050505050565b6001600160a01b0382165f90815260046020526040812054610c0090600190611028565b5f83815260086020526040902054909150808214610c51576001600160a01b0384165f9081526007602090815260408083208584528252808320548484528184208190558352600890915290208190555b505f9182526008602090815260408084208490556001600160a01b039094168352600781528383209183525290812055565b6001600160a01b039091165f908152600460209081526040808320546007835281842081855283528184208590559383526008909152902055565b6001600160e01b031981168114610cd3575f80fd5b50565b5f60208284031215610ce6575f80fd5b8135610cf181610cbe565b9392505050565b5f81518084525f5b81811015610d1c57602081850181015186830182015201610d00565b505f602082860101526020601f19601f83011685010191505092915050565b602081525f610cf16020830184610cf8565b5f60208284031215610d5d575f80fd5b5035919050565b80356001600160a01b0381168114610d7a575f80fd5b919050565b5f8060408385031215610d90575f80fd5b610d9983610d64565b946020939093013593505050565b5f805f60608486031215610db9575f80fd5b610dc284610d64565b9250610dd060208501610d64565b9150604084013590509250925092565b5f8060408385031215610df1575f80fd5b50508035926020909101359150565b602080825282518282018190525f9190848201906040850190845b81811015610e3757835183529284019291840191600101610e1b565b50909695505050505050565b5f60208284031215610e53575f80fd5b610cf182610d64565b5f8060408385031215610e6d575f80fd5b610e7683610d64565b915060208301358015158114610e8a575f80fd5b809150509250929050565b634e487b7160e01b5f52604160045260245ffd5b5f805f8060808587031215610ebc575f80fd5b610ec585610d64565b9350610ed360208601610d64565b925060408501359150606085013567ffffffffffffffff80821115610ef6575f80fd5b818701915087601f830112610f09575f80fd5b813581811115610f1b57610f1b610e95565b604051601f8201601f19908116603f01168101908382118183101715610f4357610f43610e95565b816040528281528a6020848701011115610f5b575f80fd5b826020860160208301375f60208483010152809550505050505092959194509250565b5f8060408385031215610f8f575f80fd5b610f9883610d64565b915061058e60208401610d64565b600181811c90821680610fba57607f821691505b602082108103610fd857634e487b7160e01b5f52602260045260245ffd5b50919050565b634e487b7160e01b5f52601160045260245ffd5b80820281158282048414176103ef576103ef610fde565b5f8261102357634e487b7160e01b5f52601260045260245ffd5b500490565b818103818111156103ef576103ef610fde565b634e487b7160e01b5f52603260045260245ffd5b808201808211156103ef576103ef610fde565b6001600160a01b03858116825284166020820152604081018390526080606082018190525f9061109490830184610cf8565b9695505050505050565b5f602082840312156110ae575f80fd5b8151610cf181610cbe56fea26469706673582212209da7730ceee4abdc4a70edf0d7b5a28ea7c02116fa59d237f3dcc2791f69aaef64736f6c63430008180033","linkReferences":{}},"methodIdentifiers":{"MAX_SUPPLY()":"32cb6b0c","ROYALTY_BPS()":"49c657db","approve(address,uint256)":"095ea7b3","balanceOf(address)":"70a08231","batchMint(address,uint256)":"43508b05","getApproved(uint256)":"081812fc","isApprovedForAll(address,address)":"e985e9c5","mint(address)":"6a627842","name()":"06fdde03","ownerOf(uint256)":"6352211e","royaltyInfo(uint256,uint256)":"2a55205a","royaltyReceiver()":"9fbc8713","safeTransferFrom(address,address,uint256)":"42842e0e","safeTransferFrom(address,address,uint256,bytes)":"b88d4fde","setApprovalForAll(address,bool)":"a22cb465","supportsInterface(bytes4)":"01ffc9a7","symbol()":"95d89b41","tokenByIndex(uint256)":"4f6ccce7","tokenOfOwnerByIndex(address,uint256)":"2f745c59","totalSupply()":"18160ddd","transferFrom(address,address,uint256)":"23b872dd"},"id":0}