{"abi":[{"type":"function","name":"commitments","inputs":[{"name":"","type":"address","internalType":"address"}],"outputs":[{"name":"","type":"bytes32","internalType":"bytes32"}],"stateMutability":"view"},{"type":"function","name":"isValid","inputs":[{"name":"who","type":"address","internalType":"address"},{"name":"secret","type":"bytes32","internalType":"bytes32"},{"name":"message","type":"string","internalType":"string"}],"outputs":[{"name":"","type":"bool","internalType":"bool"}],"stateMutability":"view"},{"type":"function","name":"setCommitment","inputs":[{"name":"commitment","type":"bytes32","internalType":"bytes32"}],"outputs":[],"stateMutability":"nonpayable"},{"type":"function","name":"totalVerified","inputs":[],"outputs":[{"name":"","type":"uint256","internalType":"uint256"}],"stateMutability":"view"},{"type":"function","name":"verifiedCount","inputs":[{"name":"","type":"address","internalType":"address"}],"outputs":[{"name":"","type":"uint256","internalType":"uint256"}],"stateMutability":"view"},{"type":"function","name":"verify","inputs":[{"name":"secret","type":"bytes32","internalType":"bytes32"},{"name":"message","type":"string","internalType":"string"}],"outputs":[{"name":"success","type":"bool","internalType":"bool"}],"stateMutability":"nonpayable"},{"type":"event","name":"CommitmentSet","inputs":[{"name":"who","type":"address","indexed":true,"internalType":"address"},{"name":"commitment","type":"bytes32","indexed":false,"internalType":"bytes32"}],"anonymous":false},{"type":"event","name":"Verified","inputs":[{"name":"who","type":"address","indexed":true,"internalType":"address"},{"name":"message","type":"string","indexed":false,"internalType":"string"}],"anonymous":false},{"type":"error","name":"InvalidCommitment","inputs":[]},{"type":"error","name":"NoCommitment","inputs":[]}],"bytecode":{"object":"0x608060405234801561000f575f80fd5b506104818061001d5f395ff3fe608060405234801561000f575f80fd5b5060043610610060575f3560e01c80635e8e6e2d146100645780639444442c1461008c578063abe200321461009f578063e8fcf723146100b4578063ea0b6f68146100e1578063fe9eba1514610100575b5f80fd5b6100776100723660046102f0565b610109565b60405190151581526020015b60405180910390f35b61007761009a366004610353565b610206565b6100b26100ad3660046103a9565b610265565b005b6100d36100c23660046103c0565b5f6020819052908152604090205481565b604051908152602001610083565b6100d36100ef3660046103c0565b60016020525f908152604090205481565b6100d360025481565b335f908152602081905260408120548061013657604051635b07c98960e01b815260040160405180910390fd5b5f85858560405160200161014c939291906103e0565b60405160208183030381529060405280519060200120905081811461018457604051636033c4fd60e11b815260040160405180910390fd5b335f90815260016020526040812080549161019e836103f9565b909155505060028054905f6101b2836103f9565b9190505550336001600160a01b03167fde4a3ec4788cca45e3b5027338a0ccb00ffb9934ab4db15273e7c2be929faa8186866040516101f292919061041d565b60405180910390a250600195945050505050565b6001600160a01b0384165f908152602081905260408120548061022c575f91505061025d565b80858585604051602001610242939291906103e0565b60405160208183030381529060405280519060200120149150505b949350505050565b335f818152602081815260409182902084905590518381527f3ec55933b57c2b3334f80bcc7e66c812ddbc9e2856ea9b282cfa69a8c72f467f910160405180910390a250565b5f8083601f8401126102bb575f80fd5b50813567ffffffffffffffff8111156102d2575f80fd5b6020830191508360208285010111156102e9575f80fd5b9250929050565b5f805f60408486031215610302575f80fd5b83359250602084013567ffffffffffffffff81111561031f575f80fd5b61032b868287016102ab565b9497909650939450505050565b80356001600160a01b038116811461034e575f80fd5b919050565b5f805f8060608587031215610366575f80fd5b61036f85610338565b935060208501359250604085013567ffffffffffffffff811115610391575f80fd5b61039d878288016102ab565b95989497509550505050565b5f602082840312156103b9575f80fd5b5035919050565b5f602082840312156103d0575f80fd5b6103d982610338565b9392505050565b838152818360208301375f910160200190815292915050565b5f6001820161041657634e487b7160e01b5f52601160045260245ffd5b5060010190565b60208152816020820152818360408301375f818301604090810191909152601f909201601f1916010191905056fea26469706673582212202520dd1c7ba3f08c20a03a705e808b34b241e9e7461e49863ebc11a29620fdea64736f6c63430008180033","linkReferences":{}},"methodIdentifiers":{"commitments(address)":"e8fcf723","isValid(address,bytes32,string)":"9444442c","setCommitment(bytes32)":"abe20032","totalVerified()":"fe9eba15","verifiedCount(address)":"ea0b6f68","verify(bytes32,string)":"5e8e6e2d"},"id":0}