{"abi":[{"type":"constructor","inputs":[{"name":"stake","type":"address","internalType":"address"},{"name":"reward","type":"address","internalType":"address"},{"name":"daoController","type":"address","internalType":"address"},{"name":"rewardRatePerSecond","type":"uint256","internalType":"uint256"}],"stateMutability":"nonpayable"},{"type":"function","name":"MIN_STAKE_DURATION","inputs":[],"outputs":[{"name":"","type":"uint256","internalType":"uint256"}],"stateMutability":"view"},{"type":"function","name":"PENALTY_RATE","inputs":[],"outputs":[{"name":"","type":"uint256","internalType":"uint256"}],"stateMutability":"view"},{"type":"function","name":"REWARD_PRECISION","inputs":[],"outputs":[{"name":"","type":"uint256","internalType":"uint256"}],"stateMutability":"view"},{"type":"function","name":"accruedReward","inputs":[{"name":"","type":"address","internalType":"address"}],"outputs":[{"name":"","type":"uint256","internalType":"uint256"}],"stateMutability":"view"},{"type":"function","name":"claim","inputs":[],"outputs":[{"name":"payout","type":"uint256","internalType":"uint256"}],"stateMutability":"nonpayable"},{"type":"function","name":"controller","inputs":[],"outputs":[{"name":"","type":"address","internalType":"address"}],"stateMutability":"view"},{"type":"function","name":"lastUpdateTime","inputs":[],"outputs":[{"name":"","type":"uint256","internalType":"uint256"}],"stateMutability":"view"},{"type":"function","name":"pendingReward","inputs":[{"name":"user","type":"address","internalType":"address"}],"outputs":[{"name":"","type":"uint256","internalType":"uint256"}],"stateMutability":"view"},{"type":"function","name":"rewardPerToken","inputs":[],"outputs":[{"name":"","type":"uint256","internalType":"uint256"}],"stateMutability":"view"},{"type":"function","name":"rewardPerTokenStored","inputs":[],"outputs":[{"name":"","type":"uint256","internalType":"uint256"}],"stateMutability":"view"},{"type":"function","name":"rewardRate","inputs":[],"outputs":[{"name":"","type":"uint256","internalType":"uint256"}],"stateMutability":"view"},{"type":"function","name":"rewardToken","inputs":[],"outputs":[{"name":"","type":"address","internalType":"contract IERC20"}],"stateMutability":"view"},{"type":"function","name":"stake","inputs":[{"name":"amount","type":"uint256","internalType":"uint256"}],"outputs":[],"stateMutability":"nonpayable"},{"type":"function","name":"stakeStartedAt","inputs":[{"name":"","type":"address","internalType":"address"}],"outputs":[{"name":"","type":"uint256","internalType":"uint256"}],"stateMutability":"view"},{"type":"function","name":"stakeToken","inputs":[],"outputs":[{"name":"","type":"address","internalType":"contract IERC20"}],"stateMutability":"view"},{"type":"function","name":"stakedBalance","inputs":[{"name":"","type":"address","internalType":"address"}],"outputs":[{"name":"","type":"uint256","internalType":"uint256"}],"stateMutability":"view"},{"type":"function","name":"totalStaked","inputs":[],"outputs":[{"name":"","type":"uint256","internalType":"uint256"}],"stateMutability":"view"},{"type":"function","name":"unstake","inputs":[{"name":"amount","type":"uint256","internalType":"uint256"}],"outputs":[],"stateMutability":"nonpayable"},{"type":"function","name":"userRewardPerTokenPaid","inputs":[{"name":"","type":"address","internalType":"address"}],"outputs":[{"name":"","type":"uint256","internalType":"uint256"}],"stateMutability":"view"},{"type":"event","name":"Claimed","inputs":[{"name":"user","type":"address","indexed":true,"internalType":"address"},{"name":"amount","type":"uint256","indexed":false,"internalType":"uint256"}],"anonymous":false},{"type":"event","name":"PenaltyPaid","inputs":[{"name":"user","type":"address","indexed":true,"internalType":"address"},{"name":"amount","type":"uint256","indexed":false,"internalType":"uint256"},{"name":"controller","type":"address","indexed":true,"internalType":"address"}],"anonymous":false},{"type":"event","name":"Staked","inputs":[{"name":"user","type":"address","indexed":true,"internalType":"address"},{"name":"amount","type":"uint256","indexed":false,"internalType":"uint256"}],"anonymous":false},{"type":"event","name":"Unstaked","inputs":[{"name":"user","type":"address","indexed":true,"internalType":"address"},{"name":"amount","type":"uint256","indexed":false,"internalType":"uint256"},{"name":"returnedAmount","type":"uint256","indexed":false,"internalType":"uint256"},{"name":"penaltyAmount","type":"uint256","indexed":false,"internalType":"uint256"}],"anonymous":false},{"type":"error","name":"InsufficientStake","inputs":[]},{"type":"error","name":"NoReward","inputs":[]},{"type":"error","name":"TransferFailed","inputs":[]}],"bytecode":{"object":"0x610100604052348015610010575f80fd5b50604051610bf4380380610bf483398101604081905261002f91610070565b6001600160a01b0393841660805291831660a05290911660c05260e052426002556100b8565b80516001600160a01b038116811461006b575f80fd5b919050565b5f805f8060808587031215610083575f80fd5b61008c85610055565b935061009a60208601610055565b92506100a860408601610055565b6060959095015193969295505050565b60805160a05160c05160e051610ad861011c5f395f81816101e9015261089d01525f81816102a0015281816103b5015261047b01525f81816102c7015261066901525f818161018b015281816103e4015281816104fb01526107530152610ad85ff3fe608060405234801561000f575f80fd5b506004361061011c575f3560e01c80638b876347116100a9578063df136d651161006e578063df136d6514610275578063e0c570ba1461027e578063f40f0f5214610288578063f77c47911461029b578063f7c618c1146102c2575f80fd5b80638b87634714610213578063a694fc3a14610232578063c8f33c9114610245578063cd3daf9d1461024e578063cfcfec5514610256575f80fd5b80634e71d92d116100ef5780634e71d92d1461017e57806351ed6a301461018657806360217267146101c55780637b0a47ee146101e4578063817b1cd21461020b575f80fd5b80630ad08b8614610120578063189212f01461013b5780632e17de781461015a5780633d6aa5e11461016f575b5f80fd5b610128600a81565b6040519081526020015b60405180910390f35b6101286101493660046109cf565b60056020525f908152604090205481565b61016d6101683660046109fc565b6102e9565b005b610128670de0b6b3a764000081565b6101286105f7565b6101ad7f000000000000000000000000000000000000000000000000000000000000000081565b6040516001600160a01b039091168152602001610132565b6101286101d33660046109cf565b60036020525f908152604090205481565b6101287f000000000000000000000000000000000000000000000000000000000000000081565b6101285f5481565b6101286102213660046109cf565b60046020525f908152604090205481565b61016d6102403660046109fc565b610728565b61012860025481565b61012861086a565b6101286102643660046109cf565b60066020525f908152604090205481565b61012860015481565b61012862093a8081565b6101286102963660046109cf565b6108e8565b6101ad7f000000000000000000000000000000000000000000000000000000000000000081565b6101ad7f000000000000000000000000000000000000000000000000000000000000000081565b335f90815260036020526040902054811115610318576040516378de4a6960e11b815260040160405180910390fd5b610321336108f8565b335f908152600360205260408120805483929061033f908490610a27565b92505081905550805f808282546103569190610a27565b9091555050335f9081526006602052604081205462093a80906103799042610a27565b10156104cc57606461038c600a84610a3a565b6103969190610a51565b905080156104cc5760405163a9059cbb60e01b81526001600160a01b037f000000000000000000000000000000000000000000000000000000000000000081166004830152602482018390527f0000000000000000000000000000000000000000000000000000000000000000169063a9059cbb906044016020604051808303815f875af115801561042a573d5f803e3d5ffd5b505050506040513d601f19601f8201168201806040525081019061044e9190610a70565b61046b576040516312171d8360e31b815260040160405180910390fd5b6040518181526001600160a01b037f0000000000000000000000000000000000000000000000000000000000000000169033907f15c495a101d34245c119f377c2ea0ffdb71aae2974259156dcba1a7ba613834a9060200160405180910390a35b5f6104d78284610a27565b9050801561058a5760405163a9059cbb60e01b8152336004820152602481018290527f00000000000000000000000000000000000000000000000000000000000000006001600160a01b03169063a9059cbb906044016020604051808303815f875af1158015610549573d5f803e3d5ffd5b505050506040513d601f19601f8201168201806040525081019061056d9190610a70565b61058a576040516312171d8360e31b815260040160405180910390fd5b335f9081526003602052604081205490036105af57335f908152600660205260408120555b604080518481526020810183905290810183905233907f204fccf0d92ed8d48f204adb39b2e81e92bad0dedb93f5716ca9478cfb57de009060600160405180910390a2505050565b5f610601336108f8565b50335f90815260056020526040812054908190036106325760405163374c934360e11b815260040160405180910390fd5b335f81815260056020526040808220919091555163a9059cbb60e01b81526004810191909152602481018290526001600160a01b037f0000000000000000000000000000000000000000000000000000000000000000169063a9059cbb906044016020604051808303815f875af11580156106af573d5f803e3d5ffd5b505050506040513d601f19601f820116820180604052508101906106d39190610a70565b6106f0576040516312171d8360e31b815260040160405180910390fd5b60405181815233907fd8138f8a3f377c5259ca548e70e4c2de94f129f5a11036a15b69513cba2b426a9060200160405180910390a290565b610731336108f8565b6040516323b872dd60e01b8152336004820152306024820152604481018290527f00000000000000000000000000000000000000000000000000000000000000006001600160a01b0316906323b872dd906064016020604051808303815f875af11580156107a1573d5f803e3d5ffd5b505050506040513d601f19601f820116820180604052508101906107c59190610a70565b6107e2576040516312171d8360e31b815260040160405180910390fd5b335f9081526003602052604081208054839290610800908490610a8f565b92505081905550805f808282546108179190610a8f565b9091555050335f8181526006602052604090819020429055517f9e71bc8eea02a63969f509818f2dafb9254532904319f9dbda79b67bd34a5f3d9061085f9084815260200190565b60405180910390a250565b5f80545f0361087a575060015490565b5f600254426108899190610a27565b5f54909150670de0b6b3a76400006108c1837f0000000000000000000000000000000000000000000000000000000000000000610a3a565b6108cb9190610a3a565b6108d59190610a51565b6001546108e29190610a8f565b91505090565b5f6108f28261094d565b92915050565b61090061086a565b600155426002556001600160a01b0381161561094a5761091f8161094d565b6001600160a01b0382165f908152600560209081526040808320939093556001546004909152919020555b50565b6001600160a01b0381165f90815260046020526040812054670de0b6b3a76400009061097761086a565b6109819190610a27565b6001600160a01b0384165f908152600360205260409020546109a39190610a3a565b6109ad9190610a51565b6001600160a01b0383165f908152600560205260409020546108f29190610a8f565b5f602082840312156109df575f80fd5b81356001600160a01b03811681146109f5575f80fd5b9392505050565b5f60208284031215610a0c575f80fd5b5035919050565b634e487b7160e01b5f52601160045260245ffd5b818103818111156108f2576108f2610a13565b80820281158282048414176108f2576108f2610a13565b5f82610a6b57634e487b7160e01b5f52601260045260245ffd5b500490565b5f60208284031215610a80575f80fd5b815180151581146109f5575f80fd5b808201808211156108f2576108f2610a1356fea264697066735822122093947f420c39b5a8c52ad53e432a8b419ec5ed0ce09fc48743666fa2075a4ac664736f6c63430008180033","linkReferences":{}},"methodIdentifiers":{"MIN_STAKE_DURATION()":"e0c570ba","PENALTY_RATE()":"0ad08b86","REWARD_PRECISION()":"3d6aa5e1","accruedReward(address)":"189212f0","claim()":"4e71d92d","controller()":"f77c4791","lastUpdateTime()":"c8f33c91","pendingReward(address)":"f40f0f52","rewardPerToken()":"cd3daf9d","rewardPerTokenStored()":"df136d65","rewardRate()":"7b0a47ee","rewardToken()":"f7c618c1","stake(uint256)":"a694fc3a","stakeStartedAt(address)":"cfcfec55","stakeToken()":"51ed6a30","stakedBalance(address)":"60217267","totalStaked()":"817b1cd2","unstake(uint256)":"2e17de78","userRewardPerTokenPaid(address)":"8b876347"},"id":1}