{"abi":[{"type":"constructor","inputs":[{"name":"stake","type":"address","internalType":"address"},{"name":"reward","type":"address","internalType":"address"}],"stateMutability":"nonpayable"},{"type":"function","name":"REWARD_RATE_PER_BLOCK","inputs":[],"outputs":[{"name":"","type":"uint256","internalType":"uint256"}],"stateMutability":"view"},{"type":"function","name":"accruedReward","inputs":[{"name":"","type":"address","internalType":"address"}],"outputs":[{"name":"","type":"uint256","internalType":"uint256"}],"stateMutability":"view"},{"type":"function","name":"claim","inputs":[],"outputs":[{"name":"payout","type":"uint256","internalType":"uint256"}],"stateMutability":"nonpayable"},{"type":"function","name":"lastUpdate","inputs":[{"name":"","type":"address","internalType":"address"}],"outputs":[{"name":"","type":"uint256","internalType":"uint256"}],"stateMutability":"view"},{"type":"function","name":"pendingReward","inputs":[{"name":"user","type":"address","internalType":"address"}],"outputs":[{"name":"","type":"uint256","internalType":"uint256"}],"stateMutability":"view"},{"type":"function","name":"rewardToken","inputs":[],"outputs":[{"name":"","type":"address","internalType":"contract IERC20"}],"stateMutability":"view"},{"type":"function","name":"stake","inputs":[{"name":"amount","type":"uint256","internalType":"uint256"}],"outputs":[],"stateMutability":"nonpayable"},{"type":"function","name":"stakeToken","inputs":[],"outputs":[{"name":"","type":"address","internalType":"contract IERC20"}],"stateMutability":"view"},{"type":"function","name":"stakedBalance","inputs":[{"name":"","type":"address","internalType":"address"}],"outputs":[{"name":"","type":"uint256","internalType":"uint256"}],"stateMutability":"view"},{"type":"function","name":"unstake","inputs":[{"name":"amount","type":"uint256","internalType":"uint256"}],"outputs":[],"stateMutability":"nonpayable"},{"type":"event","name":"Claimed","inputs":[{"name":"user","type":"address","indexed":true,"internalType":"address"},{"name":"amount","type":"uint256","indexed":false,"internalType":"uint256"}],"anonymous":false},{"type":"event","name":"Staked","inputs":[{"name":"user","type":"address","indexed":true,"internalType":"address"},{"name":"amount","type":"uint256","indexed":false,"internalType":"uint256"}],"anonymous":false},{"type":"event","name":"Unstaked","inputs":[{"name":"user","type":"address","indexed":true,"internalType":"address"},{"name":"amount","type":"uint256","indexed":false,"internalType":"uint256"}],"anonymous":false},{"type":"error","name":"InsufficientStake","inputs":[]},{"type":"error","name":"NoReward","inputs":[]},{"type":"error","name":"TransferFailed","inputs":[]}],"bytecode":{"object":"0x60c060405234801561000f575f80fd5b5060405161086b38038061086b83398101604081905261002e91610060565b6001600160a01b039182166080521660a052610091565b80516001600160a01b038116811461005b575f80fd5b919050565b5f8060408385031215610071575f80fd5b61007a83610045565b915061008860208401610045565b90509250929050565b60805160a0516107a56100c65f395f8181610196015261037701525f818160f30152818161023d015261045801526107a55ff3fe608060405234801561000f575f80fd5b506004361061009b575f3560e01c8063a694fc3a11610063578063a694fc3a1461014c578063cb03fb1e1461015f578063f40f0f521461017e578063f7c618c114610191578063fad2c9ed146101b8575f80fd5b8063189212f01461009f5780632e17de78146100d15780634e71d92d146100e657806351ed6a30146100ee578063602172671461012d575b5f80fd5b6100be6100ad366004610696565b60026020525f908152604090205481565b6040519081526020015b60405180910390f35b6100e46100df3660046106c3565b6101c6565b005b6100be610305565b6101157f000000000000000000000000000000000000000000000000000000000000000081565b6040516001600160a01b0390911681526020016100c8565b6100be61013b366004610696565b5f6020819052908152604090205481565b6100e461015a3660046106c3565b610436565b6100be61016d366004610696565b60016020525f908152604090205481565b6100be61018c366004610696565b610545565b6101157f000000000000000000000000000000000000000000000000000000000000000081565b6100be66038d7ea4c6800081565b335f908152602081905260409020548111156101f5576040516378de4a6960e11b815260040160405180910390fd5b6101fe336105da565b335f908152602081905260408120805483929061021c9084906106ee565b909155505060405163a9059cbb60e01b8152336004820152602481018290527f00000000000000000000000000000000000000000000000000000000000000006001600160a01b03169063a9059cbb906044016020604051808303815f875af115801561028b573d5f803e3d5ffd5b505050506040513d601f19601f820116820180604052508101906102af9190610707565b6102cc576040516312171d8360e31b815260040160405180910390fd5b60405181815233907f0f5bb82176feb1b5e747e28471aa92156a04d9f3ab9f45f28e2d704232b93f75906020015b60405180910390a250565b5f61030f336105da565b50335f90815260026020526040812054908190036103405760405163374c934360e11b815260040160405180910390fd5b335f81815260026020526040808220919091555163a9059cbb60e01b81526004810191909152602481018290526001600160a01b037f0000000000000000000000000000000000000000000000000000000000000000169063a9059cbb906044016020604051808303815f875af11580156103bd573d5f803e3d5ffd5b505050506040513d601f19601f820116820180604052508101906103e19190610707565b6103fe576040516312171d8360e31b815260040160405180910390fd5b60405181815233907fd8138f8a3f377c5259ca548e70e4c2de94f129f5a11036a15b69513cba2b426a9060200160405180910390a290565b6040516323b872dd60e01b8152336004820152306024820152604481018290527f00000000000000000000000000000000000000000000000000000000000000006001600160a01b0316906323b872dd906064016020604051808303815f875af11580156104a6573d5f803e3d5ffd5b505050506040513d601f19601f820116820180604052508101906104ca9190610707565b6104e7576040516312171d8360e31b815260040160405180910390fd5b6104f0336105da565b335f908152602081905260408120805483929061050e908490610726565b909155505060405181815233907f9e71bc8eea02a63969f509818f2dafb9254532904319f9dbda79b67bd34a5f3d906020016102fa565b6001600160a01b0381165f9081526020818152604080832054600183528184205460029093529083205490919082158061057d575081155b1561058a57949350505050565b5f61059583436106ee565b9050670de0b6b3a764000066038d7ea4c680006105b28387610739565b6105bc9190610739565b6105c69190610750565b6105d09083610726565b9695505050505050565b6001600160a01b0381165f9081526020818152604080832054600190925290912054811580159061060a57505f81115b15610679575f61061a82436106ee565b9050670de0b6b3a764000066038d7ea4c680006106378386610739565b6106419190610739565b61064b9190610750565b6001600160a01b0385165f9081526002602052604081208054909190610672908490610726565b9091555050505b50506001600160a01b03165f908152600160205260409020439055565b5f602082840312156106a6575f80fd5b81356001600160a01b03811681146106bc575f80fd5b9392505050565b5f602082840312156106d3575f80fd5b5035919050565b634e487b7160e01b5f52601160045260245ffd5b81810381811115610701576107016106da565b92915050565b5f60208284031215610717575f80fd5b815180151581146106bc575f80fd5b80820180821115610701576107016106da565b8082028115828204841417610701576107016106da565b5f8261076a57634e487b7160e01b5f52601260045260245ffd5b50049056fea2646970667358221220f6d68b57f60820207768d8365812d98c152a67d1ba81a5eb2a0c6d403013107b64736f6c63430008180033","linkReferences":{}},"methodIdentifiers":{"REWARD_RATE_PER_BLOCK()":"fad2c9ed","accruedReward(address)":"189212f0","claim()":"4e71d92d","lastUpdate(address)":"cb03fb1e","pendingReward(address)":"f40f0f52","rewardToken()":"f7c618c1","stake(uint256)":"a694fc3a","stakeToken()":"51ed6a30","stakedBalance(address)":"60217267","unstake(uint256)":"2e17de78"},"id":1}