{"abi":[{"type":"function","name":"counter","inputs":[],"outputs":[{"name":"","type":"uint256","internalType":"uint256"}],"stateMutability":"view"},{"type":"function","name":"increment","inputs":[],"outputs":[],"stateMutability":"nonpayable"},{"type":"event","name":"Incremented","inputs":[{"name":"caller","type":"address","indexed":true,"internalType":"address"},{"name":"newValue","type":"uint256","indexed":false,"internalType":"uint256"}],"anonymous":false}],"bytecode":{"object":"0x608060405234801561000f575f80fd5b5060fc8061001c5f395ff3fe6080604052348015600e575f80fd5b50600436106030575f3560e01c806361bc221a146034578063d09de08a14604d575b5f80fd5b603b5f5481565b60405190815260200160405180910390f35b60536055565b005b60015f808282546064919060a2565b90915550505f5460405190815233907f38ac789ed44572701765277c4d0970f2db1c1a571ed39e84358095ae4eaa54209060200160405180910390a2565b8082018082111560c057634e487b7160e01b5f52601160045260245ffd5b9291505056fea2646970667358221220fe90654b4a19e649cb88d3a7f78730749b0cc70025a31da6a7d4cd7c7904d61264736f6c63430008180033","linkReferences":{}},"methodIdentifiers":{"counter()":"61bc221a","increment()":"d09de08a"},"id":1}