{"abi":[{"type":"constructor","inputs":[{"name":"token","type":"address","internalType":"address"},{"name":"_votingPeriod","type":"uint256","internalType":"uint256"},{"name":"_quorum","type":"uint256","internalType":"uint256"}],"stateMutability":"nonpayable"},{"type":"function","name":"castVote","inputs":[{"name":"id","type":"uint256","internalType":"uint256"},{"name":"support","type":"uint8","internalType":"uint8"}],"outputs":[{"name":"weight","type":"uint256","internalType":"uint256"}],"stateMutability":"nonpayable"},{"type":"function","name":"hasVoted","inputs":[{"name":"id","type":"uint256","internalType":"uint256"},{"name":"voter","type":"address","internalType":"address"}],"outputs":[{"name":"","type":"bool","internalType":"bool"}],"stateMutability":"view"},{"type":"function","name":"proposalCount","inputs":[],"outputs":[{"name":"","type":"uint256","internalType":"uint256"}],"stateMutability":"view"},{"type":"function","name":"proposalView","inputs":[{"name":"id","type":"uint256","internalType":"uint256"}],"outputs":[{"name":"proposer","type":"address","internalType":"address"},{"name":"startBlock","type":"uint256","internalType":"uint256"},{"name":"endBlock","type":"uint256","internalType":"uint256"},{"name":"forVotes","type":"uint256","internalType":"uint256"},{"name":"againstVotes","type":"uint256","internalType":"uint256"},{"name":"abstainVotes","type":"uint256","internalType":"uint256"}],"stateMutability":"view"},{"type":"function","name":"propose","inputs":[{"name":"description","type":"string","internalType":"string"}],"outputs":[{"name":"id","type":"uint256","internalType":"uint256"}],"stateMutability":"nonpayable"},{"type":"function","name":"quorum","inputs":[],"outputs":[{"name":"","type":"uint256","internalType":"uint256"}],"stateMutability":"view"},{"type":"function","name":"state","inputs":[{"name":"id","type":"uint256","internalType":"uint256"}],"outputs":[{"name":"","type":"uint8","internalType":"enum SimpleDao.ProposalState"}],"stateMutability":"view"},{"type":"function","name":"voteToken","inputs":[],"outputs":[{"name":"","type":"address","internalType":"contract IVoteToken"}],"stateMutability":"view"},{"type":"function","name":"votingPeriod","inputs":[],"outputs":[{"name":"","type":"uint256","internalType":"uint256"}],"stateMutability":"view"},{"type":"event","name":"ProposalCreated","inputs":[{"name":"id","type":"uint256","indexed":true,"internalType":"uint256"},{"name":"proposer","type":"address","indexed":true,"internalType":"address"},{"name":"description","type":"string","indexed":false,"internalType":"string"}],"anonymous":false},{"type":"event","name":"VoteCast","inputs":[{"name":"id","type":"uint256","indexed":true,"internalType":"uint256"},{"name":"voter","type":"address","indexed":true,"internalType":"address"},{"name":"support","type":"uint8","indexed":false,"internalType":"uint8"},{"name":"weight","type":"uint256","indexed":false,"internalType":"uint256"}],"anonymous":false},{"type":"error","name":"AlreadyVoted","inputs":[]},{"type":"error","name":"InvalidVoteType","inputs":[]},{"type":"error","name":"NotActive","inputs":[]}],"bytecode":{"object":"0x60e060405234801561000f575f80fd5b506040516109ce3803806109ce83398101604081905261002e91610047565b6001600160a01b0390921660805260a05260c052610086565b5f805f60608486031215610059575f80fd5b83516001600160a01b038116811461006f575f80fd5b602085015160409095015190969495509392505050565b60805160a05160c05161090b6100c35f395f8181610112015261026301525f81816099015261056b01525f818160d301526103aa015261090b5ff3fe608060405234801561000f575f80fd5b5060043610610090575f3560e01c8063438596321161006357806343859632146101545780635678138814610177578063aa98df391461018a578063da35c6641461019d578063e96022fa146101a5575f80fd5b806302a251a314610094578063160d66ae146100ce5780631703a0181461010d5780633e4f49e614610134575b5f80fd5b6100bb7f000000000000000000000000000000000000000000000000000000000000000081565b6040519081526020015b60405180910390f35b6100f57f000000000000000000000000000000000000000000000000000000000000000081565b6040516001600160a01b0390911681526020016100c5565b6100bb7f000000000000000000000000000000000000000000000000000000000000000081565b6101476101423660046105e1565b61022c565b6040516100c5919061060c565b610167610162366004610632565b6102c7565b60405190151581526020016100c5565b6100bb61018536600461066b565b6102f6565b6100bb610198366004610693565b610525565b6100bb5f5481565b6101f56101b33660046105e1565b5f9081526001602081905260409091208054918101546002820154600383015460048401546005909401546001600160a01b0390951695929491939092909190565b604080516001600160a01b0390971687526020870195909552938501929092526060840152608083015260a082015260c0016100c5565b5f818152600160208190526040822090810154820361024d57505f92915050565b806002015443116102615750600192915050565b7f0000000000000000000000000000000000000000000000000000000000000000816005015482600301546102969190610713565b10156102a55750600292915050565b8060040154816003015411156102be5750600392915050565b50600292915050565b5f8281526001602090815260408083206001600160a01b038516845260070190915290205460ff165b92915050565b5f82815260016020819052604082209061030f8561022c565b6003811115610320576103206105f8565b1461033e57604051634065aaf160e11b815260040160405180910390fd5b335f90815260078201602052604090205460ff161561037057604051637c9a1cf960e01b815260040160405180910390fd5b600260ff8416111561039557604051638eed55d160e01b815260040160405180910390fd5b6040516309ab24eb60e41b81523360048201527f00000000000000000000000000000000000000000000000000000000000000006001600160a01b031690639ab24eb090602401602060405180830381865afa1580156103f7573d5f803e3d5ffd5b505050506040513d601f19601f8201168201806040525081019061041b9190610726565b335f9081526007830160205260409020805460ff191660019081179091559092508360ff166002811115610451576104516105f8565b6002811115610462576104626105f8565b036104855781816003015f82825461047a9190610713565b909155506104dd9050565b5f8360ff16600281111561049b5761049b6105f8565b60028111156104ac576104ac6105f8565b036104c45781816004015f82825461047a9190610713565b81816005015f8282546104d79190610713565b90915550505b6040805160ff8516815260208101849052339186917fb83d25c6a5d258561330739951487acb4bd09ba5190b5d32c4f261817d90679291015b60405180910390a35092915050565b5f805481806105338361073d565b90915550505f805480825260016020819052604090922080546001600160a01b031916331781554392810183905590925090610590907f000000000000000000000000000000000000000000000000000000000000000090610713565b6002820155600681016105a48486836107ed565b50336001600160a01b0316827f7585f467599d0f008985f231af99293be388626ac16ca59505c2f8f88969cd6386866040516105169291906108a7565b5f602082840312156105f1575f80fd5b5035919050565b634e487b7160e01b5f52602160045260245ffd5b602081016004831061062c57634e487b7160e01b5f52602160045260245ffd5b91905290565b5f8060408385031215610643575f80fd5b8235915060208301356001600160a01b0381168114610660575f80fd5b809150509250929050565b5f806040838503121561067c575f80fd5b82359150602083013560ff81168114610660575f80fd5b5f80602083850312156106a4575f80fd5b823567ffffffffffffffff808211156106bb575f80fd5b818501915085601f8301126106ce575f80fd5b8135818111156106dc575f80fd5b8660208285010111156106ed575f80fd5b60209290920196919550909350505050565b634e487b7160e01b5f52601160045260245ffd5b808201808211156102f0576102f06106ff565b5f60208284031215610736575f80fd5b5051919050565b5f6001820161074e5761074e6106ff565b5060010190565b634e487b7160e01b5f52604160045260245ffd5b600181811c9082168061077d57607f821691505b60208210810361079b57634e487b7160e01b5f52602260045260245ffd5b50919050565b601f8211156107e857805f5260205f20601f840160051c810160208510156107c65750805b601f840160051c820191505b818110156107e5575f81556001016107d2565b50505b505050565b67ffffffffffffffff83111561080557610805610755565b610819836108138354610769565b836107a1565b5f601f84116001811461084a575f85156108335750838201355b5f19600387901b1c1916600186901b1783556107e5565b5f83815260208120601f198716915b828110156108795786850135825560209485019460019092019101610859565b5086821015610895575f1960f88860031b161c19848701351681555b505060018560011b0183555050505050565b60208152816020820152818360408301375f818301604090810191909152601f909201601f1916010191905056fea2646970667358221220677a64e4b7c406a2f38b7dad6a11605e8aab3bbdbd7058d183445f750fa4cdbb64736f6c63430008180033","linkReferences":{}},"methodIdentifiers":{"castVote(uint256,uint8)":"56781388","hasVoted(uint256,address)":"43859632","proposalCount()":"da35c664","proposalView(uint256)":"e96022fa","propose(string)":"aa98df39","quorum()":"1703a018","state(uint256)":"3e4f49e6","voteToken()":"160d66ae","votingPeriod()":"02a251a3"},"id":0}