{"abi":[{"type":"constructor","inputs":[{"name":"token","type":"address","internalType":"address"},{"name":"_votingPeriod","type":"uint256","internalType":"uint256"},{"name":"_quorumBps","type":"uint256","internalType":"uint256"},{"name":"_timelockDelay","type":"uint256","internalType":"uint256"}],"stateMutability":"nonpayable"},{"type":"function","name":"castVote","inputs":[{"name":"id","type":"uint256","internalType":"uint256"},{"name":"support","type":"uint8","internalType":"uint8"}],"outputs":[{"name":"weight","type":"uint256","internalType":"uint256"}],"stateMutability":"nonpayable"},{"type":"function","name":"executeProposal","inputs":[{"name":"id","type":"uint256","internalType":"uint256"}],"outputs":[],"stateMutability":"nonpayable"},{"type":"function","name":"hasVoted","inputs":[{"name":"id","type":"uint256","internalType":"uint256"},{"name":"voter","type":"address","internalType":"address"}],"outputs":[{"name":"","type":"bool","internalType":"bool"}],"stateMutability":"view"},{"type":"function","name":"proposalCount","inputs":[],"outputs":[{"name":"","type":"uint256","internalType":"uint256"}],"stateMutability":"view"},{"type":"function","name":"proposalExecutionView","inputs":[{"name":"id","type":"uint256","internalType":"uint256"}],"outputs":[{"name":"target","type":"address","internalType":"address"},{"name":"value","type":"uint256","internalType":"uint256"},{"name":"readyAt","type":"uint256","internalType":"uint256"},{"name":"queued","type":"bool","internalType":"bool"},{"name":"executed","type":"bool","internalType":"bool"}],"stateMutability":"view"},{"type":"function","name":"proposalView","inputs":[{"name":"id","type":"uint256","internalType":"uint256"}],"outputs":[{"name":"proposer","type":"address","internalType":"address"},{"name":"startTime","type":"uint256","internalType":"uint256"},{"name":"endTime","type":"uint256","internalType":"uint256"},{"name":"forVotes","type":"uint256","internalType":"uint256"},{"name":"againstVotes","type":"uint256","internalType":"uint256"},{"name":"abstainVotes","type":"uint256","internalType":"uint256"}],"stateMutability":"view"},{"type":"function","name":"propose","inputs":[{"name":"target","type":"address","internalType":"address"},{"name":"value","type":"uint256","internalType":"uint256"},{"name":"data","type":"bytes","internalType":"bytes"},{"name":"description","type":"string","internalType":"string"}],"outputs":[{"name":"id","type":"uint256","internalType":"uint256"}],"stateMutability":"nonpayable"},{"type":"function","name":"propose","inputs":[{"name":"description","type":"string","internalType":"string"}],"outputs":[{"name":"id","type":"uint256","internalType":"uint256"}],"stateMutability":"nonpayable"},{"type":"function","name":"queueProposal","inputs":[{"name":"id","type":"uint256","internalType":"uint256"}],"outputs":[],"stateMutability":"nonpayable"},{"type":"function","name":"quorumBps","inputs":[],"outputs":[{"name":"","type":"uint256","internalType":"uint256"}],"stateMutability":"view"},{"type":"function","name":"quorumVotes","inputs":[],"outputs":[{"name":"","type":"uint256","internalType":"uint256"}],"stateMutability":"view"},{"type":"function","name":"state","inputs":[{"name":"id","type":"uint256","internalType":"uint256"}],"outputs":[{"name":"","type":"uint8","internalType":"enum SimpleDao.ProposalState"}],"stateMutability":"view"},{"type":"function","name":"timelockDelay","inputs":[],"outputs":[{"name":"","type":"uint256","internalType":"uint256"}],"stateMutability":"view"},{"type":"function","name":"voteToken","inputs":[],"outputs":[{"name":"","type":"address","internalType":"contract IVoteToken"}],"stateMutability":"view"},{"type":"function","name":"votingPeriod","inputs":[],"outputs":[{"name":"","type":"uint256","internalType":"uint256"}],"stateMutability":"view"},{"type":"event","name":"ProposalCreated","inputs":[{"name":"id","type":"uint256","indexed":true,"internalType":"uint256"},{"name":"proposer","type":"address","indexed":true,"internalType":"address"},{"name":"description","type":"string","indexed":false,"internalType":"string"}],"anonymous":false},{"type":"event","name":"ProposalExecuted","inputs":[{"name":"id","type":"uint256","indexed":true,"internalType":"uint256"},{"name":"target","type":"address","indexed":true,"internalType":"address"},{"name":"value","type":"uint256","indexed":false,"internalType":"uint256"}],"anonymous":false},{"type":"event","name":"ProposalQueued","inputs":[{"name":"id","type":"uint256","indexed":true,"internalType":"uint256"},{"name":"readyAt","type":"uint256","indexed":false,"internalType":"uint256"}],"anonymous":false},{"type":"event","name":"VoteCast","inputs":[{"name":"id","type":"uint256","indexed":true,"internalType":"uint256"},{"name":"voter","type":"address","indexed":true,"internalType":"address"},{"name":"support","type":"uint8","indexed":false,"internalType":"uint8"},{"name":"weight","type":"uint256","indexed":false,"internalType":"uint256"}],"anonymous":false},{"type":"error","name":"AlreadyExecuted","inputs":[]},{"type":"error","name":"AlreadyQueued","inputs":[]},{"type":"error","name":"AlreadyVoted","inputs":[]},{"type":"error","name":"ExecutionFailed","inputs":[]},{"type":"error","name":"InvalidVoteType","inputs":[]},{"type":"error","name":"NotActive","inputs":[]},{"type":"error","name":"ProposalNotFound","inputs":[]},{"type":"error","name":"ProposalNotQueued","inputs":[]},{"type":"error","name":"ProposalNotSucceeded","inputs":[]},{"type":"error","name":"QuorumNotReached","inputs":[{"name":"voted","type":"uint256","internalType":"uint256"},{"name":"required","type":"uint256","internalType":"uint256"}]},{"type":"error","name":"TimelockNotElapsed","inputs":[{"name":"readyAt","type":"uint256","internalType":"uint256"},{"name":"currentTime","type":"uint256","internalType":"uint256"}]},{"type":"error","name":"VotingClosed","inputs":[]}],"bytecode":{"object":"0x610100604052348015610010575f80fd5b506040516113a33803806113a383398101604081905261002f9161004e565b6001600160a01b0390931660805260a09190915260c05260e052610095565b5f805f8060808587031215610061575f80fd5b84516001600160a01b0381168114610077575f80fd5b60208601516040870151606090970151919890975090945092505050565b60805160a05160c05160e0516112b26100f15f395f81816102d40152610bab01525f818161021e015281816105ce01526105fb01525f818160f90152610c9f01525f81816101480152818161061c01526108bb01526112b25ff3fe608060405234801561000f575f80fd5b50600436106100f0575f3560e01c806382ff16c111610093578063da35c66411610063578063da35c66414610240578063e96022fa14610248578063eef09bad146102cf578063f2388dc3146102f6575f80fd5b806382ff16c1146101e057806394a14a34146101f3578063aa98df3914610206578063cd2ddd0c14610219575f80fd5b806324bc1a64116100ce57806324bc1a64146101825780633e4f49e61461018a57806343859632146101aa57806356781388146101cd575f80fd5b806302a251a3146100f45780630d61b5191461012e578063160d66ae14610143575b5f80fd5b61011b7f000000000000000000000000000000000000000000000000000000000000000081565b6040519081526020015b60405180910390f35b61014161013c366004610d5a565b61037b565b005b61016a7f000000000000000000000000000000000000000000000000000000000000000081565b6040516001600160a01b039091168152602001610125565b61011b6105cb565b61019d610198366004610d5a565b6106cf565b6040516101259190610d85565b6101bd6101b8366004610dc6565b61078f565b6040519015158152602001610125565b61011b6101db366004610df0565b6107be565b61011b6101ee366004610e68565b610a35565b610141610201366004610d5a565b610a85565b61011b610214366004610eec565b610c12565b61011b7f000000000000000000000000000000000000000000000000000000000000000081565b61011b5f5481565b610298610256366004610d5a565b5f9081526001602081905260409091208054918101546002820154600383015460048401546005909401546001600160a01b0390951695929491939092909190565b604080516001600160a01b0390971687526020870195909552938501929092526060840152608083015260a082015260c001610125565b61011b7f000000000000000000000000000000000000000000000000000000000000000081565b610345610304366004610d5a565b5f90815260016020526040902060078101546008820154600a830154600b909301546001600160a01b039092169390929160ff808216926101009092041690565b604080516001600160a01b039096168652602086019490945292840191909152151560608301521515608082015260a001610125565b5f8181526001602081905260408220908101549091036103ae5760405163635e873760e01b815260040160405180910390fd5b600b810154610100900460ff16156103d957604051630dc1019760e01b815260040160405180910390fd5b5f6103e382610c35565b90505f6103ee6105cb565b90508082101561042057604051631a88566160e21b815260048101839052602481018290526044015b60405180910390fd5b82600401548360030154116104485760405163feace5cd60e01b815260040160405180910390fd5b600b83015460ff1661046d5760405163599fb1a360e01b815260040160405180910390fd5b82600a01544210156104a157600a830154604051630aadd29160e41b81526004810191909152426024820152604401610417565b600b8301805461ff00191661010017905560078301546001600160a01b03161515806104d05750600883015415155b806104ea57508260090180546104e590610f2b565b151590505b1561057a57600783015460088401546040515f926001600160a01b03169190610517906009880190610f63565b5f6040518083038185875af1925050503d805f8114610551576040519150601f19603f3d011682016040523d82523d5f602084013e610556565b606091505b505090508061057857604051632b3f6d1160e21b815260040160405180910390fd5b505b600783015460088401546040519081526001600160a01b039091169085907f3b7c90df35b419337cff0919fe91849006607bb66c4373623f06f9d48c1ebb989060200160405180910390a350505050565b5f7f00000000000000000000000000000000000000000000000000000000000000005f036105f857505f90565b5f7f00000000000000000000000000000000000000000000000000000000000000007f00000000000000000000000000000000000000000000000000000000000000006001600160a01b03166318160ddd6040518163ffffffff1660e01b8152600401602060405180830381865afa158015610676573d5f803e3d5ffd5b505050506040513d601f19601f8201168201806040525081019061069a9190610fd5565b6106a49190611000565b905061271060016106b58383611017565b6106bf919061102a565b6106c9919061103d565b91505090565b5f81815260016020819052604082209081015482036106f057505f92915050565b600b810154610100900460ff161561070b5750600592915050565b8060020154421161071f5750600192915050565b6107276105cb565b61073082610c35565b101561073f5750600292915050565b80600401548160030154116107575750600292915050565b600b81015460ff161561076d5750600492915050565b8060040154816003015411156107865750600392915050565b50600292915050565b5f8281526001602090815260408083206001600160a01b0385168452600c0190915290205460ff165b92915050565b5f82815260016020819052604082209081015482036107f05760405163635e873760e01b815260040160405180910390fd5b80600201544211156108155760405163335b65a560e11b815260040160405180910390fd5b600b81015460ff16806108315750600b810154610100900460ff165b1561084f57604051634065aaf160e11b815260040160405180910390fd5b335f908152600c8201602052604090205460ff161561088157604051637c9a1cf960e01b815260040160405180910390fd5b600260ff841611156108a657604051638eed55d160e01b815260040160405180910390fd5b6040516309ab24eb60e41b81523360048201527f00000000000000000000000000000000000000000000000000000000000000006001600160a01b031690639ab24eb090602401602060405180830381865afa158015610908573d5f803e3d5ffd5b505050506040513d601f19601f8201168201806040525081019061092c9190610fd5565b335f908152600c830160205260409020805460ff191660019081179091559092508360ff16600281111561096257610962610d71565b600281111561097357610973610d71565b036109965781816003015f82825461098b9190611017565b909155506109ee9050565b5f8360ff1660028111156109ac576109ac610d71565b60028111156109bd576109bd610d71565b036109d55781816004015f82825461098b9190611017565b81816005015f8282546109e89190611017565b90915550505b6040805160ff8516815260208101849052339186917fb83d25c6a5d258561330739951487acb4bd09ba5190b5d32c4f261817d906792910160405180910390a35092915050565b5f610a7a878787878080601f0160208091040260200160405190810160405280939291908181526020018383808284375f92019190915250899250889150610c599050565b979650505050505050565b5f818152600160208190526040822090810154909103610ab85760405163635e873760e01b815260040160405180910390fd5b600b810154610100900460ff1615610ae357604051630dc1019760e01b815260040160405180910390fd5b600b81015460ff1615610b0957604051632fc2a3e160e11b815260040160405180910390fd5b80600201544211610b2d57604051634065aaf160e11b815260040160405180910390fd5b5f610b3782610c35565b90505f610b426105cb565b905080821015610b6f57604051631a88566160e21b81526004810183905260248101829052604401610417565b8260040154836003015411610b975760405163feace5cd60e01b815260040160405180910390fd5b600b8301805460ff19166001179055610bd07f000000000000000000000000000000000000000000000000000000000000000042611017565b600a840181905560405190815284907f9a2e42fd6722813d69113e7d0079d3d940171428df7373df9c7f7617cfda28929060200160405180910390a250505050565b5f610c2e5f8060405180602001604052805f8152508686610c59565b9392505050565b5f816005015482600401548360030154610c4f9190611017565b6107b89190611017565b5f80548180610c678361105c565b90915550505f805480825260016020819052604090922080546001600160a01b031916331781554292810183905590925090610cc4907f000000000000000000000000000000000000000000000000000000000000000090611017565b600282015560068101610cd88486836110d4565b506007810180546001600160a01b0319166001600160a01b0389161790556008810186905560098101610d0b868261118e565b50336001600160a01b0316827f7585f467599d0f008985f231af99293be388626ac16ca59505c2f8f88969cd638686604051610d4892919061124e565b60405180910390a35095945050505050565b5f60208284031215610d6a575f80fd5b5035919050565b634e487b7160e01b5f52602160045260245ffd5b6020810160068310610da557634e487b7160e01b5f52602160045260245ffd5b91905290565b80356001600160a01b0381168114610dc1575f80fd5b919050565b5f8060408385031215610dd7575f80fd5b82359150610de760208401610dab565b90509250929050565b5f8060408385031215610e01575f80fd5b82359150602083013560ff81168114610e18575f80fd5b809150509250929050565b5f8083601f840112610e33575f80fd5b50813567ffffffffffffffff811115610e4a575f80fd5b602083019150836020828501011115610e61575f80fd5b9250929050565b5f805f805f8060808789031215610e7d575f80fd5b610e8687610dab565b955060208701359450604087013567ffffffffffffffff80821115610ea9575f80fd5b610eb58a838b01610e23565b90965094506060890135915080821115610ecd575f80fd5b50610eda89828a01610e23565b979a9699509497509295939492505050565b5f8060208385031215610efd575f80fd5b823567ffffffffffffffff811115610f13575f80fd5b610f1f85828601610e23565b90969095509350505050565b600181811c90821680610f3f57607f821691505b602082108103610f5d57634e487b7160e01b5f52602260045260245ffd5b50919050565b5f808354610f7081610f2b565b60018281168015610f885760018114610f9d57610fc9565b60ff1984168752821515830287019450610fc9565b875f526020805f205f5b85811015610fc05781548a820152908401908201610fa7565b50505082870194505b50929695505050505050565b5f60208284031215610fe5575f80fd5b5051919050565b634e487b7160e01b5f52601160045260245ffd5b80820281158282048414176107b8576107b8610fec565b808201808211156107b8576107b8610fec565b818103818111156107b8576107b8610fec565b5f8261105757634e487b7160e01b5f52601260045260245ffd5b500490565b5f6001820161106d5761106d610fec565b5060010190565b634e487b7160e01b5f52604160045260245ffd5b601f8211156110cf57805f5260205f20601f840160051c810160208510156110ad5750805b601f840160051c820191505b818110156110cc575f81556001016110b9565b50505b505050565b67ffffffffffffffff8311156110ec576110ec611074565b611100836110fa8354610f2b565b83611088565b5f601f841160018114611131575f851561111a5750838201355b5f19600387901b1c1916600186901b1783556110cc565b5f83815260208120601f198716915b828110156111605786850135825560209485019460019092019101611140565b508682101561117c575f1960f88860031b161c19848701351681555b505060018560011b0183555050505050565b815167ffffffffffffffff8111156111a8576111a8611074565b6111bc816111b68454610f2b565b84611088565b602080601f8311600181146111ef575f84156111d85750858301515b5f19600386901b1c1916600185901b178555611246565b5f85815260208120601f198616915b8281101561121d578886015182559484019460019091019084016111fe565b508582101561123a57878501515f19600388901b60f8161c191681555b505060018460011b0185555b505050505050565b60208152816020820152818360408301375f818301604090810191909152601f909201601f1916010191905056fea26469706673582212209bc125d22341f2a9b9da43be2acbd69353bddf068eeb523576b0dcc2f18f0c3864736f6c63430008180033","linkReferences":{}},"methodIdentifiers":{"castVote(uint256,uint8)":"56781388","executeProposal(uint256)":"0d61b519","hasVoted(uint256,address)":"43859632","proposalCount()":"da35c664","proposalExecutionView(uint256)":"f2388dc3","proposalView(uint256)":"e96022fa","propose(address,uint256,bytes,string)":"82ff16c1","propose(string)":"aa98df39","queueProposal(uint256)":"94a14a34","quorumBps()":"cd2ddd0c","quorumVotes()":"24bc1a64","state(uint256)":"3e4f49e6","timelockDelay()":"eef09bad","voteToken()":"160d66ae","votingPeriod()":"02a251a3"},"id":1}