{"abi":[{"type":"constructor","inputs":[{"name":"coll","type":"address","internalType":"address"},{"name":"borrow","type":"address","internalType":"address"},{"name":"oracle","type":"address","internalType":"address"}],"stateMutability":"nonpayable"},{"type":"function","name":"BPS_DENOM","inputs":[],"outputs":[{"name":"","type":"uint256","internalType":"uint256"}],"stateMutability":"view"},{"type":"function","name":"LIQUIDATION_THRESHOLD_BPS","inputs":[],"outputs":[{"name":"","type":"uint256","internalType":"uint256"}],"stateMutability":"view"},{"type":"function","name":"LTV_BPS","inputs":[],"outputs":[{"name":"","type":"uint256","internalType":"uint256"}],"stateMutability":"view"},{"type":"function","name":"LTV_LIMIT","inputs":[],"outputs":[{"name":"","type":"uint256","internalType":"uint256"}],"stateMutability":"view"},{"type":"function","name":"PRICE_SCALE","inputs":[],"outputs":[{"name":"","type":"uint256","internalType":"uint256"}],"stateMutability":"view"},{"type":"function","name":"borrow","inputs":[{"name":"amount","type":"uint256","internalType":"uint256"}],"outputs":[],"stateMutability":"nonpayable"},{"type":"function","name":"borrowToken","inputs":[],"outputs":[{"name":"","type":"address","internalType":"contract IERC20"}],"stateMutability":"view"},{"type":"function","name":"collateralBalance","inputs":[{"name":"","type":"address","internalType":"address"}],"outputs":[{"name":"","type":"uint256","internalType":"uint256"}],"stateMutability":"view"},{"type":"function","name":"collateralToken","inputs":[],"outputs":[{"name":"","type":"address","internalType":"contract IERC20"}],"stateMutability":"view"},{"type":"function","name":"collateralValue","inputs":[{"name":"user","type":"address","internalType":"address"}],"outputs":[{"name":"","type":"uint256","internalType":"uint256"}],"stateMutability":"view"},{"type":"function","name":"debtBalance","inputs":[{"name":"","type":"address","internalType":"address"}],"outputs":[{"name":"","type":"uint256","internalType":"uint256"}],"stateMutability":"view"},{"type":"function","name":"healthFactor","inputs":[{"name":"user","type":"address","internalType":"address"}],"outputs":[{"name":"","type":"uint256","internalType":"uint256"}],"stateMutability":"view"},{"type":"function","name":"liquidate","inputs":[{"name":"borrower","type":"address","internalType":"address"}],"outputs":[],"stateMutability":"nonpayable"},{"type":"function","name":"priceOracle","inputs":[],"outputs":[{"name":"","type":"address","internalType":"contract IPriceOracle"}],"stateMutability":"view"},{"type":"function","name":"repay","inputs":[{"name":"amount","type":"uint256","internalType":"uint256"}],"outputs":[],"stateMutability":"nonpayable"},{"type":"function","name":"supply","inputs":[{"name":"amount","type":"uint256","internalType":"uint256"}],"outputs":[],"stateMutability":"nonpayable"},{"type":"function","name":"withdraw","inputs":[{"name":"amount","type":"uint256","internalType":"uint256"}],"outputs":[],"stateMutability":"nonpayable"},{"type":"event","name":"Borrowed","inputs":[{"name":"user","type":"address","indexed":true,"internalType":"address"},{"name":"amount","type":"uint256","indexed":false,"internalType":"uint256"}],"anonymous":false},{"type":"event","name":"Liquidated","inputs":[{"name":"borrower","type":"address","indexed":true,"internalType":"address"},{"name":"liquidator","type":"address","indexed":true,"internalType":"address"},{"name":"repaidDebt","type":"uint256","indexed":false,"internalType":"uint256"},{"name":"seizedCollateral","type":"uint256","indexed":false,"internalType":"uint256"}],"anonymous":false},{"type":"event","name":"Repaid","inputs":[{"name":"user","type":"address","indexed":true,"internalType":"address"},{"name":"amount","type":"uint256","indexed":false,"internalType":"uint256"}],"anonymous":false},{"type":"event","name":"Supplied","inputs":[{"name":"user","type":"address","indexed":true,"internalType":"address"},{"name":"amount","type":"uint256","indexed":false,"internalType":"uint256"}],"anonymous":false},{"type":"event","name":"Withdrawn","inputs":[{"name":"user","type":"address","indexed":true,"internalType":"address"},{"name":"amount","type":"uint256","indexed":false,"internalType":"uint256"}],"anonymous":false},{"type":"error","name":"InsufficientCollateral","inputs":[]},{"type":"error","name":"MaxLTVExceeded","inputs":[{"name":"requestedDebt","type":"uint256","internalType":"uint256"},{"name":"maxDebt","type":"uint256","internalType":"uint256"}]},{"type":"error","name":"NoDebt","inputs":[]},{"type":"error","name":"PositionHealthy","inputs":[{"name":"collateralValue","type":"uint256","internalType":"uint256"},{"name":"liquidationThreshold","type":"uint256","internalType":"uint256"}]},{"type":"error","name":"TransferFailed","inputs":[]}],"bytecode":{"object":"0x60e060405234801561000f575f80fd5b50604051610e31380380610e3183398101604081905261002e91610066565b6001600160a01b0392831660805290821660a0521660c0526100a6565b80516001600160a01b0381168114610061575f80fd5b919050565b5f805f60608486031215610078575f80fd5b6100818461004b565b925061008f6020850161004b565b915061009d6040850161004b565b90509250925092565b60805160a05160c051610d296101085f395f818161014a0152610b7c01525f81816101d7015281816105430152818161084c0152610a5601525f818161025401528181610387015281816105e6015281816106e40152610b480152610d295ff3fe608060405234801561000f575f80fd5b5060043610610106575f3560e01c806348cce25a1161009e578063a1bf28401161006e578063a1bf284014610230578063b2016bd41461024f578063c33f59d314610276578063c5ebeaec14610285578063fae3706f14610298575f80fd5b806348cce25a146101f95780636637e38c146102015780636ad9f9df1461020a5780637544aa441461021d575f80fd5b80632f865568116100d95780632f8655681461019957806335403023146101ac578063371fd8e6146101bf578063456dc17a146101d2575f80fd5b80630c6d5a581461010a57806311005b07146101265780632630c12f146101455780632e1a7d4d14610184575b5f80fd5b61011361290481565b6040519081526020015b60405180910390f35b610113610134366004610c10565b60016020525f908152604090205481565b61016c7f000000000000000000000000000000000000000000000000000000000000000081565b6040516001600160a01b03909116815260200161011d565b610197610192366004610c36565b6102a1565b005b6101976101a7366004610c10565b610451565b6101976101ba366004610c36565b6106c2565b6101976101cd366004610c36565b6107ce565b61016c7f000000000000000000000000000000000000000000000000000000000000000081565b610113604b81565b61011361271081565b610113610218366004610c10565b610937565b61011361022b366004610c10565b6109a5565b61011361023e366004610c10565b5f6020819052908152604090205481565b61016c7f000000000000000000000000000000000000000000000000000000000000000081565b610113670de0b6b3a764000081565b610197610293366004610c36565b6109cc565b610113611d4c81565b335f908152602081905260409020548111156102d057604051633a23d82560e01b815260040160405180910390fd5b335f908152602081905260408120546102ea908390610c61565b90505f6102f682610b0f565b335f9081526001602052604090205490915081101561034857335f908152600160205260409081902054905163461726f360e01b81526004810191909152602481018290526044015b60405180910390fd5b335f9081526020819052604081208054859290610366908490610c61565b909155505060405163a9059cbb60e01b8152336004820152602481018490527f00000000000000000000000000000000000000000000000000000000000000006001600160a01b03169063a9059cbb906044016020604051808303815f875af11580156103d5573d5f803e3d5ffd5b505050506040513d601f19601f820116820180604052508101906103f99190610c74565b610416576040516312171d8360e31b815260040160405180910390fd5b60405183815233907f7084f5476618d8e60b11ef0d7d3f06914655adb8793e28ff7f018d4c76d505d5906020015b60405180910390a2505050565b6001600160a01b0381165f908152600160205260408120549081900361048a576040516308d1fde360e11b815260040160405180910390fd5b6001600160a01b0382165f908152602081905260408120546104ab90610b31565b90505f6127106104bd61290485610c93565b6104c79190610caa565b90508082106104f3576040516301f7d11160e21b8152600481018390526024810182905260440161033f565b6001600160a01b038481165f90815260208181526040808320805460018452828520859055928490529290925590516323b872dd60e01b81523360048201523060248201526044810186905290917f000000000000000000000000000000000000000000000000000000000000000016906323b872dd906064016020604051808303815f875af1158015610589573d5f803e3d5ffd5b505050506040513d601f19601f820116820180604052508101906105ad9190610c74565b6105ca576040516312171d8360e31b815260040160405180910390fd5b60405163a9059cbb60e01b8152336004820152602481018290527f00000000000000000000000000000000000000000000000000000000000000006001600160a01b03169063a9059cbb906044016020604051808303815f875af1158015610634573d5f803e3d5ffd5b505050506040513d601f19601f820116820180604052508101906106589190610c74565b610675576040516312171d8360e31b815260040160405180910390fd5b604080518581526020810183905233916001600160a01b038816917f1f0c6615429d1cdae0dfa233abf91d3b31cdbdd82c8081389832a61e1072f1ea910160405180910390a35050505050565b6040516323b872dd60e01b8152336004820152306024820152604481018290527f00000000000000000000000000000000000000000000000000000000000000006001600160a01b0316906323b872dd906064016020604051808303815f875af1158015610732573d5f803e3d5ffd5b505050506040513d601f19601f820116820180604052508101906107569190610c74565b610773576040516312171d8360e31b815260040160405180910390fd5b335f9081526020819052604081208054839290610791908490610cc9565b909155505060405181815233907f6473c9f7da8f23a3d810f05b3e8fb3945f0ad17deadcc09e302cdf5d58e48fe79060200160405180910390a250565b335f9081526001602052604081205490036107fc576040516308d1fde360e11b815260040160405180910390fd5b335f9081526001602052604081205482116108175781610827565b335f908152600160205260409020545b6040516323b872dd60e01b8152336004820152306024820152604481018290529091507f00000000000000000000000000000000000000000000000000000000000000006001600160a01b0316906323b872dd906064016020604051808303815f875af115801561089a573d5f803e3d5ffd5b505050506040513d601f19601f820116820180604052508101906108be9190610c74565b6108db576040516312171d8360e31b815260040160405180910390fd5b335f90815260016020526040812080548392906108f9908490610c61565b909155505060405181815233907f0516911bcc3a0a7412a44601057c0a0a1ec628bde049a84284bc4288665344889060200160405180910390a25050565b6001600160a01b0381165f90815260016020526040812054810361095d57505f19919050565b5f61096783610bef565b6001600160a01b0384165f9081526001602052604090205490915061099482670de0b6b3a7640000610c93565b61099e9190610caa565b9392505050565b6001600160a01b0381165f908152602081905260408120546109c690610b31565b92915050565b335f908152600160205260408120546109e6908390610cc9565b90505f6109f233610bef565b905080821115610a1f5760405163461726f360e01b8152600481018390526024810182905260440161033f565b335f81815260016020526040908190208490555163a9059cbb60e01b81526004810191909152602481018490526001600160a01b037f0000000000000000000000000000000000000000000000000000000000000000169063a9059cbb906044016020604051808303815f875af1158015610a9c573d5f803e3d5ffd5b505050506040513d601f19601f82011682018060405250810190610ac09190610c74565b610add576040516312171d8360e31b815260040160405180910390fd5b60405183815233907fac59582e5396aca512fa873a2047e7f4c80f8f55d4a06cb34a78a0187f62719f90602001610444565b5f6064604b610b1d84610b31565b610b279190610c93565b6109c69190610caa565b6040516341976e0960e01b81526001600160a01b037f0000000000000000000000000000000000000000000000000000000000000000811660048301525f91670de0b6b3a7640000917f000000000000000000000000000000000000000000000000000000000000000016906341976e0990602401602060405180830381865afa158015610bc1573d5f803e3d5ffd5b505050506040513d601f19601f82011682018060405250810190610be59190610cdc565b610b279084610c93565b6001600160a01b0381165f908152602081905260408120546109c690610b0f565b5f60208284031215610c20575f80fd5b81356001600160a01b038116811461099e575f80fd5b5f60208284031215610c46575f80fd5b5035919050565b634e487b7160e01b5f52601160045260245ffd5b818103818111156109c6576109c6610c4d565b5f60208284031215610c84575f80fd5b8151801515811461099e575f80fd5b80820281158282048414176109c6576109c6610c4d565b5f82610cc457634e487b7160e01b5f52601260045260245ffd5b500490565b808201808211156109c6576109c6610c4d565b5f60208284031215610cec575f80fd5b505191905056fea2646970667358221220face31f4fb0ecbef660ef5c52a395b4080a831bf9a4d413eccaa1d434ae978a664736f6c63430008180033","linkReferences":{}},"methodIdentifiers":{"BPS_DENOM()":"6637e38c","LIQUIDATION_THRESHOLD_BPS()":"0c6d5a58","LTV_BPS()":"fae3706f","LTV_LIMIT()":"48cce25a","PRICE_SCALE()":"c33f59d3","borrow(uint256)":"c5ebeaec","borrowToken()":"456dc17a","collateralBalance(address)":"a1bf2840","collateralToken()":"b2016bd4","collateralValue(address)":"7544aa44","debtBalance(address)":"11005b07","healthFactor(address)":"6ad9f9df","liquidate(address)":"2f865568","priceOracle()":"2630c12f","repay(uint256)":"371fd8e6","supply(uint256)":"35403023","withdraw(uint256)":"2e1a7d4d"},"id":2}