{"abi":[{"type":"constructor","inputs":[{"name":"coll","type":"address","internalType":"address"},{"name":"borrow","type":"address","internalType":"address"}],"stateMutability":"nonpayable"},{"type":"function","name":"BPS_DENOM","inputs":[],"outputs":[{"name":"","type":"uint256","internalType":"uint256"}],"stateMutability":"view"},{"type":"function","name":"LTV_BPS","inputs":[],"outputs":[{"name":"","type":"uint256","internalType":"uint256"}],"stateMutability":"view"},{"type":"function","name":"borrow","inputs":[{"name":"amount","type":"uint256","internalType":"uint256"}],"outputs":[],"stateMutability":"nonpayable"},{"type":"function","name":"borrowToken","inputs":[],"outputs":[{"name":"","type":"address","internalType":"contract IERC20"}],"stateMutability":"view"},{"type":"function","name":"collateralBalance","inputs":[{"name":"","type":"address","internalType":"address"}],"outputs":[{"name":"","type":"uint256","internalType":"uint256"}],"stateMutability":"view"},{"type":"function","name":"collateralToken","inputs":[],"outputs":[{"name":"","type":"address","internalType":"contract IERC20"}],"stateMutability":"view"},{"type":"function","name":"debtBalance","inputs":[{"name":"","type":"address","internalType":"address"}],"outputs":[{"name":"","type":"uint256","internalType":"uint256"}],"stateMutability":"view"},{"type":"function","name":"healthFactor","inputs":[{"name":"user","type":"address","internalType":"address"}],"outputs":[{"name":"","type":"uint256","internalType":"uint256"}],"stateMutability":"view"},{"type":"function","name":"repay","inputs":[{"name":"amount","type":"uint256","internalType":"uint256"}],"outputs":[],"stateMutability":"nonpayable"},{"type":"function","name":"supply","inputs":[{"name":"amount","type":"uint256","internalType":"uint256"}],"outputs":[],"stateMutability":"nonpayable"},{"type":"function","name":"withdraw","inputs":[{"name":"amount","type":"uint256","internalType":"uint256"}],"outputs":[],"stateMutability":"nonpayable"},{"type":"event","name":"Borrowed","inputs":[{"name":"user","type":"address","indexed":true,"internalType":"address"},{"name":"amount","type":"uint256","indexed":false,"internalType":"uint256"}],"anonymous":false},{"type":"event","name":"Repaid","inputs":[{"name":"user","type":"address","indexed":true,"internalType":"address"},{"name":"amount","type":"uint256","indexed":false,"internalType":"uint256"}],"anonymous":false},{"type":"event","name":"Supplied","inputs":[{"name":"user","type":"address","indexed":true,"internalType":"address"},{"name":"amount","type":"uint256","indexed":false,"internalType":"uint256"}],"anonymous":false},{"type":"event","name":"Withdrawn","inputs":[{"name":"user","type":"address","indexed":true,"internalType":"address"},{"name":"amount","type":"uint256","indexed":false,"internalType":"uint256"}],"anonymous":false},{"type":"error","name":"ExceedsBorrowCap","inputs":[]},{"type":"error","name":"InsufficientCollateral","inputs":[]},{"type":"error","name":"NoDebt","inputs":[]},{"type":"error","name":"TransferFailed","inputs":[]}],"bytecode":{"object":"0x60c060405234801561000f575f80fd5b506040516109be3803806109be83398101604081905261002e91610060565b6001600160a01b039182166080521660a052610091565b80516001600160a01b038116811461005b575f80fd5b919050565b5f8060408385031215610071575f80fd5b61007a83610045565b915061008860208401610045565b90509250929050565b60805160a0516108f06100ce5f395f818161011c015281816104fd015261072701525f8181610196015281816102aa015261039501526108f05ff3fe608060405234801561000f575f80fd5b50600436106100a6575f3560e01c80636637e38c1161006e5780636637e38c146101565780636ad9f9df1461015f578063a1bf284014610172578063b2016bd414610191578063c5ebeaec146101b8578063fae3706f146101cb575f80fd5b806311005b07146100aa5780632e1a7d4d146100dc57806335403023146100f1578063371fd8e614610104578063456dc17a14610117575b5f80fd5b6100c96100b83660046107e8565b60016020525f908152604090205481565b6040519081526020015b60405180910390f35b6100ef6100ea36600461080e565b6101d4565b005b6100ef6100ff36600461080e565b610373565b6100ef61011236600461080e565b61047f565b61013e7f000000000000000000000000000000000000000000000000000000000000000081565b6040516001600160a01b0390911681526020016100d3565b6100c961271081565b6100c961016d3660046107e8565b6105e9565b6100c96101803660046107e8565b5f6020819052908152604090205481565b61013e7f000000000000000000000000000000000000000000000000000000000000000081565b6100ef6101c636600461080e565b610680565b6100c9611d4c81565b335f9081526020819052604090205481111561020357604051633a23d82560e01b815260040160405180910390fd5b335f9081526020819052604081205461021d908390610839565b90505f61271061022f611d4c84610852565b6102399190610869565b335f9081526001602052604090205490915081101561026b5760405163e4c1095960e01b815260040160405180910390fd5b335f9081526020819052604081208054859290610289908490610839565b909155505060405163a9059cbb60e01b8152336004820152602481018490527f00000000000000000000000000000000000000000000000000000000000000006001600160a01b03169063a9059cbb906044016020604051808303815f875af11580156102f8573d5f803e3d5ffd5b505050506040513d601f19601f8201168201806040525081019061031c9190610888565b610339576040516312171d8360e31b815260040160405180910390fd5b60405183815233907f7084f5476618d8e60b11ef0d7d3f06914655adb8793e28ff7f018d4c76d505d59060200160405180910390a2505050565b6040516323b872dd60e01b8152336004820152306024820152604481018290527f00000000000000000000000000000000000000000000000000000000000000006001600160a01b0316906323b872dd906064016020604051808303815f875af11580156103e3573d5f803e3d5ffd5b505050506040513d601f19601f820116820180604052508101906104079190610888565b610424576040516312171d8360e31b815260040160405180910390fd5b335f90815260208190526040812080548392906104429084906108a7565b909155505060405181815233907f6473c9f7da8f23a3d810f05b3e8fb3945f0ad17deadcc09e302cdf5d58e48fe79060200160405180910390a250565b335f9081526001602052604081205490036104ad576040516308d1fde360e11b815260040160405180910390fd5b335f9081526001602052604081205482116104c857816104d8565b335f908152600160205260409020545b6040516323b872dd60e01b8152336004820152306024820152604481018290529091507f00000000000000000000000000000000000000000000000000000000000000006001600160a01b0316906323b872dd906064016020604051808303815f875af115801561054b573d5f803e3d5ffd5b505050506040513d601f19601f8201168201806040525081019061056f9190610888565b61058c576040516312171d8360e31b815260040160405180910390fd5b335f90815260016020526040812080548392906105aa908490610839565b909155505060405181815233907f0516911bcc3a0a7412a44601057c0a0a1ec628bde049a84284bc428866534488906020015b60405180910390a25050565b6001600160a01b0381165f90815260016020526040812054810361060f57505f19919050565b6001600160a01b0382165f908152602081905260408120546127109061063890611d4c90610852565b6106429190610869565b6001600160a01b0384165f9081526001602052604090205490915061066f82670de0b6b3a7640000610852565b6106799190610869565b9392505050565b335f90815260208190526040812054612710906106a090611d4c90610852565b6106aa9190610869565b335f9081526001602052604090205490915081906106c99084906108a7565b11156106e85760405163e4c1095960e01b815260040160405180910390fd5b335f90815260016020526040812080548492906107069084906108a7565b909155505060405163a9059cbb60e01b8152336004820152602481018390527f00000000000000000000000000000000000000000000000000000000000000006001600160a01b03169063a9059cbb906044016020604051808303815f875af1158015610775573d5f803e3d5ffd5b505050506040513d601f19601f820116820180604052508101906107999190610888565b6107b6576040516312171d8360e31b815260040160405180910390fd5b60405182815233907fac59582e5396aca512fa873a2047e7f4c80f8f55d4a06cb34a78a0187f62719f906020016105dd565b5f602082840312156107f8575f80fd5b81356001600160a01b0381168114610679575f80fd5b5f6020828403121561081e575f80fd5b5035919050565b634e487b7160e01b5f52601160045260245ffd5b8181038181111561084c5761084c610825565b92915050565b808202811582820484141761084c5761084c610825565b5f8261088357634e487b7160e01b5f52601260045260245ffd5b500490565b5f60208284031215610898575f80fd5b81518015158114610679575f80fd5b8082018082111561084c5761084c61082556fea2646970667358221220998899e565daef0b1ccf6143e2f360f423917cea76a02711d9d5c176365d08e364736f6c63430008180033","linkReferences":{}},"methodIdentifiers":{"BPS_DENOM()":"6637e38c","LTV_BPS()":"fae3706f","borrow(uint256)":"c5ebeaec","borrowToken()":"456dc17a","collateralBalance(address)":"a1bf2840","collateralToken()":"b2016bd4","debtBalance(address)":"11005b07","healthFactor(address)":"6ad9f9df","repay(uint256)":"371fd8e6","supply(uint256)":"35403023","withdraw(uint256)":"2e1a7d4d"},"id":1}