{"abi":[{"type":"constructor","inputs":[{"name":"_entryPoint","type":"address","internalType":"address"}],"stateMutability":"nonpayable"},{"type":"function","name":"createAccount","inputs":[{"name":"owner","type":"address","internalType":"address"},{"name":"salt","type":"uint256","internalType":"uint256"}],"outputs":[{"name":"account","type":"address","internalType":"address"}],"stateMutability":"nonpayable"},{"type":"function","name":"entryPoint","inputs":[],"outputs":[{"name":"","type":"address","internalType":"address"}],"stateMutability":"view"},{"type":"function","name":"getAddress","inputs":[{"name":"owner","type":"address","internalType":"address"},{"name":"salt","type":"uint256","internalType":"uint256"}],"outputs":[{"name":"","type":"address","internalType":"address"}],"stateMutability":"view"},{"type":"event","name":"AccountCreated","inputs":[{"name":"owner","type":"address","indexed":true,"internalType":"address"},{"name":"account","type":"address","indexed":true,"internalType":"address"}],"anonymous":false}],"bytecode":{"object":"0x60a060405234801561000f575f80fd5b50604051610ab4380380610ab483398101604081905261002e9161003f565b6001600160a01b031660805261006c565b5f6020828403121561004f575f80fd5b81516001600160a01b0381168114610065575f80fd5b9392505050565b608051610a246100905f395f8181608a0152818160b8015261019e0152610a245ff3fe608060405234801561000f575f80fd5b506004361061003f575f3560e01c80635fbfb9cf146100435780638cb84e1814610072578063b0d691fe14610085575b5f80fd5b61005661005136600461025e565b6100ac565b6040516001600160a01b03909116815260200160405180910390f35b61005661008036600461025e565b610165565b6100567f000000000000000000000000000000000000000000000000000000000000000081565b5f80825f1b90505f81857f00000000000000000000000000000000000000000000000000000000000000006040516100e390610251565b6001600160a01b039283168152911660208201526040018190604051809103905ff5905080158015610117573d5f803e3d5ffd5b509050809250826001600160a01b0316856001600160a01b03167fac631f3001b55ea1509cf3d7e74898f85392a61a76e8149181ae1259622dabc860405160405180910390a3505092915050565b5f806040518060200161017790610251565b601f1982820381018352601f9091011660408181526001600160a01b0387811660208401527f0000000000000000000000000000000000000000000000000000000000000000169082015260600160408051601f19818403018152908290526101e392916020016102c0565b60408051808303601f1901815282825280516020918201206001600160f81b0319828501523060601b6bffffffffffffffffffffffff191660218501526035840196909652605580840196909652815180840390960186526075909201905283519301929092209392505050565b610712806102dd83390190565b5f806040838503121561026f575f80fd5b82356001600160a01b0381168114610285575f80fd5b946020939093013593505050565b5f81515f5b818110156102b25760208185018101518683015201610298565b505f93019283525090919050565b5f6102d46102ce8386610293565b84610293565b94935050505056fe60c060405234801561000f575f80fd5b5060405161071238038061071283398101604081905261002e91610060565b6001600160a01b039182166080521660a052610091565b80516001600160a01b038116811461005b575f80fd5b919050565b5f8060408385031215610071575f80fd5b61007a83610045565b915061008860208401610045565b90509250929050565b60805160a0516106466100cc5f395f818160f0015261038101525f818160a50152818161022f015281816102da015261034d01526106465ff3fe60806040526004361061004c575f3560e01c80631626ba7e146100575780638da5cb5b14610094578063b0d691fe146100df578063b61d27f614610112578063ff2188231461013e575f80fd5b3661005357005b5f80fd5b348015610062575f80fd5b506100766100713660046104d5565b610158565b6040516001600160e01b031990911681526020015b60405180910390f35b34801561009f575f80fd5b506100c77f000000000000000000000000000000000000000000000000000000000000000081565b6040516001600160a01b03909116815260200161008b565b3480156100ea575f80fd5b506100c77f000000000000000000000000000000000000000000000000000000000000000081565b34801561011d575f80fd5b5061013161012c36600461051d565b610340565b60405161008b9190610580565b348015610149575f80fd5b50610076630b135d3f60e11b81565b5f6041821461017057506001600160e01b0319610339565b604080517f19457468657265756d205369676e6564204d6573736167653a0a333200000000602080830191909152603c82018790528535929086013591908601355f90811a91605c0160408051601f1981840301815282825280516020918201205f80855291840180845281905260ff86169284019290925260608301879052608083018690529092509060019060a0016020604051602081039080840390855afa158015610221573d5f803e3d5ffd5b5050506020604051035190507f00000000000000000000000000000000000000000000000000000000000000006001600160a01b0316816001600160a01b03160361027b5750630b135d3f60e11b94506103399350505050565b604080515f808252602082018084528c905260ff861692820192909252606081018790526080810186905260019060a0016020604051602081039080840390855afa1580156102cc573d5f803e3d5ffd5b5050506020604051035190507f00000000000000000000000000000000000000000000000000000000000000006001600160a01b0316816001600160a01b0316036103275750630b135d3f60e11b9550610339945050505050565b506001600160e01b0319955050505050505b9392505050565b6060336001600160a01b037f000000000000000000000000000000000000000000000000000000000000000016148015906103a45750336001600160a01b037f00000000000000000000000000000000000000000000000000000000000000001614155b156103c25760405163ea8e4eb560e01b815260040160405180910390fd5b5f80866001600160a01b03168686866040516103df9291906105cc565b5f6040518083038185875af1925050503d805f8114610419576040519150601f19603f3d011682016040523d82523d5f602084013e61041e565b606091505b50915091508161044157604051633204506f60e01b815260040160405180910390fd5b866001600160a01b03167fcaf938de11c367272220bfd1d2baa99ca46665e7bc4d85f00adb51b90fe1fa9f87878760405161047e939291906105db565b60405180910390a29695505050505050565b5f8083601f8401126104a0575f80fd5b50813567ffffffffffffffff8111156104b7575f80fd5b6020830191508360208285010111156104ce575f80fd5b9250929050565b5f805f604084860312156104e7575f80fd5b83359250602084013567ffffffffffffffff811115610504575f80fd5b61051086828701610490565b9497909650939450505050565b5f805f8060608587031215610530575f80fd5b84356001600160a01b0381168114610546575f80fd5b935060208501359250604085013567ffffffffffffffff811115610568575f80fd5b61057487828801610490565b95989497509550505050565b5f602080835283518060208501525f5b818110156105ac57858101830151858201604001528201610590565b505f604082860101526040601f19601f8301168501019250505092915050565b818382375f9101908152919050565b83815260406020820152816040820152818360608301375f818301606090810191909152601f909201601f191601019291505056fea2646970667358221220007f8ef0a62d10c22522369f8780115e6d4273fd38352977e9d9b812c424c56864736f6c63430008180033a264697066735822122027306077ee2ba6dda57cd24082bb5503f57a8bd8c8297ce7fd5bd9fb4e9fcd5964736f6c63430008180033","linkReferences":{}},"methodIdentifiers":{"createAccount(address,uint256)":"5fbfb9cf","entryPoint()":"b0d691fe","getAddress(address,uint256)":"8cb84e18"},"id":0}