{"abi":[{"type":"constructor","inputs":[{"name":"_entryPoint","type":"address","internalType":"address"},{"name":"guardians","type":"address[]","internalType":"address[]"},{"name":"_recoveryThreshold","type":"uint256","internalType":"uint256"}],"stateMutability":"nonpayable"},{"type":"function","name":"createAccount","inputs":[{"name":"owner","type":"address","internalType":"address"},{"name":"salt","type":"uint256","internalType":"uint256"}],"outputs":[{"name":"account","type":"address","internalType":"address"}],"stateMutability":"nonpayable"},{"type":"function","name":"entryPoint","inputs":[],"outputs":[{"name":"","type":"address","internalType":"address"}],"stateMutability":"view"},{"type":"function","name":"getAddress","inputs":[{"name":"owner","type":"address","internalType":"address"},{"name":"salt","type":"uint256","internalType":"uint256"}],"outputs":[{"name":"","type":"address","internalType":"address"}],"stateMutability":"view"},{"type":"function","name":"guardianAt","inputs":[{"name":"index","type":"uint256","internalType":"uint256"}],"outputs":[{"name":"","type":"address","internalType":"address"}],"stateMutability":"view"},{"type":"function","name":"guardianCount","inputs":[],"outputs":[{"name":"","type":"uint256","internalType":"uint256"}],"stateMutability":"view"},{"type":"function","name":"recoveryThreshold","inputs":[],"outputs":[{"name":"","type":"uint256","internalType":"uint256"}],"stateMutability":"view"},{"type":"event","name":"AccountCreated","inputs":[{"name":"owner","type":"address","indexed":true,"internalType":"address"},{"name":"account","type":"address","indexed":true,"internalType":"address"}],"anonymous":false}],"bytecode":{"object":"0x60c060405234801561000f575f80fd5b50604051611aef380380611aef83398101604081905261002e91610101565b6001600160a01b03831660805260a08190528151610052905f90602085019061005b565b505050506101dd565b828054828255905f5260205f209081019282156100ae579160200282015b828111156100ae57825182546001600160a01b0319166001600160a01b03909116178255602090920191600190910190610079565b506100ba9291506100be565b5090565b5b808211156100ba575f81556001016100bf565b80516001600160a01b03811681146100e8575f80fd5b919050565b634e487b7160e01b5f52604160045260245ffd5b5f805f60608486031215610113575f80fd5b61011c846100d2565b602085810151919450906001600160401b038082111561013a575f80fd5b818701915087601f83011261014d575f80fd5b81518181111561015f5761015f6100ed565b8060051b604051601f19603f83011681018181108582111715610184576101846100ed565b60405291825284820192508381018501918a8311156101a1575f80fd5b938501935b828510156101c6576101b7856100d2565b845293850193928501926101a6565b809750505050505050604084015190509250925092565b60805160a0516118d76102185f395f818160690152818161014d015261026e01525f818160fb01528181610124015261024501526118d75ff3fe608060405234801561000f575f80fd5b5060043610610060575f3560e01c80631c8123d61461006457806354387ad71461009e5780635fbfb9cf146100a557806388ddfa6c146100d05780638cb84e18146100e3578063b0d691fe146100f6575b5f80fd5b61008b7f000000000000000000000000000000000000000000000000000000000000000081565b6040519081526020015b60405180910390f35b5f5461008b565b6100b86100b33660046103f0565b61011d565b6040516001600160a01b039091168152602001610095565b6100b86100de366004610425565b6101f0565b6100b86100f13660046103f0565b61021d565b6100b87f000000000000000000000000000000000000000000000000000000000000000081565b5f818181857f000000000000000000000000000000000000000000000000000000000000000061014b61032c565b7f0000000000000000000000000000000000000000000000000000000000000000604051610178906103e3565b610185949392919061043c565b8190604051809103905ff59050801580156101a2573d5f803e3d5ffd5b509050809250826001600160a01b0316856001600160a01b03167fac631f3001b55ea1509cf3d7e74898f85392a61a76e8149181ae1259622dabc860405160405180910390a3505092915050565b5f808281548110610203576102036104a8565b5f918252602090912001546001600160a01b031692915050565b5f806040518060200161022f906103e3565b601f1982820381018352601f90910116604052847f000000000000000000000000000000000000000000000000000000000000000061026c61032c565b7f00000000000000000000000000000000000000000000000000000000000000006040516020016102a0949392919061043c565b60408051601f19818403018152908290526102be92916020016104e9565b60408051808303601f1901815282825280516020918201206001600160f81b0319828501523060601b6bffffffffffffffffffffffff191660218501526035840196909652605580840196909652815180840390960186526075909201905283519301929092209392505050565b5f5460609067ffffffffffffffff81111561034957610349610505565b604051908082528060200260200182016040528015610372578160200160208202803683370190505b5090505f5b5f548110156103df575f8181548110610392576103926104a8565b905f5260205f20015f9054906101000a90046001600160a01b03168282815181106103bf576103bf6104a8565b6001600160a01b0390921660209283029190910190910152600101610377565b5090565b6113888061051a83390190565b5f8060408385031215610401575f80fd5b82356001600160a01b0381168114610417575f80fd5b946020939093013593505050565b5f60208284031215610435575f80fd5b5035919050565b5f6080820160018060a01b038088168452602081881660208601526080604086015282875180855260a0870191506020890194505f5b81811015610490578551851683529483019491830191600101610472565b50508094505050505082606083015295945050505050565b634e487b7160e01b5f52603260045260245ffd5b5f81515f5b818110156104db57602081850181015186830152016104c1565b505f93019283525090919050565b5f6104fd6104f783866104bc565b846104bc565b949350505050565b634e487b7160e01b5f52604160045260245ffdfe60c060405234801562000010575f80fd5b506040516200138838038062001388833981016040819052620000339162000187565b6001600160a01b038416158062000048575080155b80620000545750815181115b156200007357604051637623bd5d60e01b815260040160405180910390fd5b5f80546001600160a01b0319166001600160a01b03868116919091178255841660805260a08290525b825181101562000148575f838281518110620000bc57620000bc62000281565b602002602001015190505f6001600160a01b0316816001600160a01b03161480620000fe57506001600160a01b0381165f9081526003602052604090205460ff165b156200011d57604051637623bd5d60e01b815260040160405180910390fd5b6001600160a01b03165f908152600360205260409020805460ff19166001908117909155016200009c565b50505160015550620002959050565b80516001600160a01b03811681146200016e575f80fd5b919050565b634e487b7160e01b5f52604160045260245ffd5b5f805f80608085870312156200019b575f80fd5b620001a68562000157565b93506020620001b781870162000157565b60408701519094506001600160401b0380821115620001d4575f80fd5b818801915088601f830112620001e8575f80fd5b815181811115620001fd57620001fd62000173565b8060051b604051601f19603f8301168101818110858211171562000225576200022562000173565b60405291825284820192508381018501918b83111562000243575f80fd5b938501935b828510156200026c576200025c8562000157565b8452938501939285019262000248565b60609a909a0151989b979a5050505050505050565b634e487b7160e01b5f52603260045260245ffd5b60805160a0516110bc620002cc5f395f8181610202015281816103d1015261041701525f81816103340152610b8201526110bc5ff3fe6080604052600436106100e7575f3560e01c806354387ad711610087578063ad3df9cf11610057578063ad3df9cf146102dd578063b0d691fe14610323578063b61d27f614610356578063ff21882314610382575f80fd5b806354387ad71461025e578063605e75a2146102735780637ee76082146102885780638da5cb5b146102a7575f80fd5b8063136dd755116100c2578063136dd755146101755780631626ba7e146101b95780631c8123d6146101f157806347e1da2a14610232575f80fd5b80630633b14a146100f2578063066ae84b14610135578063113647bb14610156575f80fd5b366100ee57005b5f80fd5b3480156100fd575f80fd5b5061012061010c366004610ceb565b60036020525f908152604090205460ff1681565b60405190151581526020015b60405180910390f35b348015610140575f80fd5b5061015461014f366004610d04565b61039c565b005b348015610161575f80fd5b50610154610170366004610d04565b6104a5565b348015610180575f80fd5b5061012061018f366004610d1b565b5f9182526005602090815260408084206001600160a01b0393909316845291905290205460ff1690565b3480156101c4575f80fd5b506101d86101d3366004610d8a565b6105aa565b6040516001600160e01b0319909116815260200161012c565b3480156101fc575f80fd5b506102247f000000000000000000000000000000000000000000000000000000000000000081565b60405190815260200161012c565b34801561023d575f80fd5b5061025161024c366004610e13565b610750565b60405161012c9190610ee9565b348015610269575f80fd5b5061022460015481565b34801561027e575f80fd5b5061022460025481565b348015610293575f80fd5b506102246102a2366004610ceb565b6109fa565b3480156102b2575f80fd5b505f546102c5906001600160a01b031681565b6040516001600160a01b03909116815260200161012c565b3480156102e8575f80fd5b506102fc6102f7366004610d04565b610ad5565b604080516001600160a01b039094168452602084019290925215159082015260600161012c565b34801561032e575f80fd5b506102c57f000000000000000000000000000000000000000000000000000000000000000081565b348015610361575f80fd5b50610375610370366004610f4b565b610b09565b60405161012c9190610fa1565b34801561038d575f80fd5b506101d8630b135d3f60e11b81565b5f6103a682610b28565b600281015490915060ff16156103cf576040516332c6649360e11b815260040160405180910390fd5b7f00000000000000000000000000000000000000000000000000000000000000008160010154101561044857600181015460405163ccf7c5f560e01b815260048101919091527f000000000000000000000000000000000000000000000000000000000000000060248201526044015b60405180910390fd5b60028101805460ff1916600117905580545f80546001600160a01b0319166001600160a01b03928316178155825460405192169184917f14ca2abddc4b8a8528a04dfd0ada8b48e1141eabef4308cca02c2fcb06b2e00b91a35050565b335f9081526003602052604090205460ff166104d4576040516377b6878160e11b815260040160405180910390fd5b5f6104de82610b28565b600281015490915060ff1615610507576040516332c6649360e11b815260040160405180910390fd5b5f82815260056020908152604080832033845290915290205460ff16156105415760405163080fc0bd60e11b815260040160405180910390fd5b5f8281526005602090815260408083203384529091528120805460ff19166001908117909155820180549161057583610fb3565b9091555050604051339083907f75cc0fdddfa6e54a2f04c21b76aa220e6673bd272744ed9848e6305ad53b89ea905f90a35050565b5f604182146105c257506001600160e01b0319610749565b604080517f19457468657265756d205369676e6564204d6573736167653a0a333200000000602080830191909152603c82018790528535929086013591908601355f90811a91605c0160408051601f1981840301815282825280516020918201205f80855291840180845281905260ff86169284019290925260608301879052608083018690529092509060019060a0016020604051602081039080840390855afa158015610673573d5f803e3d5ffd5b5050604051601f1901515f549092506001600160a01b039081169083160390506106ac5750630b135d3f60e11b94506107499350505050565b604080515f808252602082018084528c905260ff861692820192909252606081018790526080810186905260019060a0016020604051602081039080840390855afa1580156106fd573d5f803e3d5ffd5b5050604051601f1901515f549092506001600160a01b039081169083160390506107375750630b135d3f60e11b9550610749945050505050565b506001600160e01b0319955050505050505b9392505050565b606061075a610b62565b85841415806107695750858214155b1561078a576040516001621398b960e31b0319815260040160405180910390fd5b8567ffffffffffffffff8111156107a3576107a3610fd7565b6040519080825280602002602001820160405280156107d657816020015b60608152602001906001900390816107c15790505b5090505f5b868110156109bc575f8888838181106107f6576107f6610feb565b905060200201602081019061080b9190610ceb565b9050806001600160a01b03163b5f03610849576040516350b99ca360e01b8152600481018390526001600160a01b038216602482015260440161043f565b5f80826001600160a01b031689898681811061086757610867610feb565b9050602002013588888781811061088057610880610feb565b90506020028101906108929190610fff565b6040516108a0929190611042565b5f6040518083038185875af1925050503d805f81146108da576040519150601f19603f3d011682016040523d82523d5f602084013e6108df565b606091505b509150915081610914576040516350b99ca360e01b8152600481018590526001600160a01b038416602482015260440161043f565b8085858151811061092757610927610feb565b6020026020010181905250826001600160a01b03167fcaf938de11c367272220bfd1d2baa99ca46665e7bc4d85f00adb51b90fe1fa9f8a8a8781811061096f5761096f610feb565b9050602002013589898881811061098857610988610feb565b905060200281019061099a9190610fff565b6040516109a993929190611051565b60405180910390a25050506001016107db565b506040518681527fe9cc9bbe7de1cbb097a6357ca3182909488efe8d793e25665befc064a02d10a79060200160405180910390a19695505050505050565b335f9081526003602052604081205460ff16610a29576040516377b6878160e11b815260040160405180910390fd5b60025f8154610a3790610fb3565b9182905550604080516060810182526001600160a01b038581168083525f60208085018281528587018381528884526004909252868320955186546001600160a01b03191695169490941785559251600185015591516002909301805460ff191693151593909317909255915192935091339184917f1cb35b5c3390081f0283210f4fd58d68d6e6fef68913e6b75582139b1a4adc359190a4919050565b5f805f80610ae285610b28565b805460018201546002909201546001600160a01b039091169791965060ff16945092505050565b6060610b13610b62565b610b1f85858585610bc5565b95945050505050565b5f81815260046020526040902080546001600160a01b0316610b5d57604051636b7d27d960e11b815260040160405180910390fd5b919050565b5f546001600160a01b03163314801590610ba55750336001600160a01b037f00000000000000000000000000000000000000000000000000000000000000001614155b15610bc35760405163ea8e4eb560e01b815260040160405180910390fd5b565b6060846001600160a01b03163b5f03610bfc5760405163201be19160e01b81526001600160a01b038616600482015260240161043f565b5f80866001600160a01b0316868686604051610c19929190611042565b5f6040518083038185875af1925050503d805f8114610c53576040519150601f19603f3d011682016040523d82523d5f602084013e610c58565b606091505b509150915081610c865760405163201be19160e01b81526001600160a01b038816600482015260240161043f565b866001600160a01b03167fcaf938de11c367272220bfd1d2baa99ca46665e7bc4d85f00adb51b90fe1fa9f878787604051610cc393929190611051565b60405180910390a29695505050505050565b80356001600160a01b0381168114610b5d575f80fd5b5f60208284031215610cfb575f80fd5b61074982610cd5565b5f60208284031215610d14575f80fd5b5035919050565b5f8060408385031215610d2c575f80fd5b82359150610d3c60208401610cd5565b90509250929050565b5f8083601f840112610d55575f80fd5b50813567ffffffffffffffff811115610d6c575f80fd5b602083019150836020828501011115610d83575f80fd5b9250929050565b5f805f60408486031215610d9c575f80fd5b83359250602084013567ffffffffffffffff811115610db9575f80fd5b610dc586828701610d45565b9497909650939450505050565b5f8083601f840112610de2575f80fd5b50813567ffffffffffffffff811115610df9575f80fd5b6020830191508360208260051b8501011115610d83575f80fd5b5f805f805f8060608789031215610e28575f80fd5b863567ffffffffffffffff80821115610e3f575f80fd5b610e4b8a838b01610dd2565b90985096506020890135915080821115610e63575f80fd5b610e6f8a838b01610dd2565b90965094506040890135915080821115610e87575f80fd5b50610e9489828a01610dd2565b979a9699509497509295939492505050565b5f81518084525f5b81811015610eca57602081850181015186830182015201610eae565b505f602082860101526020601f19601f83011685010191505092915050565b5f60208083016020845280855180835260408601915060408160051b8701019250602087015f5b82811015610f3e57603f19888603018452610f2c858351610ea6565b94509285019290850190600101610f10565b5092979650505050505050565b5f805f8060608587031215610f5e575f80fd5b610f6785610cd5565b935060208501359250604085013567ffffffffffffffff811115610f89575f80fd5b610f9587828801610d45565b95989497509550505050565b602081525f6107496020830184610ea6565b5f60018201610fd057634e487b7160e01b5f52601160045260245ffd5b5060010190565b634e487b7160e01b5f52604160045260245ffd5b634e487b7160e01b5f52603260045260245ffd5b5f808335601e19843603018112611014575f80fd5b83018035915067ffffffffffffffff82111561102e575f80fd5b602001915036819003821315610d83575f80fd5b818382375f9101908152919050565b83815260406020820152816040820152818360608301375f818301606090810191909152601f909201601f191601019291505056fea264697066735822122019c551a437a9fa432bee1939ce743e94634f479cf43db0cc03e4c8d3880d7ce864736f6c63430008180033a2646970667358221220f7af5a8ef3c1206a22cb173edfe701e15006b7df78fabf7bb246027ae300194364736f6c63430008180033","linkReferences":{}},"methodIdentifiers":{"createAccount(address,uint256)":"5fbfb9cf","entryPoint()":"b0d691fe","getAddress(address,uint256)":"8cb84e18","guardianAt(uint256)":"88ddfa6c","guardianCount()":"54387ad7","recoveryThreshold()":"1c8123d6"},"id":0}